{
  "address": "0x6B9a90bF926D2Eb067614cC542F4bB49BB4eAeFE",
  "abi": [
    {
      "inputs": [
        {
          "internalType": "contract IPlaybuxQuestNFT",
          "name": "_nft",
          "type": "address"
        }
      ],
      "stateMutability": "nonpayable",
      "type": "constructor"
    },
    {
      "anonymous": false,
      "inputs": [
        {
          "indexed": true,
          "internalType": "address",
          "name": "account",
          "type": "address"
        },
        {
          "indexed": false,
          "internalType": "uint256",
          "name": "id",
          "type": "uint256"
        }
      ],
      "name": "Claim",
      "type": "event"
    },
    {
      "anonymous": false,
      "inputs": [
        {
          "indexed": true,
          "internalType": "address",
          "name": "previousOwner",
          "type": "address"
        },
        {
          "indexed": true,
          "internalType": "address",
          "name": "newOwner",
          "type": "address"
        }
      ],
      "name": "OwnershipTransferred",
      "type": "event"
    },
    {
      "anonymous": false,
      "inputs": [
        {
          "indexed": false,
          "internalType": "address",
          "name": "account",
          "type": "address"
        }
      ],
      "name": "Paused",
      "type": "event"
    },
    {
      "anonymous": false,
      "inputs": [
        {
          "indexed": false,
          "internalType": "address",
          "name": "account",
          "type": "address"
        }
      ],
      "name": "Unpaused",
      "type": "event"
    },
    {
      "inputs": [
        {
          "internalType": "address",
          "name": "account",
          "type": "address"
        },
        {
          "internalType": "uint256",
          "name": "id",
          "type": "uint256"
        },
        {
          "internalType": "bytes32[]",
          "name": "proof",
          "type": "bytes32[]"
        }
      ],
      "name": "canClaim",
      "outputs": [
        {
          "internalType": "bool",
          "name": "",
          "type": "bool"
        }
      ],
      "stateMutability": "view",
      "type": "function"
    },
    {
      "inputs": [
        {
          "internalType": "uint256",
          "name": "id",
          "type": "uint256"
        },
        {
          "internalType": "bytes32[]",
          "name": "proof",
          "type": "bytes32[]"
        }
      ],
      "name": "claim",
      "outputs": [],
      "stateMutability": "nonpayable",
      "type": "function"
    },
    {
      "inputs": [
        {
          "internalType": "address",
          "name": "",
          "type": "address"
        }
      ],
      "name": "claimed",
      "outputs": [
        {
          "internalType": "bool",
          "name": "",
          "type": "bool"
        }
      ],
      "stateMutability": "view",
      "type": "function"
    },
    {
      "inputs": [],
      "name": "currentSupply",
      "outputs": [
        {
          "internalType": "uint256",
          "name": "",
          "type": "uint256"
        }
      ],
      "stateMutability": "view",
      "type": "function"
    },
    {
      "inputs": [],
      "name": "merkleRoot",
      "outputs": [
        {
          "internalType": "bytes32",
          "name": "",
          "type": "bytes32"
        }
      ],
      "stateMutability": "view",
      "type": "function"
    },
    {
      "inputs": [],
      "name": "nft",
      "outputs": [
        {
          "internalType": "contract IPlaybuxQuestNFT",
          "name": "",
          "type": "address"
        }
      ],
      "stateMutability": "view",
      "type": "function"
    },
    {
      "inputs": [],
      "name": "owner",
      "outputs": [
        {
          "internalType": "address",
          "name": "",
          "type": "address"
        }
      ],
      "stateMutability": "view",
      "type": "function"
    },
    {
      "inputs": [],
      "name": "pause",
      "outputs": [],
      "stateMutability": "nonpayable",
      "type": "function"
    },
    {
      "inputs": [],
      "name": "paused",
      "outputs": [
        {
          "internalType": "bool",
          "name": "",
          "type": "bool"
        }
      ],
      "stateMutability": "view",
      "type": "function"
    },
    {
      "inputs": [],
      "name": "renounceOwnership",
      "outputs": [],
      "stateMutability": "nonpayable",
      "type": "function"
    },
    {
      "inputs": [
        {
          "internalType": "bytes32",
          "name": "_merkleRoot",
          "type": "bytes32"
        }
      ],
      "name": "setMerkleRoot",
      "outputs": [],
      "stateMutability": "nonpayable",
      "type": "function"
    },
    {
      "inputs": [
        {
          "internalType": "address",
          "name": "newOwner",
          "type": "address"
        }
      ],
      "name": "transferOwnership",
      "outputs": [],
      "stateMutability": "nonpayable",
      "type": "function"
    },
    {
      "inputs": [],
      "name": "unpause",
      "outputs": [],
      "stateMutability": "nonpayable",
      "type": "function"
    }
  ],
  "transactionHash": "0x49bc535e95f0400cd7469fe30c6a6a704ed03c86dcbc9326c1bdc87abe1e6660",
  "args": [
    "0xC2A19349D5f451071C3085B90f531D19F190FF21"
  ],
  "numDeployments": 1,
  "solcInputHash": "c4be48a163f9562d11dbda0c9206e3f0",
  "bytecode": "0x6080604052600060025534801561001557600080fd5b50604051610be0380380610be083398101604081905261003491610176565b61003d33610077565b6000805460ff60a01b1916905560018055600580546001600160a01b0319166001600160a01b0383161790556100716100c7565b506101a6565b600080546001600160a01b038381166001600160a01b0319831681178455604051919092169283917f8be0079c531659141344cd1fd0a4f28419497f9722a3daafe3b4186f6b6457e09190a35050565b6100da600054600160a01b900460ff1690565b1561011e5760405162461bcd60e51b815260206004820152601060248201526f14185d5cd8589b194e881c185d5cd95960821b604482015260640160405180910390fd5b6000805460ff60a01b1916600160a01b1790557f62e78cea01bee320cd4e420270b5ea74000d11b0c9f74754ebdbfc544b05a2586101593390565b6040516001600160a01b03909116815260200160405180910390a1565b60006020828403121561018857600080fd5b81516001600160a01b038116811461019f57600080fd5b9392505050565b610a2b806101b56000396000f3fe608060405234801561001057600080fd5b50600436106100cf5760003560e01c8063771282f61161008c5780638da5cb5b116100665780638da5cb5b14610182578063c884ef8314610193578063dc38bdb5146101b6578063f2fde38b146101c957600080fd5b8063771282f61461015e5780637cb64759146101675780638456cb591461017a57600080fd5b80632eb4a7ab146100d45780632f52ebb7146100f05780633f4ba83a1461010557806347ccca021461010d5780635c975abb14610138578063715018a614610156575b600080fd5b6100dd60035481565b6040519081526020015b60405180910390f35b6101036100fe36600461086d565b6101dc565b005b610103610415565b600554610120906001600160a01b031681565b6040516001600160a01b0390911681526020016100e7565b600054600160a01b900460ff165b60405190151581526020016100e7565b610103610449565b6100dd60025481565b6101036101753660046108b9565b61047d565b6101036104ac565b6000546001600160a01b0316610120565b6101466101a13660046108ee565b60046020526000908152604090205460ff1681565b6101466101c4366004610909565b6104de565b6101036101d73660046108ee565b610571565b600054600160a01b900460ff161561022e5760405162461bcd60e51b815260206004820152601060248201526f14185d5cd8589b194e881c185d5cd95960821b60448201526064015b60405180910390fd5b6002600154036102805760405162461bcd60e51b815260206004820152601f60248201527f5265656e7472616e637947756172643a207265656e7472616e742063616c6c006044820152606401610225565b60026001553360009081526004602052604090205460ff16156102d75760405162461bcd60e51b815260206004820152600f60248201526e105b1c9958591e4818db185a5b5959608a1b6044820152606401610225565b6102e3338484846104de565b61031f5760405162461bcd60e51b815260206004820152600d60248201526c24b73b30b634b210383937b7b360991b6044820152606401610225565b60005b8381116103b7576005546001600160a01b031663449a52f833610346846001610979565b6040516001600160e01b031960e085901b1681526001600160a01b0390921660048301526024820152604401600060405180830381600087803b15801561038c57600080fd5b505af11580156103a0573d6000803e3d6000fd5b5050505080806103af90610991565b915050610322565b503360008181526004602052604090819020805460ff19166001179055517f47cee97cb7acd717b3c0aa1435d004cd5b3c8c57d70dbceb4e4458bbd60e39d4906104049086815260200190565b60405180910390a250506001805550565b6000546001600160a01b0316331461043f5760405162461bcd60e51b8152600401610225906109aa565b61044761060c565b565b6000546001600160a01b031633146104735760405162461bcd60e51b8152600401610225906109aa565b61044760006106a9565b6000546001600160a01b031633146104a75760405162461bcd60e51b8152600401610225906109aa565b600355565b6000546001600160a01b031633146104d65760405162461bcd60e51b8152600401610225906109aa565b6104476106f9565b600061056861052f86866040516bffffffffffffffffffffffff19606084901b1660208201526034810182905260009060540160405160208183030381529060405280519060200120905092915050565b84848080602002602001604051908101604052809392919081815260200183836020028082843760009201919091525061078192505050565b95945050505050565b6000546001600160a01b0316331461059b5760405162461bcd60e51b8152600401610225906109aa565b6001600160a01b0381166106005760405162461bcd60e51b815260206004820152602660248201527f4f776e61626c653a206e6577206f776e657220697320746865207a65726f206160448201526564647265737360d01b6064820152608401610225565b610609816106a9565b50565b600054600160a01b900460ff1661065c5760405162461bcd60e51b815260206004820152601460248201527314185d5cd8589b194e881b9bdd081c185d5cd95960621b6044820152606401610225565b6000805460ff60a01b191690557f5db9ee0a495bf2e6ff9c91a7834c1ba4fdd244a5e8aa4e537bd38aeae4b073aa335b6040516001600160a01b03909116815260200160405180910390a1565b600080546001600160a01b038381166001600160a01b0319831681178455604051919092169283917f8be0079c531659141344cd1fd0a4f28419497f9722a3daafe3b4186f6b6457e09190a35050565b600054600160a01b900460ff16156107465760405162461bcd60e51b815260206004820152601060248201526f14185d5cd8589b194e881c185d5cd95960821b6044820152606401610225565b6000805460ff60a01b1916600160a01b1790557f62e78cea01bee320cd4e420270b5ea74000d11b0c9f74754ebdbfc544b05a25861068c3390565b60006107908260035485610797565b9392505050565b6000826107a485846107ad565b14949350505050565b600081815b84518110156108195760008582815181106107cf576107cf6109df565b602002602001015190508083116107f55760008381526020829052604090209250610806565b600081815260208490526040902092505b508061081181610991565b9150506107b2565b509392505050565b60008083601f84011261083357600080fd5b50813567ffffffffffffffff81111561084b57600080fd5b6020830191508360208260051b850101111561086657600080fd5b9250929050565b60008060006040848603121561088257600080fd5b83359250602084013567ffffffffffffffff8111156108a057600080fd5b6108ac86828701610821565b9497909650939450505050565b6000602082840312156108cb57600080fd5b5035919050565b80356001600160a01b03811681146108e957600080fd5b919050565b60006020828403121561090057600080fd5b610790826108d2565b6000806000806060858703121561091f57600080fd5b610928856108d2565b935060208501359250604085013567ffffffffffffffff81111561094b57600080fd5b61095787828801610821565b95989497509550505050565b634e487b7160e01b600052601160045260246000fd5b6000821982111561098c5761098c610963565b500190565b6000600182016109a3576109a3610963565b5060010190565b6020808252818101527f4f776e61626c653a2063616c6c6572206973206e6f7420746865206f776e6572604082015260600190565b634e487b7160e01b600052603260045260246000fdfea264697066735822122097c205f902be4c5e93ef47d1c6c3b7af8302439ed34d5620d6f7b4c0927c482164736f6c634300080e0033",
  "devdoc": {
    "kind": "dev",
    "methods": {
      "owner()": {
        "details": "Returns the address of the current owner."
      },
      "paused()": {
        "details": "Returns true if the contract is paused, and false otherwise."
      },
      "renounceOwnership()": {
        "details": "Leaves the contract without owner. It will not be possible to call `onlyOwner` functions anymore. Can only be called by the current owner. NOTE: Renouncing ownership will leave the contract without an owner, thereby removing any functionality that is only available to the owner."
      },
      "transferOwnership(address)": {
        "details": "Transfers ownership of the contract to a new account (`newOwner`). Can only be called by the current owner."
      }
    },
    "version": 1
  },
  "userdoc": {
    "kind": "user",
    "methods": {},
    "version": 1
  },
  "storageLayout": {
    "storage": [
      {
        "astId": 400,
        "contract": "contracts/PlaybuxClaim.sol:PlaybuxClaim",
        "label": "_owner",
        "offset": 0,
        "slot": "0",
        "type": "t_address"
      },
      {
        "astId": 534,
        "contract": "contracts/PlaybuxClaim.sol:PlaybuxClaim",
        "label": "_paused",
        "offset": 20,
        "slot": "0",
        "type": "t_bool"
      },
      {
        "astId": 619,
        "contract": "contracts/PlaybuxClaim.sol:PlaybuxClaim",
        "label": "_status",
        "offset": 0,
        "slot": "1",
        "type": "t_uint256"
      },
      {
        "astId": 4507,
        "contract": "contracts/PlaybuxClaim.sol:PlaybuxClaim",
        "label": "currentSupply",
        "offset": 0,
        "slot": "2",
        "type": "t_uint256"
      },
      {
        "astId": 4509,
        "contract": "contracts/PlaybuxClaim.sol:PlaybuxClaim",
        "label": "merkleRoot",
        "offset": 0,
        "slot": "3",
        "type": "t_bytes32"
      },
      {
        "astId": 4513,
        "contract": "contracts/PlaybuxClaim.sol:PlaybuxClaim",
        "label": "claimed",
        "offset": 0,
        "slot": "4",
        "type": "t_mapping(t_address,t_bool)"
      },
      {
        "astId": 4516,
        "contract": "contracts/PlaybuxClaim.sol:PlaybuxClaim",
        "label": "nft",
        "offset": 0,
        "slot": "5",
        "type": "t_contract(IPlaybuxQuestNFT)5466"
      }
    ],
    "types": {
      "t_address": {
        "encoding": "inplace",
        "label": "address",
        "numberOfBytes": "20"
      },
      "t_bool": {
        "encoding": "inplace",
        "label": "bool",
        "numberOfBytes": "1"
      },
      "t_bytes32": {
        "encoding": "inplace",
        "label": "bytes32",
        "numberOfBytes": "32"
      },
      "t_contract(IPlaybuxQuestNFT)5466": {
        "encoding": "inplace",
        "label": "contract IPlaybuxQuestNFT",
        "numberOfBytes": "20"
      },
      "t_mapping(t_address,t_bool)": {
        "encoding": "mapping",
        "key": "t_address",
        "label": "mapping(address => bool)",
        "numberOfBytes": "32",
        "value": "t_bool"
      },
      "t_uint256": {
        "encoding": "inplace",
        "label": "uint256",
        "numberOfBytes": "32"
      }
    }
  }
}