{
  "address": "0x3A4bfdf0BA27142Af1A5f228AFb1B5cBaaBFeDBc",
  "abi": [
    {
      "inputs": [
        {
          "internalType": "address",
          "name": "_1inch",
          "type": "address"
        }
      ],
      "stateMutability": "nonpayable",
      "type": "constructor"
    },
    {
      "anonymous": false,
      "inputs": [
        {
          "indexed": true,
          "internalType": "address",
          "name": "previousOwner",
          "type": "address"
        },
        {
          "indexed": true,
          "internalType": "address",
          "name": "newOwner",
          "type": "address"
        }
      ],
      "name": "OwnershipTransferred",
      "type": "event"
    },
    {
      "anonymous": false,
      "inputs": [
        {
          "indexed": false,
          "internalType": "address",
          "name": "account",
          "type": "address"
        }
      ],
      "name": "Paused",
      "type": "event"
    },
    {
      "anonymous": false,
      "inputs": [
        {
          "indexed": false,
          "internalType": "address",
          "name": "account",
          "type": "address"
        }
      ],
      "name": "Unpaused",
      "type": "event"
    },
    {
      "inputs": [
        {
          "internalType": "uint256",
          "name": "_fee",
          "type": "uint256"
        }
      ],
      "name": "adjustFee",
      "outputs": [],
      "stateMutability": "nonpayable",
      "type": "function"
    },
    {
      "inputs": [
        {
          "internalType": "contract IERC20",
          "name": "_token",
          "type": "address"
        },
        {
          "internalType": "uint256",
          "name": "_amount",
          "type": "uint256"
        }
      ],
      "name": "approveToken",
      "outputs": [],
      "stateMutability": "nonpayable",
      "type": "function"
    },
    {
      "inputs": [
        {
          "internalType": "contract IERC20",
          "name": "",
          "type": "address"
        }
      ],
      "name": "knownToken",
      "outputs": [
        {
          "internalType": "bool",
          "name": "",
          "type": "bool"
        }
      ],
      "stateMutability": "view",
      "type": "function"
    },
    {
      "inputs": [],
      "name": "owner",
      "outputs": [
        {
          "internalType": "address",
          "name": "",
          "type": "address"
        }
      ],
      "stateMutability": "view",
      "type": "function"
    },
    {
      "inputs": [],
      "name": "paused",
      "outputs": [
        {
          "internalType": "bool",
          "name": "",
          "type": "bool"
        }
      ],
      "stateMutability": "view",
      "type": "function"
    },
    {
      "inputs": [],
      "name": "renounceOwnership",
      "outputs": [],
      "stateMutability": "nonpayable",
      "type": "function"
    },
    {
      "inputs": [],
      "name": "router",
      "outputs": [
        {
          "internalType": "contract ISwapRouter",
          "name": "",
          "type": "address"
        }
      ],
      "stateMutability": "view",
      "type": "function"
    },
    {
      "inputs": [
        {
          "internalType": "contract IAggregationExecutor",
          "name": "caller",
          "type": "address"
        },
        {
          "components": [
            {
              "internalType": "contract IERC20",
              "name": "srcToken",
              "type": "address"
            },
            {
              "internalType": "contract IERC20",
              "name": "dstToken",
              "type": "address"
            },
            {
              "internalType": "address payable",
              "name": "srcReceiver",
              "type": "address"
            },
            {
              "internalType": "address payable",
              "name": "dstReceiver",
              "type": "address"
            },
            {
              "internalType": "uint256",
              "name": "amount",
              "type": "uint256"
            },
            {
              "internalType": "uint256",
              "name": "minReturnAmount",
              "type": "uint256"
            },
            {
              "internalType": "uint256",
              "name": "flags",
              "type": "uint256"
            },
            {
              "internalType": "bytes",
              "name": "permit",
              "type": "bytes"
            }
          ],
          "internalType": "struct IAggregationRouterV4.SwapDescription",
          "name": "desc",
          "type": "tuple"
        },
        {
          "internalType": "bytes",
          "name": "data",
          "type": "bytes"
        }
      ],
      "name": "swap",
      "outputs": [],
      "stateMutability": "nonpayable",
      "type": "function"
    },
    {
      "inputs": [
        {
          "internalType": "address",
          "name": "newOwner",
          "type": "address"
        }
      ],
      "name": "transferOwnership",
      "outputs": [],
      "stateMutability": "nonpayable",
      "type": "function"
    },
    {
      "inputs": [
        {
          "internalType": "address",
          "name": "_token",
          "type": "address"
        },
        {
          "internalType": "uint256",
          "name": "_amount",
          "type": "uint256"
        }
      ],
      "name": "withdrawFee",
      "outputs": [],
      "stateMutability": "nonpayable",
      "type": "function"
    }
  ],
  "transactionHash": "0xc82dedcc2236d53c0a93a1282ac02b1dc3afd86c1f952f7cfc33ab5ef613e38c",
  "args": [
    "0xCDe540d7eAFE93aC5fE6233Bee57E1270D3E330F"
  ],
  "numDeployments": 2,
  "solcInputHash": "2e22374dd6828cce72137d7baa1c2d26",
  "bytecode": "0x60806040526611c37937e0800060035534801561001b57600080fd5b506040516111e73803806111e783398101604081905261003a916100cc565b60016000556100483361007a565b6001805460ff60a01b19169055600280546001600160a01b0319166001600160a01b03929092169190911790556100fc565b600180546001600160a01b038381166001600160a01b0319831681179093556040519116919082907f8be0079c531659141344cd1fd0a4f28419497f9722a3daafe3b4186f6b6457e090600090a35050565b6000602082840312156100de57600080fd5b81516001600160a01b03811681146100f557600080fd5b9392505050565b6110dc8061010b6000396000f3fe608060405234801561001057600080fd5b506004361061009e5760003560e01c8063ade535b711610066578063ade535b71461011b578063c079c3181461013e578063f2fde38b14610151578063f887ea4014610164578063fd9be5221461017757600080fd5b8063022fc88b146100a35780635c975abb146100b8578063715018a6146100db5780637c025200146100e35780638da5cb5b146100f6575b600080fd5b6100b66100b1366004610be7565b61018a565b005b600154600160a01b900460ff165b60405190151581526020015b60405180910390f35b6100b661028b565b6100b66100f1366004610c13565b6102c1565b6001546001600160a01b03165b6040516001600160a01b0390911681526020016100d2565b6100c6610129366004610cc0565b60046020526000908152604090205460ff1681565b6100b661014c366004610cdd565b610718565b6100b661015f366004610cc0565b6107b2565b600254610103906001600160a01b031681565b6100b6610185366004610be7565b61084d565b6001546001600160a01b031633146101bd5760405162461bcd60e51b81526004016101b490610cf6565b60405180910390fd5b806000036101ea576001600160a01b0382166000908152600460205260409020805460ff1916905561020e565b6001600160a01b0382166000908152600460205260409020805460ff191660011790555b60025460405163095ea7b360e01b81526001600160a01b039182166004820152602481018390529083169063095ea7b3906044015b6020604051808303816000875af1158015610262573d6000803e3d6000fd5b505050506040513d601f19601f820116820180604052508101906102869190610d2b565b505050565b6001546001600160a01b031633146102b55760405162461bcd60e51b81526004016101b490610cf6565b6102bf60006108cb565b565b6002600054036103135760405162461bcd60e51b815260206004820152601f60248201527f5265656e7472616e637947756172643a207265656e7472616e742063616c6c0060448201526064016101b4565b6002600055600154600160a01b900460ff16156103655760405162461bcd60e51b815260206004820152601060248201526f14185d5cd8589b194e881c185d5cd95960821b60448201526064016101b4565b600460006103766020860186610cc0565b6001600160a01b0316815260208101919091526040016000205460ff166103cf5760405162461bcd60e51b815260206004820152600d60248201526c2ab735b737bbb7103a37b5b2b760991b60448201526064016101b4565b60008360800135116104235760405162461bcd60e51b815260206004820152601d60248201527f416d6f756e74206d7573742062652067726561746572207468616e203000000060448201526064016101b4565b61044b3330608086013561043a6020880188610cc0565b6001600160a01b031692919061091d565b600061045a6020850185610cc0565b9050600061046e6040860160208701610cc0565b604080516002808252606082018352929350600092909160208301908036833701905050905082816000815181106104a8576104a8610d63565b60200260200101906001600160a01b031690816001600160a01b03168152505081816001815181106104dc576104dc610d63565b6001600160a01b0392831660209182029290920101526002546040516338ed173960e01b815260009291909116906338ed1739906105329060808b01359060a08c013590879030906368a75c0490600401610d79565b6000604051808303816000875af1158015610551573d6000803e3d6000fd5b505050506040513d6000823e601f3d908101601f191682016040526105799190810190610dea565b90506000846001600160a01b031663313ce5676040518163ffffffff1660e01b8152600401602060405180830381865afa1580156105bb573d6000803e3d6000fd5b505050506040513d601f19601f820116820180604052508101906105df9190610ea8565b60ff16905060006105f1826012610ee1565b6105fc90600a610fde565b6003546106099190610fea565b9050600061061883600a610fde565b828560018151811061062c5761062c610d63565b602002602001015161063e919061100c565b6106489190610fea565b90506000818560018151811061066057610660610d63565b60200260200101516106729190610ee1565b90506001600160a01b03871663a9059cbb61069360608e0160408f01610cc0565b6040516001600160e01b031960e084901b1681526001600160a01b039091166004820152602481018490526044016020604051808303816000875af11580156106e0573d6000803e3d6000fd5b505050506040513d601f19601f820116820180604052508101906107049190610d2b565b505060016000555050505050505050505050565b6001546001600160a01b031633146107425760405162461bcd60e51b81526004016101b490610cf6565b66b1a2bc2ec500008111156107ad5760405162461bcd60e51b815260206004820152602b60248201527f466565206d757374206265206c657373207468616e206f7220657175616c207460448201526a1bc80d481c195c98d95b9d60aa1b60648201526084016101b4565b600355565b6001546001600160a01b031633146107dc5760405162461bcd60e51b81526004016101b490610cf6565b6001600160a01b0381166108415760405162461bcd60e51b815260206004820152602660248201527f4f776e61626c653a206e6577206f776e657220697320746865207a65726f206160448201526564647265737360d01b60648201526084016101b4565b61084a816108cb565b50565b6001546001600160a01b031633146108775760405162461bcd60e51b81526004016101b490610cf6565b816001600160a01b031663a9059cbb6108986001546001600160a01b031690565b6040516001600160e01b031960e084901b1681526001600160a01b03909116600482015260248101849052604401610243565b600180546001600160a01b038381166001600160a01b0319831681179093556040519116919082907f8be0079c531659141344cd1fd0a4f28419497f9722a3daafe3b4186f6b6457e090600090a35050565b604080516001600160a01b0385811660248301528416604482015260648082018490528251808303909101815260849091019091526020810180516001600160e01b03166323b872dd60e01b17905261097790859061097d565b50505050565b60006109d2826040518060400160405280602081526020017f5361666545524332303a206c6f772d6c6576656c2063616c6c206661696c6564815250856001600160a01b0316610a4f9092919063ffffffff16565b80519091501561028657808060200190518101906109f09190610d2b565b6102865760405162461bcd60e51b815260206004820152602a60248201527f5361666545524332303a204552433230206f7065726174696f6e20646964206e6044820152691bdd081cdd58d8d9595960b21b60648201526084016101b4565b6060610a5e8484600085610a68565b90505b9392505050565b606082471015610ac95760405162461bcd60e51b815260206004820152602660248201527f416464726573733a20696e73756666696369656e742062616c616e636520666f6044820152651c8818d85b1b60d21b60648201526084016101b4565b6001600160a01b0385163b610b205760405162461bcd60e51b815260206004820152601d60248201527f416464726573733a2063616c6c20746f206e6f6e2d636f6e747261637400000060448201526064016101b4565b600080866001600160a01b03168587604051610b3c9190611057565b60006040518083038185875af1925050503d8060008114610b79576040519150601f19603f3d011682016040523d82523d6000602084013e610b7e565b606091505b5091509150610b8e828286610b99565b979650505050505050565b60608315610ba8575081610a61565b825115610bb85782518084602001fd5b8160405162461bcd60e51b81526004016101b49190611073565b6001600160a01b038116811461084a57600080fd5b60008060408385031215610bfa57600080fd5b8235610c0581610bd2565b946020939093013593505050565b60008060008060608587031215610c2957600080fd5b8435610c3481610bd2565b9350602085013567ffffffffffffffff80821115610c5157600080fd5b908601906101008289031215610c6657600080fd5b90935060408601359080821115610c7c57600080fd5b818701915087601f830112610c9057600080fd5b813581811115610c9f57600080fd5b886020828501011115610cb157600080fd5b95989497505060200194505050565b600060208284031215610cd257600080fd5b8135610a6181610bd2565b600060208284031215610cef57600080fd5b5035919050565b6020808252818101527f4f776e61626c653a2063616c6c6572206973206e6f7420746865206f776e6572604082015260600190565b600060208284031215610d3d57600080fd5b81518015158114610a6157600080fd5b634e487b7160e01b600052604160045260246000fd5b634e487b7160e01b600052603260045260246000fd5b600060a082018783526020878185015260a0604085015281875180845260c086019150828901935060005b81811015610dc95784516001600160a01b031683529383019391830191600101610da4565b50506001600160a01b03969096166060850152505050608001529392505050565b60006020808385031215610dfd57600080fd5b825167ffffffffffffffff80821115610e1557600080fd5b818501915085601f830112610e2957600080fd5b815181811115610e3b57610e3b610d4d565b8060051b604051601f19603f83011681018181108582111715610e6057610e60610d4d565b604052918252848201925083810185019188831115610e7e57600080fd5b938501935b82851015610e9c57845184529385019392850192610e83565b98975050505050505050565b600060208284031215610eba57600080fd5b815160ff81168114610a6157600080fd5b634e487b7160e01b600052601160045260246000fd5b600082821015610ef357610ef3610ecb565b500390565b600181815b80851115610f33578160001904821115610f1957610f19610ecb565b80851615610f2657918102915b93841c9390800290610efd565b509250929050565b600082610f4a57506001610fd8565b81610f5757506000610fd8565b8160018114610f6d5760028114610f7757610f93565b6001915050610fd8565b60ff841115610f8857610f88610ecb565b50506001821b610fd8565b5060208310610133831016604e8410600b8410161715610fb6575081810a610fd8565b610fc08383610ef8565b8060001904821115610fd457610fd4610ecb565b0290505b92915050565b6000610a618383610f3b565b60008261100757634e487b7160e01b600052601260045260246000fd5b500490565b600081600019048311821515161561102657611026610ecb565b500290565b60005b8381101561104657818101518382015260200161102e565b838111156109775750506000910152565b6000825161106981846020870161102b565b9190910192915050565b602081526000825180602084015261109281604085016020870161102b565b601f01601f1916919091016040019291505056fea26469706673582212208e41cc2cef34f2a03712f06b81a5dff8a69d141664a54f3dbbd6be0f461f382864736f6c634300080e0033",
  "devdoc": {
    "kind": "dev",
    "methods": {
      "owner()": {
        "details": "Returns the address of the current owner."
      },
      "paused()": {
        "details": "Returns true if the contract is paused, and false otherwise."
      },
      "renounceOwnership()": {
        "details": "Leaves the contract without owner. It will not be possible to call `onlyOwner` functions anymore. Can only be called by the current owner. NOTE: Renouncing ownership will leave the contract without an owner, thereby removing any functionality that is only available to the owner."
      },
      "transferOwnership(address)": {
        "details": "Transfers ownership of the contract to a new account (`newOwner`). Can only be called by the current owner."
      }
    },
    "version": 1
  },
  "userdoc": {
    "kind": "user",
    "methods": {},
    "version": 1
  },
  "storageLayout": {
    "storage": [
      {
        "astId": 207,
        "contract": "contracts/Aggregator.sol:Aggregator",
        "label": "_status",
        "offset": 0,
        "slot": "0",
        "type": "t_uint256"
      },
      {
        "astId": 7,
        "contract": "contracts/Aggregator.sol:Aggregator",
        "label": "_owner",
        "offset": 0,
        "slot": "1",
        "type": "t_address"
      },
      {
        "astId": 122,
        "contract": "contracts/Aggregator.sol:Aggregator",
        "label": "_paused",
        "offset": 20,
        "slot": "1",
        "type": "t_bool"
      },
      {
        "astId": 1488,
        "contract": "contracts/Aggregator.sol:Aggregator",
        "label": "router",
        "offset": 0,
        "slot": "2",
        "type": "t_contract(ISwapRouter)2879"
      },
      {
        "astId": 1494,
        "contract": "contracts/Aggregator.sol:Aggregator",
        "label": "fee",
        "offset": 0,
        "slot": "3",
        "type": "t_uint256"
      },
      {
        "astId": 1499,
        "contract": "contracts/Aggregator.sol:Aggregator",
        "label": "knownToken",
        "offset": 0,
        "slot": "4",
        "type": "t_mapping(t_contract(IERC20)900,t_bool)"
      }
    ],
    "types": {
      "t_address": {
        "encoding": "inplace",
        "label": "address",
        "numberOfBytes": "20"
      },
      "t_bool": {
        "encoding": "inplace",
        "label": "bool",
        "numberOfBytes": "1"
      },
      "t_contract(IERC20)900": {
        "encoding": "inplace",
        "label": "contract IERC20",
        "numberOfBytes": "20"
      },
      "t_contract(ISwapRouter)2879": {
        "encoding": "inplace",
        "label": "contract ISwapRouter",
        "numberOfBytes": "20"
      },
      "t_mapping(t_contract(IERC20)900,t_bool)": {
        "encoding": "mapping",
        "key": "t_contract(IERC20)900",
        "label": "mapping(contract IERC20 => bool)",
        "numberOfBytes": "32",
        "value": "t_bool"
      },
      "t_uint256": {
        "encoding": "inplace",
        "label": "uint256",
        "numberOfBytes": "32"
      }
    }
  }
}