{
  "address": "0x95452EFD0904C0C2E1ae3401359bE8F909286077",
  "abi": [
    {
      "inputs": [
        {
          "internalType": "contract IERC20",
          "name": "_busd",
          "type": "address"
        },
        {
          "internalType": "address",
          "name": "_admin",
          "type": "address"
        }
      ],
      "stateMutability": "nonpayable",
      "type": "constructor"
    },
    {
      "anonymous": false,
      "inputs": [
        {
          "indexed": false,
          "internalType": "address",
          "name": "oldAdmin",
          "type": "address"
        },
        {
          "indexed": false,
          "internalType": "address",
          "name": "newAdmin",
          "type": "address"
        }
      ],
      "name": "AdminChanged",
      "type": "event"
    },
    {
      "anonymous": false,
      "inputs": [
        {
          "indexed": true,
          "internalType": "address",
          "name": "_from",
          "type": "address"
        },
        {
          "indexed": false,
          "internalType": "uint256",
          "name": "_value",
          "type": "uint256"
        }
      ],
      "name": "EmergencyWithdraw",
      "type": "event"
    },
    {
      "anonymous": false,
      "inputs": [
        {
          "indexed": false,
          "internalType": "address",
          "name": "userAddress",
          "type": "address"
        },
        {
          "indexed": false,
          "internalType": "address payable",
          "name": "relayerAddress",
          "type": "address"
        },
        {
          "indexed": false,
          "internalType": "bytes",
          "name": "functionSignature",
          "type": "bytes"
        }
      ],
      "name": "MetaTransactionExecuted",
      "type": "event"
    },
    {
      "anonymous": false,
      "inputs": [
        {
          "indexed": false,
          "internalType": "address",
          "name": "account",
          "type": "address"
        }
      ],
      "name": "Paused",
      "type": "event"
    },
    {
      "anonymous": false,
      "inputs": [
        {
          "indexed": true,
          "internalType": "bytes32",
          "name": "role",
          "type": "bytes32"
        },
        {
          "indexed": true,
          "internalType": "bytes32",
          "name": "previousAdminRole",
          "type": "bytes32"
        },
        {
          "indexed": true,
          "internalType": "bytes32",
          "name": "newAdminRole",
          "type": "bytes32"
        }
      ],
      "name": "RoleAdminChanged",
      "type": "event"
    },
    {
      "anonymous": false,
      "inputs": [
        {
          "indexed": true,
          "internalType": "bytes32",
          "name": "role",
          "type": "bytes32"
        },
        {
          "indexed": true,
          "internalType": "address",
          "name": "account",
          "type": "address"
        },
        {
          "indexed": true,
          "internalType": "address",
          "name": "sender",
          "type": "address"
        }
      ],
      "name": "RoleGranted",
      "type": "event"
    },
    {
      "anonymous": false,
      "inputs": [
        {
          "indexed": true,
          "internalType": "bytes32",
          "name": "role",
          "type": "bytes32"
        },
        {
          "indexed": true,
          "internalType": "address",
          "name": "account",
          "type": "address"
        },
        {
          "indexed": true,
          "internalType": "address",
          "name": "sender",
          "type": "address"
        }
      ],
      "name": "RoleRevoked",
      "type": "event"
    },
    {
      "anonymous": false,
      "inputs": [
        {
          "indexed": false,
          "internalType": "address",
          "name": "account",
          "type": "address"
        }
      ],
      "name": "Unpaused",
      "type": "event"
    },
    {
      "anonymous": false,
      "inputs": [
        {
          "indexed": false,
          "internalType": "string",
          "name": "_transactionId",
          "type": "string"
        },
        {
          "indexed": true,
          "internalType": "address",
          "name": "_receiver",
          "type": "address"
        },
        {
          "indexed": false,
          "internalType": "uint256",
          "name": "_value",
          "type": "uint256"
        }
      ],
      "name": "Withdraw",
      "type": "event"
    },
    {
      "anonymous": false,
      "inputs": [
        {
          "indexed": false,
          "internalType": "uint256",
          "name": "oldLimit",
          "type": "uint256"
        },
        {
          "indexed": false,
          "internalType": "uint256",
          "name": "newLimit",
          "type": "uint256"
        }
      ],
      "name": "WithdrawalLimitPerDayChanged",
      "type": "event"
    },
    {
      "stateMutability": "nonpayable",
      "type": "fallback"
    },
    {
      "inputs": [],
      "name": "BLOCK_PER_DAY",
      "outputs": [
        {
          "internalType": "uint256",
          "name": "",
          "type": "uint256"
        }
      ],
      "stateMutability": "view",
      "type": "function"
    },
    {
      "inputs": [],
      "name": "DEFAULT_ADMIN_ROLE",
      "outputs": [
        {
          "internalType": "bytes32",
          "name": "",
          "type": "bytes32"
        }
      ],
      "stateMutability": "view",
      "type": "function"
    },
    {
      "inputs": [],
      "name": "ERC712_VERSION",
      "outputs": [
        {
          "internalType": "string",
          "name": "",
          "type": "string"
        }
      ],
      "stateMutability": "view",
      "type": "function"
    },
    {
      "inputs": [],
      "name": "admin",
      "outputs": [
        {
          "internalType": "address",
          "name": "",
          "type": "address"
        }
      ],
      "stateMutability": "view",
      "type": "function"
    },
    {
      "inputs": [],
      "name": "busd",
      "outputs": [
        {
          "internalType": "contract IERC20",
          "name": "",
          "type": "address"
        }
      ],
      "stateMutability": "view",
      "type": "function"
    },
    {
      "inputs": [
        {
          "internalType": "contract IERC20",
          "name": "_token",
          "type": "address"
        }
      ],
      "name": "emergencyWithdraw",
      "outputs": [],
      "stateMutability": "nonpayable",
      "type": "function"
    },
    {
      "inputs": [
        {
          "internalType": "address",
          "name": "userAddress",
          "type": "address"
        },
        {
          "internalType": "bytes",
          "name": "functionSignature",
          "type": "bytes"
        },
        {
          "internalType": "bytes32",
          "name": "sigR",
          "type": "bytes32"
        },
        {
          "internalType": "bytes32",
          "name": "sigS",
          "type": "bytes32"
        },
        {
          "internalType": "uint8",
          "name": "sigV",
          "type": "uint8"
        }
      ],
      "name": "executeMetaTransaction",
      "outputs": [
        {
          "internalType": "bytes",
          "name": "",
          "type": "bytes"
        }
      ],
      "stateMutability": "payable",
      "type": "function"
    },
    {
      "inputs": [],
      "name": "getChainId",
      "outputs": [
        {
          "internalType": "uint256",
          "name": "",
          "type": "uint256"
        }
      ],
      "stateMutability": "view",
      "type": "function"
    },
    {
      "inputs": [],
      "name": "getDomainSeperator",
      "outputs": [
        {
          "internalType": "bytes32",
          "name": "",
          "type": "bytes32"
        }
      ],
      "stateMutability": "view",
      "type": "function"
    },
    {
      "inputs": [
        {
          "internalType": "address",
          "name": "user",
          "type": "address"
        }
      ],
      "name": "getNonce",
      "outputs": [
        {
          "internalType": "uint256",
          "name": "nonce",
          "type": "uint256"
        }
      ],
      "stateMutability": "view",
      "type": "function"
    },
    {
      "inputs": [
        {
          "internalType": "bytes32",
          "name": "role",
          "type": "bytes32"
        }
      ],
      "name": "getRoleAdmin",
      "outputs": [
        {
          "internalType": "bytes32",
          "name": "",
          "type": "bytes32"
        }
      ],
      "stateMutability": "view",
      "type": "function"
    },
    {
      "inputs": [
        {
          "internalType": "bytes32",
          "name": "role",
          "type": "bytes32"
        },
        {
          "internalType": "address",
          "name": "account",
          "type": "address"
        }
      ],
      "name": "grantRole",
      "outputs": [],
      "stateMutability": "nonpayable",
      "type": "function"
    },
    {
      "inputs": [
        {
          "internalType": "bytes32",
          "name": "role",
          "type": "bytes32"
        },
        {
          "internalType": "address",
          "name": "account",
          "type": "address"
        }
      ],
      "name": "hasRole",
      "outputs": [
        {
          "internalType": "bool",
          "name": "",
          "type": "bool"
        }
      ],
      "stateMutability": "view",
      "type": "function"
    },
    {
      "inputs": [
        {
          "internalType": "address",
          "name": "",
          "type": "address"
        }
      ],
      "name": "lastWithdraw",
      "outputs": [
        {
          "internalType": "uint256",
          "name": "",
          "type": "uint256"
        }
      ],
      "stateMutability": "view",
      "type": "function"
    },
    {
      "inputs": [],
      "name": "name",
      "outputs": [
        {
          "internalType": "string",
          "name": "",
          "type": "string"
        }
      ],
      "stateMutability": "view",
      "type": "function"
    },
    {
      "inputs": [],
      "name": "pause",
      "outputs": [],
      "stateMutability": "nonpayable",
      "type": "function"
    },
    {
      "inputs": [],
      "name": "paused",
      "outputs": [
        {
          "internalType": "bool",
          "name": "",
          "type": "bool"
        }
      ],
      "stateMutability": "view",
      "type": "function"
    },
    {
      "inputs": [
        {
          "internalType": "bytes32",
          "name": "role",
          "type": "bytes32"
        },
        {
          "internalType": "address",
          "name": "account",
          "type": "address"
        }
      ],
      "name": "renounceRole",
      "outputs": [],
      "stateMutability": "nonpayable",
      "type": "function"
    },
    {
      "inputs": [
        {
          "internalType": "bytes32",
          "name": "role",
          "type": "bytes32"
        },
        {
          "internalType": "address",
          "name": "account",
          "type": "address"
        }
      ],
      "name": "revokeRole",
      "outputs": [],
      "stateMutability": "nonpayable",
      "type": "function"
    },
    {
      "inputs": [
        {
          "internalType": "address",
          "name": "_admin",
          "type": "address"
        }
      ],
      "name": "setAdmin",
      "outputs": [],
      "stateMutability": "nonpayable",
      "type": "function"
    },
    {
      "inputs": [
        {
          "internalType": "uint256",
          "name": "_limit",
          "type": "uint256"
        }
      ],
      "name": "setWithdrawalLimitPerDay",
      "outputs": [],
      "stateMutability": "nonpayable",
      "type": "function"
    },
    {
      "inputs": [
        {
          "internalType": "bytes4",
          "name": "interfaceId",
          "type": "bytes4"
        }
      ],
      "name": "supportsInterface",
      "outputs": [
        {
          "internalType": "bool",
          "name": "",
          "type": "bool"
        }
      ],
      "stateMutability": "view",
      "type": "function"
    },
    {
      "inputs": [],
      "name": "unpause",
      "outputs": [],
      "stateMutability": "nonpayable",
      "type": "function"
    },
    {
      "inputs": [
        {
          "internalType": "string",
          "name": "_transactionId",
          "type": "string"
        },
        {
          "internalType": "uint256",
          "name": "_expirationBlock",
          "type": "uint256"
        },
        {
          "internalType": "address",
          "name": "_receiver",
          "type": "address"
        },
        {
          "internalType": "uint256",
          "name": "_amount",
          "type": "uint256"
        }
      ],
      "name": "withdraw",
      "outputs": [],
      "stateMutability": "nonpayable",
      "type": "function"
    },
    {
      "inputs": [
        {
          "internalType": "address",
          "name": "",
          "type": "address"
        }
      ],
      "name": "withdrawAmount",
      "outputs": [
        {
          "internalType": "uint256",
          "name": "",
          "type": "uint256"
        }
      ],
      "stateMutability": "view",
      "type": "function"
    },
    {
      "inputs": [],
      "name": "withdrawalLimitPerDay",
      "outputs": [
        {
          "internalType": "uint256",
          "name": "",
          "type": "uint256"
        }
      ],
      "stateMutability": "view",
      "type": "function"
    }
  ],
  "transactionHash": "0xed85ecab6d49abe69d5f4af7f5d1a7967a3b531ee32b34acfcf63d6c44aeeca3",
  "args": [
    "0x1d5932ADE681eDd8CB9e99df7CE941a862a754Cc",
    "0xE1C8a1A74a0C1289BD48B55FAA5f683f789Ca7CE"
  ],
  "numDeployments": 9,
  "solcInputHash": "35e2fa906b195a309916037304004422",
  "bytecode": "0x60a06040526003805460ff1916905569010f0cf064dd592000006007553480156200002957600080fd5b5060405162001e2b38038062001e2b8339810160408190526200004c91620003be565b6001805460ff191681556002556001600160a01b03828116608052600680546001600160a01b0319169183169190911790556200009460006200008e620000e5565b62000101565b60408051808201909152601481527f506c6179627578204255534420466163746f72790000000000000000000000006020820152620000d390620001a4565b620000dd62000209565b5050620003fd565b6000620000fc620002a560201b62000e751760201c565b905090565b6000828152602081815260408083206001600160a01b038516845290915290205460ff16620001a0576000828152602081815260408083206001600160a01b03851684529091529020805460ff191660011790556200015f620000e5565b6001600160a01b0316816001600160a01b0316837f2f8788117e7eff1d82e926ec794901d17c78024a50270940304540a733656f0d60405160405180910390a45b5050565b60035460ff1615620001ee5760405162461bcd60e51b815260206004820152600e60248201526d185b1c9958591e481a5b9a5d195960921b60448201526064015b60405180910390fd5b620001f98162000303565b506003805460ff19166001179055565b60015460ff1615620002515760405162461bcd60e51b815260206004820152601060248201526f14185d5cd8589b194e881c185d5cd95960821b6044820152606401620001e5565b6001805460ff1916811790557f62e78cea01bee320cd4e420270b5ea74000d11b0c9f74754ebdbfc544b05a25862000288620000e5565b6040516001600160a01b03909116815260200160405180910390a1565b6000303303620002fd57600080368080601f0160208091040260200160405190810160405280939291908181526020018383808284376000920191909152505050503601516001600160a01b03169150620003009050565b50335b90565b6040518060800160405280604f815260200162001ddc604f9139805160209182012082519282019290922060408051808201825260018152603160f81b90840152805180840194909452838101919091527fc89efdaa54c0f20c7adf612882df0950f5a951637e0307cdcb4c672f298b8bc660608401523060808401524660a0808501919091528151808503909101815260c090930190528151910120600455565b6001600160a01b0381168114620003bb57600080fd5b50565b60008060408385031215620003d257600080fd5b8251620003df81620003a5565b6020840151909250620003f281620003a5565b809150509250929050565b6080516119bc620004206000396000818161037b0152610a2b01526119bc6000f3fe6080604052600436106101815760003560e01c80633f4ba83a116100d15780638456cb591161008a578063a217fddf11610064578063a217fddf146104c7578063d547741f146104dc578063d970e674146104fc578063f851a4401461051257610181565b80638456cb591461047c5780638f5eaf261461049157806391d14854146104a757610181565b80633f4ba83a146103b55780634f420151146103ca5780635c975abb146103f7578063624d7b721461040f5780636ff1c9bc1461043c578063704b6c021461045c57610181565b8063248a9ca31161013e578063310ad7b611610118578063310ad7b6146103165780633408e4701461033657806336568abe146103495780633ca5b2341461036957610181565b8063248a9ca3146102905780632d0335ab146102c05780632f2ff15d146102f657610181565b806301ffc9a71461018f57806306fdde03146101c45780630c53c51c146102115780630f7e59701461022457806320379ee514610251578063236a55b314610270575b34801561018d57600080fd5b005b34801561019b57600080fd5b506101af6101aa3660046114b1565b610532565b60405190151581526020015b60405180910390f35b3480156101d057600080fd5b5061020460405180604001604052806014815260200173506c6179627578204255534420466163746f727960601b81525081565b6040516101bb9190611537565b61020461021f3660046115eb565b610569565b34801561023057600080fd5b50610204604051806040016040528060018152602001603160f81b81525081565b34801561025d57600080fd5b506004545b6040519081526020016101bb565b34801561027c57600080fd5b5061018d61028b36600461167d565b610748565b34801561029c57600080fd5b506102626102ab3660046116f2565b60009081526020819052604090206001015490565b3480156102cc57600080fd5b506102626102db36600461170b565b6001600160a01b031660009081526005602052604090205490565b34801561030257600080fd5b5061018d610311366004611728565b610ae9565b34801561032257600080fd5b5061018d6103313660046116f2565b610b13565b34801561034257600080fd5b5046610262565b34801561035557600080fd5b5061018d610364366004611728565b610b65565b34801561037557600080fd5b5061039d7f000000000000000000000000000000000000000000000000000000000000000081565b6040516001600160a01b0390911681526020016101bb565b3480156103c157600080fd5b5061018d610bf3565b3480156103d657600080fd5b506102626103e536600461170b565b60086020526000908152604090205481565b34801561040357600080fd5b5060015460ff166101af565b34801561041b57600080fd5b5061026261042a36600461170b565b60096020526000908152604090205481565b34801561044857600080fd5b5061018d61045736600461170b565b610c09565b34801561046857600080fd5b5061018d61047736600461170b565b610daf565b34801561048857600080fd5b5061018d610e14565b34801561049d57600080fd5b5061026260075481565b3480156104b357600080fd5b506101af6104c2366004611728565b610e27565b3480156104d357600080fd5b50610262600081565b3480156104e857600080fd5b5061018d6104f7366004611728565b610e50565b34801561050857600080fd5b50610262616d6081565b34801561051e57600080fd5b5060065461039d906001600160a01b031681565b60006001600160e01b03198216637965db0b60e01b148061056357506301ffc9a760e01b6001600160e01b03198316145b92915050565b604080516060818101835233600090815260056020908152908490205483526001600160a01b038916908301529181018690526105a98782878787610ed1565b6106045760405162461bcd60e51b815260206004820152602160248201527f5369676e657220616e64207369676e617475726520646f206e6f74206d6174636044820152600d60fb1b60648201526084015b60405180910390fd5b3360009081526005602052604090205461061f90600161176e565b33600081815260056020526040908190209290925590517f5845892132946850460bff5a0083f71031bc5bf9aadcd40f1de79423eac9b10b91610666918a91908a90611786565b60405180910390a1600080306001600160a01b0316888a60405160200161068e9291906117bb565b60408051601f19818403018152908290526106a8916117f2565b6000604051808303816000865af19150503d80600081146106e5576040519150601f19603f3d011682016040523d82523d6000602084013e6106ea565b606091505b50915091508161073c5760405162461bcd60e51b815260206004820152601c60248201527f46756e6374696f6e2063616c6c206e6f74207375636365737366756c0000000060448201526064016105fb565b98975050505050505050565b60028054036107995760405162461bcd60e51b815260206004820152601f60248201527f5265656e7472616e637947756172643a207265656e7472616e742063616c6c0060448201526064016105fb565b6002805560015460ff16156107e35760405162461bcd60e51b815260206004820152601060248201526f14185d5cd8589b194e881c185d5cd95960821b60448201526064016105fb565b6006546001600160a01b03166107f7610fc1565b6001600160a01b0316146108575760405162461bcd60e51b815260206004820152602160248201527f4f6e6c792061646d696e2063616e2063616c6c20746869732066756e6374696f6044820152603760f91b60648201526084016105fb565b8243106108a65760405162461bcd60e51b815260206004820152601b60248201527f4d657461207472616e73616374696f6e2069732065787069726564000000000060448201526064016105fb565b6001600160a01b038216600090815260096020526040902054616d60906108cd904361180e565b1115610943576007548111156109255760405162461bcd60e51b815260206004820152601960248201527f5769746864726177616c206c696d69742065786365656465640000000000000060448201526064016105fb565b6001600160a01b0382166000908152600860205260408120556109c4565b6007546001600160a01b03831660009081526008602052604090205461096a90839061176e565b11156109c45760405162461bcd60e51b8152602060048201526024808201527f5769746864726177616c206c696d6974207065722064617920697320657863656044820152631959195960e21b60648201526084016105fb565b6001600160a01b038216600090815260086020526040812080548392906109ec90849061176e565b90915550506001600160a01b03828116600081815260096020526040908190204390555163a9059cbb60e01b81526004810191909152602481018390527f00000000000000000000000000000000000000000000000000000000000000009091169063a9059cbb906044016020604051808303816000875af1158015610a76573d6000803e3d6000fd5b505050506040513d601f19601f82011682018060405250810190610a9a9190611825565b50816001600160a01b03167f7a5e5c901f9da945e2028bd646eb1f6842dff416e862cfa502e0d3408635143a8583604051610ad6929190611847565b60405180910390a2505060016002555050565b600082815260208190526040902060010154610b0481610fd0565b610b0e8383610fe1565b505050565b6000610b1e81610fd0565b600780549083905560408051828152602081018590527fd590ebe95ec114bbe78fbcca5add7987ba9531fc1c57bbe4103dabf323049f3991015b60405180910390a1505050565b610b6d610fc1565b6001600160a01b0316816001600160a01b031614610be55760405162461bcd60e51b815260206004820152602f60248201527f416363657373436f6e74726f6c3a2063616e206f6e6c792072656e6f756e636560448201526e103937b632b9903337b91039b2b63360891b60648201526084016105fb565b610bef8282611066565b5050565b6000610bfe81610fd0565b610c066110e9565b50565b6000610c1481610fd0565b816001600160a01b031663a9059cbb610c2b610fc1565b6040516370a0823160e01b81523060048201526001600160a01b038616906370a0823190602401602060405180830381865afa158015610c6f573d6000803e3d6000fd5b505050506040513d601f19601f82011682018060405250810190610c939190611869565b6040516001600160e01b031960e085901b1681526001600160a01b03909216600483015260248201526044016020604051808303816000875af1158015610cde573d6000803e3d6000fd5b505050506040513d601f19601f82011682018060405250810190610d029190611825565b50610d0b610fc1565b6040516370a0823160e01b81523060048201526001600160a01b03918216917f5fafa99d0643513820be26656b45130b01e1c03062e1266bf36f88cbd3bd969591908516906370a0823190602401602060405180830381865afa158015610d76573d6000803e3d6000fd5b505050506040513d601f19601f82011682018060405250810190610d9a9190611869565b60405190815260200160405180910390a25050565b6000610dba81610fd0565b600680546001600160a01b038481166001600160a01b031983168117909355604080519190921680825260208201939093527f7e644d79422f17c01e4894b5f4f588d331ebfa28653d42ae832dc59e38c9798f9101610b58565b6000610e1f81610fd0565b610c06611182565b6000918252602082815260408084206001600160a01b0393909316845291905290205460ff1690565b600082815260208190526040902060010154610e6b81610fd0565b610b0e8383611066565b6000303303610ecb57600080368080601f0160208091040260200160405190810160405280939291908181526020018383808284376000920191909152505050503601516001600160a01b03169150610ece9050565b50335b90565b60006001600160a01b038616610f375760405162461bcd60e51b815260206004820152602560248201527f4e61746976654d6574615472616e73616374696f6e3a20494e56414c49445f5360448201526424a3a722a960d91b60648201526084016105fb565b6001610f4a610f45876111fd565b61127a565b6040805160008152602081018083529290925260ff851690820152606081018690526080810185905260a0016020604051602081039080840390855afa158015610f98573d6000803e3d6000fd5b505050602060405103516001600160a01b0316866001600160a01b031614905095945050505050565b6000610fcb610e75565b905090565b610c0681610fdc610fc1565b6112aa565b610feb8282610e27565b610bef576000828152602081815260408083206001600160a01b03851684529091529020805460ff19166001179055611022610fc1565b6001600160a01b0316816001600160a01b0316837f2f8788117e7eff1d82e926ec794901d17c78024a50270940304540a733656f0d60405160405180910390a45050565b6110708282610e27565b15610bef576000828152602081815260408083206001600160a01b03851684529091529020805460ff191690556110a5610fc1565b6001600160a01b0316816001600160a01b0316837ff6391f5c32d9c69d2a47ea670b442974b53935d1edc7fd64eb21e047a839171b60405160405180910390a45050565b60015460ff166111325760405162461bcd60e51b815260206004820152601460248201527314185d5cd8589b194e881b9bdd081c185d5cd95960621b60448201526064016105fb565b6001805460ff191690557f5db9ee0a495bf2e6ff9c91a7834c1ba4fdd244a5e8aa4e537bd38aeae4b073aa611165610fc1565b6040516001600160a01b03909116815260200160405180910390a1565b60015460ff16156111c85760405162461bcd60e51b815260206004820152601060248201526f14185d5cd8589b194e881c185d5cd95960821b60448201526064016105fb565b6001805460ff1916811790557f62e78cea01bee320cd4e420270b5ea74000d11b0c9f74754ebdbfc544b05a258611165610fc1565b6000604051806080016040528060438152602001611944604391398051602091820120835184830151604080870151805190860120905161125d950193845260208401929092526001600160a01b03166040830152606082015260800190565b604051602081830303815290604052805190602001209050919050565b600061128560045490565b60405161190160f01b602082015260228101919091526042810183905260620161125d565b6112b48282610e27565b610bef576112cc816001600160a01b0316601461130e565b6112d783602061130e565b6040516020016112e8929190611882565b60408051601f198184030181529082905262461bcd60e51b82526105fb91600401611537565b6060600061131d8360026118f7565b61132890600261176e565b67ffffffffffffffff8111156113405761134061155f565b6040519080825280601f01601f19166020018201604052801561136a576020820181803683370190505b509050600360fc1b8160008151811061138557611385611916565b60200101906001600160f81b031916908160001a905350600f60fb1b816001815181106113b4576113b4611916565b60200101906001600160f81b031916908160001a90535060006113d88460026118f7565b6113e390600161176e565b90505b600181111561145b576f181899199a1a9b1b9c1cb0b131b232b360811b85600f166010811061141757611417611916565b1a60f81b82828151811061142d5761142d611916565b60200101906001600160f81b031916908160001a90535060049490941c936114548161192c565b90506113e6565b5083156114aa5760405162461bcd60e51b815260206004820181905260248201527f537472696e67733a20686578206c656e67746820696e73756666696369656e7460448201526064016105fb565b9392505050565b6000602082840312156114c357600080fd5b81356001600160e01b0319811681146114aa57600080fd5b60005b838110156114f65781810151838201526020016114de565b83811115611505576000848401525b50505050565b600081518084526115238160208601602086016114db565b601f01601f19169290920160200192915050565b6020815260006114aa602083018461150b565b6001600160a01b0381168114610c0657600080fd5b634e487b7160e01b600052604160045260246000fd5b600067ffffffffffffffff808411156115905761159061155f565b604051601f8501601f19908116603f011681019082821181831017156115b8576115b861155f565b816040528093508581528686860111156115d157600080fd5b858560208301376000602087830101525050509392505050565b600080600080600060a0868803121561160357600080fd5b853561160e8161154a565b9450602086013567ffffffffffffffff81111561162a57600080fd5b8601601f8101881361163b57600080fd5b61164a88823560208401611575565b9450506040860135925060608601359150608086013560ff8116811461166f57600080fd5b809150509295509295909350565b6000806000806080858703121561169357600080fd5b843567ffffffffffffffff8111156116aa57600080fd5b8501601f810187136116bb57600080fd5b6116ca87823560208401611575565b9450506020850135925060408501356116e28161154a565b9396929550929360600135925050565b60006020828403121561170457600080fd5b5035919050565b60006020828403121561171d57600080fd5b81356114aa8161154a565b6000806040838503121561173b57600080fd5b82359150602083013561174d8161154a565b809150509250929050565b634e487b7160e01b600052601160045260246000fd5b6000821982111561178157611781611758565b500190565b6001600160a01b038481168252831660208201526060604082018190526000906117b29083018461150b565b95945050505050565b600083516117cd8184602088016114db565b60609390931b6bffffffffffffffffffffffff19169190920190815260140192915050565b600082516118048184602087016114db565b9190910192915050565b60008282101561182057611820611758565b500390565b60006020828403121561183757600080fd5b815180151581146114aa57600080fd5b60408152600061185a604083018561150b565b90508260208301529392505050565b60006020828403121561187b57600080fd5b5051919050565b7f416363657373436f6e74726f6c3a206163636f756e74200000000000000000008152600083516118ba8160178501602088016114db565b7001034b99036b4b9b9b4b733903937b6329607d1b60179184019182015283516118eb8160288401602088016114db565b01602801949350505050565b600081600019048311821515161561191157611911611758565b500290565b634e487b7160e01b600052603260045260246000fd5b60008161193b5761193b611758565b50600019019056fe4d6574615472616e73616374696f6e2875696e74323536206e6f6e63652c616464726573732066726f6d2c62797465732066756e6374696f6e5369676e617475726529a2646970667358221220c0e80cb3221669215b01c6dd51c1233dd77c79d6ed5f81ced83b770334c4fe8464736f6c634300080e0033454950373132446f6d61696e28737472696e67206e616d652c737472696e672076657273696f6e2c6164647265737320766572696679696e67436f6e74726163742c627974657333322073616c7429",
  "devdoc": {
    "kind": "dev",
    "methods": {
      "getRoleAdmin(bytes32)": {
        "details": "Returns the admin role that controls `role`. See {grantRole} and {revokeRole}. To change a role's admin, use {_setRoleAdmin}."
      },
      "grantRole(bytes32,address)": {
        "details": "Grants `role` to `account`. If `account` had not been already granted `role`, emits a {RoleGranted} event. Requirements: - the caller must have ``role``'s admin role."
      },
      "hasRole(bytes32,address)": {
        "details": "Returns `true` if `account` has been granted `role`."
      },
      "paused()": {
        "details": "Returns true if the contract is paused, and false otherwise."
      },
      "renounceRole(bytes32,address)": {
        "details": "Revokes `role` from the calling account. Roles are often managed via {grantRole} and {revokeRole}: this function's purpose is to provide a mechanism for accounts to lose their privileges if they are compromised (such as when a trusted device is misplaced). If the calling account had been revoked `role`, emits a {RoleRevoked} event. Requirements: - the caller must be `account`."
      },
      "revokeRole(bytes32,address)": {
        "details": "Revokes `role` from `account`. If `account` had been granted `role`, emits a {RoleRevoked} event. Requirements: - the caller must have ``role``'s admin role."
      },
      "supportsInterface(bytes4)": {
        "details": "See {IERC165-supportsInterface}."
      }
    },
    "version": 1
  },
  "userdoc": {
    "kind": "user",
    "methods": {},
    "version": 1
  },
  "storageLayout": {
    "storage": [
      {
        "astId": 24,
        "contract": "contracts/pre-launch-event/BUSDFactory.sol:BUSDFactory",
        "label": "_roles",
        "offset": 0,
        "slot": "0",
        "type": "t_mapping(t_bytes32,t_struct(RoleData)19_storage)"
      },
      {
        "astId": 534,
        "contract": "contracts/pre-launch-event/BUSDFactory.sol:BUSDFactory",
        "label": "_paused",
        "offset": 0,
        "slot": "1",
        "type": "t_bool"
      },
      {
        "astId": 619,
        "contract": "contracts/pre-launch-event/BUSDFactory.sol:BUSDFactory",
        "label": "_status",
        "offset": 0,
        "slot": "2",
        "type": "t_uint256"
      },
      {
        "astId": 6023,
        "contract": "contracts/pre-launch-event/BUSDFactory.sol:BUSDFactory",
        "label": "inited",
        "offset": 0,
        "slot": "3",
        "type": "t_bool"
      },
      {
        "astId": 5930,
        "contract": "contracts/pre-launch-event/BUSDFactory.sol:BUSDFactory",
        "label": "domainSeperator",
        "offset": 0,
        "slot": "4",
        "type": "t_bytes32"
      },
      {
        "astId": 6064,
        "contract": "contracts/pre-launch-event/BUSDFactory.sol:BUSDFactory",
        "label": "nonces",
        "offset": 0,
        "slot": "5",
        "type": "t_mapping(t_address,t_uint256)"
      },
      {
        "astId": 6263,
        "contract": "contracts/pre-launch-event/BUSDFactory.sol:BUSDFactory",
        "label": "admin",
        "offset": 0,
        "slot": "6",
        "type": "t_address"
      },
      {
        "astId": 6266,
        "contract": "contracts/pre-launch-event/BUSDFactory.sol:BUSDFactory",
        "label": "withdrawalLimitPerDay",
        "offset": 0,
        "slot": "7",
        "type": "t_uint256"
      },
      {
        "astId": 6270,
        "contract": "contracts/pre-launch-event/BUSDFactory.sol:BUSDFactory",
        "label": "withdrawAmount",
        "offset": 0,
        "slot": "8",
        "type": "t_mapping(t_address,t_uint256)"
      },
      {
        "astId": 6274,
        "contract": "contracts/pre-launch-event/BUSDFactory.sol:BUSDFactory",
        "label": "lastWithdraw",
        "offset": 0,
        "slot": "9",
        "type": "t_mapping(t_address,t_uint256)"
      }
    ],
    "types": {
      "t_address": {
        "encoding": "inplace",
        "label": "address",
        "numberOfBytes": "20"
      },
      "t_bool": {
        "encoding": "inplace",
        "label": "bool",
        "numberOfBytes": "1"
      },
      "t_bytes32": {
        "encoding": "inplace",
        "label": "bytes32",
        "numberOfBytes": "32"
      },
      "t_mapping(t_address,t_bool)": {
        "encoding": "mapping",
        "key": "t_address",
        "label": "mapping(address => bool)",
        "numberOfBytes": "32",
        "value": "t_bool"
      },
      "t_mapping(t_address,t_uint256)": {
        "encoding": "mapping",
        "key": "t_address",
        "label": "mapping(address => uint256)",
        "numberOfBytes": "32",
        "value": "t_uint256"
      },
      "t_mapping(t_bytes32,t_struct(RoleData)19_storage)": {
        "encoding": "mapping",
        "key": "t_bytes32",
        "label": "mapping(bytes32 => struct AccessControl.RoleData)",
        "numberOfBytes": "32",
        "value": "t_struct(RoleData)19_storage"
      },
      "t_struct(RoleData)19_storage": {
        "encoding": "inplace",
        "label": "struct AccessControl.RoleData",
        "members": [
          {
            "astId": 16,
            "contract": "contracts/pre-launch-event/BUSDFactory.sol:BUSDFactory",
            "label": "members",
            "offset": 0,
            "slot": "0",
            "type": "t_mapping(t_address,t_bool)"
          },
          {
            "astId": 18,
            "contract": "contracts/pre-launch-event/BUSDFactory.sol:BUSDFactory",
            "label": "adminRole",
            "offset": 0,
            "slot": "1",
            "type": "t_bytes32"
          }
        ],
        "numberOfBytes": "64"
      },
      "t_uint256": {
        "encoding": "inplace",
        "label": "uint256",
        "numberOfBytes": "32"
      }
    }
  }
}