{
  "address": "0x7C6D7D71a75DFc965b5B540BD566099E5F4d6355",
  "abi": [
    {
      "inputs": [
        {
          "internalType": "contract IPlaybuxQuestNFT",
          "name": "_nft",
          "type": "address"
        },
        {
          "internalType": "address",
          "name": "_admin",
          "type": "address"
        }
      ],
      "stateMutability": "nonpayable",
      "type": "constructor"
    },
    {
      "anonymous": false,
      "inputs": [
        {
          "indexed": false,
          "internalType": "address",
          "name": "oldAdmin",
          "type": "address"
        },
        {
          "indexed": false,
          "internalType": "address",
          "name": "newAdmin",
          "type": "address"
        }
      ],
      "name": "AdminChanged",
      "type": "event"
    },
    {
      "anonymous": false,
      "inputs": [
        {
          "indexed": false,
          "internalType": "string",
          "name": "_transactionId",
          "type": "string"
        },
        {
          "indexed": true,
          "internalType": "address",
          "name": "_receiver",
          "type": "address"
        },
        {
          "indexed": false,
          "internalType": "uint256",
          "name": "_type",
          "type": "uint256"
        },
        {
          "indexed": false,
          "internalType": "uint256[]",
          "name": "_tokenIds",
          "type": "uint256[]"
        }
      ],
      "name": "Compound",
      "type": "event"
    },
    {
      "anonymous": false,
      "inputs": [
        {
          "indexed": false,
          "internalType": "uint256",
          "name": "oldLimit",
          "type": "uint256"
        },
        {
          "indexed": false,
          "internalType": "uint256",
          "name": "newLimit",
          "type": "uint256"
        }
      ],
      "name": "CompoundLimitPerDayChanged",
      "type": "event"
    },
    {
      "anonymous": false,
      "inputs": [
        {
          "indexed": false,
          "internalType": "address",
          "name": "userAddress",
          "type": "address"
        },
        {
          "indexed": false,
          "internalType": "address payable",
          "name": "relayerAddress",
          "type": "address"
        },
        {
          "indexed": false,
          "internalType": "bytes",
          "name": "functionSignature",
          "type": "bytes"
        }
      ],
      "name": "MetaTransactionExecuted",
      "type": "event"
    },
    {
      "anonymous": false,
      "inputs": [
        {
          "indexed": false,
          "internalType": "address",
          "name": "account",
          "type": "address"
        }
      ],
      "name": "Paused",
      "type": "event"
    },
    {
      "anonymous": false,
      "inputs": [
        {
          "indexed": true,
          "internalType": "bytes32",
          "name": "role",
          "type": "bytes32"
        },
        {
          "indexed": true,
          "internalType": "bytes32",
          "name": "previousAdminRole",
          "type": "bytes32"
        },
        {
          "indexed": true,
          "internalType": "bytes32",
          "name": "newAdminRole",
          "type": "bytes32"
        }
      ],
      "name": "RoleAdminChanged",
      "type": "event"
    },
    {
      "anonymous": false,
      "inputs": [
        {
          "indexed": true,
          "internalType": "bytes32",
          "name": "role",
          "type": "bytes32"
        },
        {
          "indexed": true,
          "internalType": "address",
          "name": "account",
          "type": "address"
        },
        {
          "indexed": true,
          "internalType": "address",
          "name": "sender",
          "type": "address"
        }
      ],
      "name": "RoleGranted",
      "type": "event"
    },
    {
      "anonymous": false,
      "inputs": [
        {
          "indexed": true,
          "internalType": "bytes32",
          "name": "role",
          "type": "bytes32"
        },
        {
          "indexed": true,
          "internalType": "address",
          "name": "account",
          "type": "address"
        },
        {
          "indexed": true,
          "internalType": "address",
          "name": "sender",
          "type": "address"
        }
      ],
      "name": "RoleRevoked",
      "type": "event"
    },
    {
      "anonymous": false,
      "inputs": [
        {
          "indexed": false,
          "internalType": "address",
          "name": "account",
          "type": "address"
        }
      ],
      "name": "Unpaused",
      "type": "event"
    },
    {
      "stateMutability": "nonpayable",
      "type": "fallback"
    },
    {
      "inputs": [],
      "name": "BLOCK_PER_DAY",
      "outputs": [
        {
          "internalType": "uint256",
          "name": "",
          "type": "uint256"
        }
      ],
      "stateMutability": "view",
      "type": "function"
    },
    {
      "inputs": [],
      "name": "DEFAULT_ADMIN_ROLE",
      "outputs": [
        {
          "internalType": "bytes32",
          "name": "",
          "type": "bytes32"
        }
      ],
      "stateMutability": "view",
      "type": "function"
    },
    {
      "inputs": [],
      "name": "ERC712_VERSION",
      "outputs": [
        {
          "internalType": "string",
          "name": "",
          "type": "string"
        }
      ],
      "stateMutability": "view",
      "type": "function"
    },
    {
      "inputs": [],
      "name": "admin",
      "outputs": [
        {
          "internalType": "address",
          "name": "",
          "type": "address"
        }
      ],
      "stateMutability": "view",
      "type": "function"
    },
    {
      "inputs": [
        {
          "internalType": "string",
          "name": "_transactionId",
          "type": "string"
        },
        {
          "internalType": "uint256",
          "name": "_expirationBlock",
          "type": "uint256"
        },
        {
          "internalType": "address",
          "name": "_receiver",
          "type": "address"
        },
        {
          "internalType": "uint256",
          "name": "_type",
          "type": "uint256"
        },
        {
          "internalType": "uint256[]",
          "name": "_tokenIds",
          "type": "uint256[]"
        }
      ],
      "name": "compound",
      "outputs": [],
      "stateMutability": "nonpayable",
      "type": "function"
    },
    {
      "inputs": [],
      "name": "compoundLimitPerDay",
      "outputs": [
        {
          "internalType": "uint256",
          "name": "",
          "type": "uint256"
        }
      ],
      "stateMutability": "view",
      "type": "function"
    },
    {
      "inputs": [
        {
          "internalType": "address",
          "name": "userAddress",
          "type": "address"
        },
        {
          "internalType": "bytes",
          "name": "functionSignature",
          "type": "bytes"
        },
        {
          "internalType": "bytes32",
          "name": "sigR",
          "type": "bytes32"
        },
        {
          "internalType": "bytes32",
          "name": "sigS",
          "type": "bytes32"
        },
        {
          "internalType": "uint8",
          "name": "sigV",
          "type": "uint8"
        }
      ],
      "name": "executeMetaTransaction",
      "outputs": [
        {
          "internalType": "bytes",
          "name": "",
          "type": "bytes"
        }
      ],
      "stateMutability": "payable",
      "type": "function"
    },
    {
      "inputs": [],
      "name": "getChainId",
      "outputs": [
        {
          "internalType": "uint256",
          "name": "",
          "type": "uint256"
        }
      ],
      "stateMutability": "view",
      "type": "function"
    },
    {
      "inputs": [],
      "name": "getDomainSeperator",
      "outputs": [
        {
          "internalType": "bytes32",
          "name": "",
          "type": "bytes32"
        }
      ],
      "stateMutability": "view",
      "type": "function"
    },
    {
      "inputs": [
        {
          "internalType": "address",
          "name": "user",
          "type": "address"
        }
      ],
      "name": "getNonce",
      "outputs": [
        {
          "internalType": "uint256",
          "name": "nonce",
          "type": "uint256"
        }
      ],
      "stateMutability": "view",
      "type": "function"
    },
    {
      "inputs": [
        {
          "internalType": "bytes32",
          "name": "role",
          "type": "bytes32"
        }
      ],
      "name": "getRoleAdmin",
      "outputs": [
        {
          "internalType": "bytes32",
          "name": "",
          "type": "bytes32"
        }
      ],
      "stateMutability": "view",
      "type": "function"
    },
    {
      "inputs": [
        {
          "internalType": "bytes32",
          "name": "role",
          "type": "bytes32"
        },
        {
          "internalType": "address",
          "name": "account",
          "type": "address"
        }
      ],
      "name": "grantRole",
      "outputs": [],
      "stateMutability": "nonpayable",
      "type": "function"
    },
    {
      "inputs": [
        {
          "internalType": "bytes32",
          "name": "role",
          "type": "bytes32"
        },
        {
          "internalType": "address",
          "name": "account",
          "type": "address"
        }
      ],
      "name": "hasRole",
      "outputs": [
        {
          "internalType": "bool",
          "name": "",
          "type": "bool"
        }
      ],
      "stateMutability": "view",
      "type": "function"
    },
    {
      "inputs": [
        {
          "internalType": "address",
          "name": "",
          "type": "address"
        }
      ],
      "name": "lastMint",
      "outputs": [
        {
          "internalType": "uint256",
          "name": "",
          "type": "uint256"
        }
      ],
      "stateMutability": "view",
      "type": "function"
    },
    {
      "inputs": [
        {
          "internalType": "address",
          "name": "",
          "type": "address"
        }
      ],
      "name": "mintAmount",
      "outputs": [
        {
          "internalType": "uint256",
          "name": "",
          "type": "uint256"
        }
      ],
      "stateMutability": "view",
      "type": "function"
    },
    {
      "inputs": [],
      "name": "name",
      "outputs": [
        {
          "internalType": "string",
          "name": "",
          "type": "string"
        }
      ],
      "stateMutability": "view",
      "type": "function"
    },
    {
      "inputs": [],
      "name": "nft",
      "outputs": [
        {
          "internalType": "contract IPlaybuxQuestNFT",
          "name": "",
          "type": "address"
        }
      ],
      "stateMutability": "view",
      "type": "function"
    },
    {
      "inputs": [],
      "name": "pause",
      "outputs": [],
      "stateMutability": "nonpayable",
      "type": "function"
    },
    {
      "inputs": [],
      "name": "paused",
      "outputs": [
        {
          "internalType": "bool",
          "name": "",
          "type": "bool"
        }
      ],
      "stateMutability": "view",
      "type": "function"
    },
    {
      "inputs": [
        {
          "internalType": "bytes32",
          "name": "role",
          "type": "bytes32"
        },
        {
          "internalType": "address",
          "name": "account",
          "type": "address"
        }
      ],
      "name": "renounceRole",
      "outputs": [],
      "stateMutability": "nonpayable",
      "type": "function"
    },
    {
      "inputs": [
        {
          "internalType": "bytes32",
          "name": "role",
          "type": "bytes32"
        },
        {
          "internalType": "address",
          "name": "account",
          "type": "address"
        }
      ],
      "name": "revokeRole",
      "outputs": [],
      "stateMutability": "nonpayable",
      "type": "function"
    },
    {
      "inputs": [
        {
          "internalType": "address",
          "name": "_admin",
          "type": "address"
        }
      ],
      "name": "setAdmin",
      "outputs": [],
      "stateMutability": "nonpayable",
      "type": "function"
    },
    {
      "inputs": [
        {
          "internalType": "uint256",
          "name": "_limit",
          "type": "uint256"
        }
      ],
      "name": "setCompoundLimitPerDay",
      "outputs": [],
      "stateMutability": "nonpayable",
      "type": "function"
    },
    {
      "inputs": [
        {
          "internalType": "bytes4",
          "name": "interfaceId",
          "type": "bytes4"
        }
      ],
      "name": "supportsInterface",
      "outputs": [
        {
          "internalType": "bool",
          "name": "",
          "type": "bool"
        }
      ],
      "stateMutability": "view",
      "type": "function"
    },
    {
      "inputs": [],
      "name": "unpause",
      "outputs": [],
      "stateMutability": "nonpayable",
      "type": "function"
    }
  ],
  "transactionHash": "0xa976d1dfe318cb68c373c9af3d25daaba263904785c69e0223d15b1314737822",
  "args": [
    "0xF3C58f45Ac92B04D53f830509bDEb0Ca6fBBed85",
    "0xC3766Cc2846dB7b54CB4Cc7c3c7838bBd79add4e"
  ],
  "numDeployments": 4,
  "solcInputHash": "35e2fa906b195a309916037304004422",
  "bytecode": "0x60a06040526003805460ff19169055600a6007553480156200002057600080fd5b5060405162001d5e38038062001d5e8339810160408190526200004391620003b5565b6001805460ff191681556002556001600160a01b03828116608052600680546001600160a01b0319169183169190911790556200008b600062000085620000dc565b620000f8565b60408051808201909152601481527f506c6179627578204e465420436f6d706f756e640000000000000000000000006020820152620000ca906200019b565b620000d462000200565b5050620003f4565b6000620000f36200029c60201b62000cee1760201c565b905090565b6000828152602081815260408083206001600160a01b038516845290915290205460ff1662000197576000828152602081815260408083206001600160a01b03851684529091529020805460ff1916600117905562000156620000dc565b6001600160a01b0316816001600160a01b0316837f2f8788117e7eff1d82e926ec794901d17c78024a50270940304540a733656f0d60405160405180910390a45b5050565b60035460ff1615620001e55760405162461bcd60e51b815260206004820152600e60248201526d185b1c9958591e481a5b9a5d195960921b60448201526064015b60405180910390fd5b620001f081620002fa565b506003805460ff19166001179055565b60015460ff1615620002485760405162461bcd60e51b815260206004820152601060248201526f14185d5cd8589b194e881c185d5cd95960821b6044820152606401620001dc565b6001805460ff1916811790557f62e78cea01bee320cd4e420270b5ea74000d11b0c9f74754ebdbfc544b05a2586200027f620000dc565b6040516001600160a01b03909116815260200160405180910390a1565b6000303303620002f457600080368080601f0160208091040260200160405190810160405280939291908181526020018383808284376000920191909152505050503601516001600160a01b03169150620002f79050565b50335b90565b6040518060800160405280604f815260200162001d0f604f9139805160209182012082519282019290922060408051808201825260018152603160f81b90840152805180840194909452838101919091527fc89efdaa54c0f20c7adf612882df0950f5a951637e0307cdcb4c672f298b8bc660608401523060808401524660a0808501919091528151808503909101815260c090930190528151910120600455565b6001600160a01b0381168114620003b257600080fd5b50565b60008060408385031215620003c957600080fd5b8251620003d6816200039c565b6020840151909250620003e9816200039c565b809150509250929050565b6080516118f16200041e6000396000818161038601528181610b700152610c4101526118f16000f3fe6080604052600436106101665760003560e01c80633f4ba83a116100d157806391d148541161008a578063d547741f11610064578063d547741f14610485578063d970e674146104a5578063f208b3af146104bb578063f851a440146104db57610166565b806391d1485414610423578063a217fddf14610443578063adc20b1c1461045857610166565b80633f4ba83a1461035f57806347ccca02146103745780635c975abb146103c0578063704b6c02146103d85780638300782a146103f85780638456cb591461040e57610166565b8063248a9ca311610123578063248a9ca3146102865780632991ce75146102b65780632d0335ab146102d65780632f2ff15d1461030c5780633408e4701461032c57806336568abe1461033f57610166565b806301ffc9a714610174578063055d822c146101a957806306fdde03146101e45780630c53c51c146102315780630f7e59701461024457806320379ee514610271575b34801561017257600080fd5b005b34801561018057600080fd5b5061019461018f36600461132a565b6104fb565b60405190151581526020015b60405180910390f35b3480156101b557600080fd5b506101d66101c4366004611370565b60086020526000908152604090205481565b6040519081526020016101a0565b3480156101f057600080fd5b5061022460405180604001604052806014815260200173141b185e589d5e081391950810dbdb5c1bdd5b9960621b81525081565b6040516101a091906113e7565b61022461023f366004611499565b610532565b34801561025057600080fd5b50610224604051806040016040528060018152602001603160f81b81525081565b34801561027d57600080fd5b506004546101d6565b34801561029257600080fd5b506101d66102a1366004611529565b60009081526020819052604090206001015490565b3480156102c257600080fd5b506101726102d1366004611529565b610711565b3480156102e257600080fd5b506101d66102f1366004611370565b6001600160a01b031660009081526005602052604090205490565b34801561031857600080fd5b50610172610327366004611542565b610763565b34801561033857600080fd5b50466101d6565b34801561034b57600080fd5b5061017261035a366004611542565b61078d565b34801561036b57600080fd5b5061017261081b565b34801561038057600080fd5b506103a87f000000000000000000000000000000000000000000000000000000000000000081565b6040516001600160a01b0390911681526020016101a0565b3480156103cc57600080fd5b5060015460ff16610194565b3480156103e457600080fd5b506101726103f3366004611370565b610831565b34801561040457600080fd5b506101d660075481565b34801561041a57600080fd5b50610172610896565b34801561042f57600080fd5b5061019461043e366004611542565b6108a9565b34801561044f57600080fd5b506101d6600081565b34801561046457600080fd5b506101d6610473366004611370565b60096020526000908152604090205481565b34801561049157600080fd5b506101726104a0366004611542565b6108d2565b3480156104b157600080fd5b506101d6616d6081565b3480156104c757600080fd5b506101726104d636600461156e565b6108f7565b3480156104e757600080fd5b506006546103a8906001600160a01b031681565b60006001600160e01b03198216637965db0b60e01b148061052c57506301ffc9a760e01b6001600160e01b03198316145b92915050565b604080516060818101835233600090815260056020908152908490205483526001600160a01b038916908301529181018690526105728782878787610d4a565b6105cd5760405162461bcd60e51b815260206004820152602160248201527f5369676e657220616e64207369676e617475726520646f206e6f74206d6174636044820152600d60fb1b60648201526084015b60405180910390fd5b336000908152600560205260409020546105e890600161168b565b33600081815260056020526040908190209290925590517f5845892132946850460bff5a0083f71031bc5bf9aadcd40f1de79423eac9b10b9161062f918a91908a906116a3565b60405180910390a1600080306001600160a01b0316888a6040516020016106579291906116d8565b60408051601f19818403018152908290526106719161170f565b6000604051808303816000865af19150503d80600081146106ae576040519150601f19603f3d011682016040523d82523d6000602084013e6106b3565b606091505b5091509150816107055760405162461bcd60e51b815260206004820152601c60248201527f46756e6374696f6e2063616c6c206e6f74207375636365737366756c0000000060448201526064016105c4565b98975050505050505050565b600061071c81610e3a565b600780549083905560408051828152602081018590527f049165deda581137bf86ae15701bffba66ea9c27fd3ea3599afd0aa8cc034d8391015b60405180910390a1505050565b60008281526020819052604090206001015461077e81610e3a565b6107888383610e4b565b505050565b610795610ed0565b6001600160a01b0316816001600160a01b03161461080d5760405162461bcd60e51b815260206004820152602f60248201527f416363657373436f6e74726f6c3a2063616e206f6e6c792072656e6f756e636560448201526e103937b632b9903337b91039b2b63360891b60648201526084016105c4565b6108178282610edf565b5050565b600061082681610e3a565b61082e610f62565b50565b600061083c81610e3a565b600680546001600160a01b038481166001600160a01b031983168117909355604080519190921680825260208201939093527f7e644d79422f17c01e4894b5f4f588d331ebfa28653d42ae832dc59e38c9798f9101610756565b60006108a181610e3a565b61082e610ffb565b6000918252602082815260408084206001600160a01b0393909316845291905290205460ff1690565b6000828152602081905260409020600101546108ed81610e3a565b6107888383610edf565b60028054036109485760405162461bcd60e51b815260206004820152601f60248201527f5265656e7472616e637947756172643a207265656e7472616e742063616c6c0060448201526064016105c4565b6002805560015460ff16156109925760405162461bcd60e51b815260206004820152601060248201526f14185d5cd8589b194e881c185d5cd95960821b60448201526064016105c4565b6006546001600160a01b03166109a6610ed0565b6001600160a01b031614610a065760405162461bcd60e51b815260206004820152602160248201527f4f6e6c792061646d696e2063616e2063616c6c20746869732066756e6374696f6044820152603760f91b60648201526084016105c4565b834310610a555760405162461bcd60e51b815260206004820152601b60248201527f4d657461207472616e73616374696f6e2069732065787069726564000000000060448201526064016105c4565b6001600160a01b038316600090815260096020526040902054616d6090610a7c904361172b565b1115610aa0576001600160a01b038316600090815260086020526040812055610b20565b6007546001600160a01b038416600090815260086020526040902054610ac790600161168b565b1115610b205760405162461bcd60e51b815260206004820152602260248201527f436f6d706f756e64206c696d6974207065722064617920697320657863656564604482015261195960f21b60648201526084016105c4565b6001600160a01b0383166000908152600860205260408120805491610b4483611742565b90915550506001600160a01b03831660009081526009602052604081204390555b8151811015610c1a577f00000000000000000000000000000000000000000000000000000000000000006001600160a01b031663cc14f2f5838381518110610baf57610baf61175b565b60200260200101516040518263ffffffff1660e01b8152600401610bd591815260200190565b600060405180830381600087803b158015610bef57600080fd5b505af1158015610c03573d6000803e3d6000fd5b505050508080610c1290611742565b915050610b65565b506040516308934a5f60e31b81526001600160a01b038481166004830152602482018490527f0000000000000000000000000000000000000000000000000000000000000000169063449a52f890604401600060405180830381600087803b158015610c8557600080fd5b505af1158015610c99573d6000803e3d6000fd5b50505050826001600160a01b03167ff85024790414790e314aabea55ed11fdd14e4981e8bb98a8701f711fddb7aa8a868484604051610cda93929190611771565b60405180910390a250506001600255505050565b6000303303610d4457600080368080601f0160208091040260200160405190810160405280939291908181526020018383808284376000920191909152505050503601516001600160a01b03169150610d479050565b50335b90565b60006001600160a01b038616610db05760405162461bcd60e51b815260206004820152602560248201527f4e61746976654d6574615472616e73616374696f6e3a20494e56414c49445f5360448201526424a3a722a960d91b60648201526084016105c4565b6001610dc3610dbe87611076565b6110f3565b6040805160008152602081018083529290925260ff851690820152606081018690526080810185905260a0016020604051602081039080840390855afa158015610e11573d6000803e3d6000fd5b505050602060405103516001600160a01b0316866001600160a01b031614905095945050505050565b61082e81610e46610ed0565b611123565b610e5582826108a9565b610817576000828152602081815260408083206001600160a01b03851684529091529020805460ff19166001179055610e8c610ed0565b6001600160a01b0316816001600160a01b0316837f2f8788117e7eff1d82e926ec794901d17c78024a50270940304540a733656f0d60405160405180910390a45050565b6000610eda610cee565b905090565b610ee982826108a9565b15610817576000828152602081815260408083206001600160a01b03851684529091529020805460ff19169055610f1e610ed0565b6001600160a01b0316816001600160a01b0316837ff6391f5c32d9c69d2a47ea670b442974b53935d1edc7fd64eb21e047a839171b60405160405180910390a45050565b60015460ff16610fab5760405162461bcd60e51b815260206004820152601460248201527314185d5cd8589b194e881b9bdd081c185d5cd95960621b60448201526064016105c4565b6001805460ff191690557f5db9ee0a495bf2e6ff9c91a7834c1ba4fdd244a5e8aa4e537bd38aeae4b073aa610fde610ed0565b6040516001600160a01b03909116815260200160405180910390a1565b60015460ff16156110415760405162461bcd60e51b815260206004820152601060248201526f14185d5cd8589b194e881c185d5cd95960821b60448201526064016105c4565b6001805460ff1916811790557f62e78cea01bee320cd4e420270b5ea74000d11b0c9f74754ebdbfc544b05a258610fde610ed0565b600060405180608001604052806043815260200161187960439139805160209182012083518483015160408087015180519086012090516110d6950193845260208401929092526001600160a01b03166040830152606082015260800190565b604051602081830303815290604052805190602001209050919050565b60006110fe60045490565b60405161190160f01b60208201526022810191909152604281018390526062016110d6565b61112d82826108a9565b61081757611145816001600160a01b03166014611187565b611150836020611187565b6040516020016111619291906117cd565b60408051601f198184030181529082905262461bcd60e51b82526105c4916004016113e7565b60606000611196836002611842565b6111a190600261168b565b67ffffffffffffffff8111156111b9576111b96113fa565b6040519080825280601f01601f1916602001820160405280156111e3576020820181803683370190505b509050600360fc1b816000815181106111fe576111fe61175b565b60200101906001600160f81b031916908160001a905350600f60fb1b8160018151811061122d5761122d61175b565b60200101906001600160f81b031916908160001a9053506000611251846002611842565b61125c90600161168b565b90505b60018111156112d4576f181899199a1a9b1b9c1cb0b131b232b360811b85600f16601081106112905761129061175b565b1a60f81b8282815181106112a6576112a661175b565b60200101906001600160f81b031916908160001a90535060049490941c936112cd81611861565b905061125f565b5083156113235760405162461bcd60e51b815260206004820181905260248201527f537472696e67733a20686578206c656e67746820696e73756666696369656e7460448201526064016105c4565b9392505050565b60006020828403121561133c57600080fd5b81356001600160e01b03198116811461132357600080fd5b80356001600160a01b038116811461136b57600080fd5b919050565b60006020828403121561138257600080fd5b61132382611354565b60005b838110156113a657818101518382015260200161138e565b838111156113b5576000848401525b50505050565b600081518084526113d381602086016020860161138b565b601f01601f19169290920160200192915050565b60208152600061132360208301846113bb565b634e487b7160e01b600052604160045260246000fd5b604051601f8201601f1916810167ffffffffffffffff81118282101715611439576114396113fa565b604052919050565b600067ffffffffffffffff83111561145b5761145b6113fa565b61146e601f8401601f1916602001611410565b905082815283838301111561148257600080fd5b828260208301376000602084830101529392505050565b600080600080600060a086880312156114b157600080fd5b6114ba86611354565b9450602086013567ffffffffffffffff8111156114d657600080fd5b8601601f810188136114e757600080fd5b6114f688823560208401611441565b9450506040860135925060608601359150608086013560ff8116811461151b57600080fd5b809150509295509295909350565b60006020828403121561153b57600080fd5b5035919050565b6000806040838503121561155557600080fd5b8235915061156560208401611354565b90509250929050565b600080600080600060a0868803121561158657600080fd5b853567ffffffffffffffff8082111561159e57600080fd5b818801915088601f8301126115b257600080fd5b60206115c28a8435838601611441565b97508089013596506115d660408a01611354565b95506060890135945060808901359250818311156115f357600080fd5b828901925089601f84011261160757600080fd5b823582811115611619576116196113fa565b8060051b925061162a828401611410565b818152928401820192828101908c85111561164457600080fd5b948301945b8486101561166257853582529483019490830190611649565b8096505050505050509295509295909350565b634e487b7160e01b600052601160045260246000fd5b6000821982111561169e5761169e611675565b500190565b6001600160a01b038481168252831660208201526060604082018190526000906116cf908301846113bb565b95945050505050565b600083516116ea81846020880161138b565b60609390931b6bffffffffffffffffffffffff19169190920190815260140192915050565b6000825161172181846020870161138b565b9190910192915050565b60008282101561173d5761173d611675565b500390565b60006001820161175457611754611675565b5060010190565b634e487b7160e01b600052603260045260246000fd5b60608152600061178460608301866113bb565b6020838101869052838203604085015284518083528582019282019060005b818110156117bf578451835293830193918301916001016117a3565b509098975050505050505050565b7f416363657373436f6e74726f6c3a206163636f756e742000000000000000000081526000835161180581601785016020880161138b565b7001034b99036b4b9b9b4b733903937b6329607d1b601791840191820152835161183681602884016020880161138b565b01602801949350505050565b600081600019048311821515161561185c5761185c611675565b500290565b60008161187057611870611675565b50600019019056fe4d6574615472616e73616374696f6e2875696e74323536206e6f6e63652c616464726573732066726f6d2c62797465732066756e6374696f6e5369676e617475726529a2646970667358221220aeb4cc689a1e64e487475f8f262516e31055445e467feae34d29a5d5634ef74b64736f6c634300080e0033454950373132446f6d61696e28737472696e67206e616d652c737472696e672076657273696f6e2c6164647265737320766572696679696e67436f6e74726163742c627974657333322073616c7429",
  "devdoc": {
    "kind": "dev",
    "methods": {
      "getRoleAdmin(bytes32)": {
        "details": "Returns the admin role that controls `role`. See {grantRole} and {revokeRole}. To change a role's admin, use {_setRoleAdmin}."
      },
      "grantRole(bytes32,address)": {
        "details": "Grants `role` to `account`. If `account` had not been already granted `role`, emits a {RoleGranted} event. Requirements: - the caller must have ``role``'s admin role."
      },
      "hasRole(bytes32,address)": {
        "details": "Returns `true` if `account` has been granted `role`."
      },
      "paused()": {
        "details": "Returns true if the contract is paused, and false otherwise."
      },
      "renounceRole(bytes32,address)": {
        "details": "Revokes `role` from the calling account. Roles are often managed via {grantRole} and {revokeRole}: this function's purpose is to provide a mechanism for accounts to lose their privileges if they are compromised (such as when a trusted device is misplaced). If the calling account had been revoked `role`, emits a {RoleRevoked} event. Requirements: - the caller must be `account`."
      },
      "revokeRole(bytes32,address)": {
        "details": "Revokes `role` from `account`. If `account` had been granted `role`, emits a {RoleRevoked} event. Requirements: - the caller must have ``role``'s admin role."
      },
      "supportsInterface(bytes4)": {
        "details": "See {IERC165-supportsInterface}."
      }
    },
    "version": 1
  },
  "userdoc": {
    "kind": "user",
    "methods": {},
    "version": 1
  },
  "storageLayout": {
    "storage": [
      {
        "astId": 24,
        "contract": "contracts/pre-launch-event/NFTCompound.sol:NFTCompound",
        "label": "_roles",
        "offset": 0,
        "slot": "0",
        "type": "t_mapping(t_bytes32,t_struct(RoleData)19_storage)"
      },
      {
        "astId": 534,
        "contract": "contracts/pre-launch-event/NFTCompound.sol:NFTCompound",
        "label": "_paused",
        "offset": 0,
        "slot": "1",
        "type": "t_bool"
      },
      {
        "astId": 619,
        "contract": "contracts/pre-launch-event/NFTCompound.sol:NFTCompound",
        "label": "_status",
        "offset": 0,
        "slot": "2",
        "type": "t_uint256"
      },
      {
        "astId": 6023,
        "contract": "contracts/pre-launch-event/NFTCompound.sol:NFTCompound",
        "label": "inited",
        "offset": 0,
        "slot": "3",
        "type": "t_bool"
      },
      {
        "astId": 5930,
        "contract": "contracts/pre-launch-event/NFTCompound.sol:NFTCompound",
        "label": "domainSeperator",
        "offset": 0,
        "slot": "4",
        "type": "t_bytes32"
      },
      {
        "astId": 6064,
        "contract": "contracts/pre-launch-event/NFTCompound.sol:NFTCompound",
        "label": "nonces",
        "offset": 0,
        "slot": "5",
        "type": "t_mapping(t_address,t_uint256)"
      },
      {
        "astId": 6579,
        "contract": "contracts/pre-launch-event/NFTCompound.sol:NFTCompound",
        "label": "admin",
        "offset": 0,
        "slot": "6",
        "type": "t_address"
      },
      {
        "astId": 6582,
        "contract": "contracts/pre-launch-event/NFTCompound.sol:NFTCompound",
        "label": "compoundLimitPerDay",
        "offset": 0,
        "slot": "7",
        "type": "t_uint256"
      },
      {
        "astId": 6586,
        "contract": "contracts/pre-launch-event/NFTCompound.sol:NFTCompound",
        "label": "mintAmount",
        "offset": 0,
        "slot": "8",
        "type": "t_mapping(t_address,t_uint256)"
      },
      {
        "astId": 6590,
        "contract": "contracts/pre-launch-event/NFTCompound.sol:NFTCompound",
        "label": "lastMint",
        "offset": 0,
        "slot": "9",
        "type": "t_mapping(t_address,t_uint256)"
      }
    ],
    "types": {
      "t_address": {
        "encoding": "inplace",
        "label": "address",
        "numberOfBytes": "20"
      },
      "t_bool": {
        "encoding": "inplace",
        "label": "bool",
        "numberOfBytes": "1"
      },
      "t_bytes32": {
        "encoding": "inplace",
        "label": "bytes32",
        "numberOfBytes": "32"
      },
      "t_mapping(t_address,t_bool)": {
        "encoding": "mapping",
        "key": "t_address",
        "label": "mapping(address => bool)",
        "numberOfBytes": "32",
        "value": "t_bool"
      },
      "t_mapping(t_address,t_uint256)": {
        "encoding": "mapping",
        "key": "t_address",
        "label": "mapping(address => uint256)",
        "numberOfBytes": "32",
        "value": "t_uint256"
      },
      "t_mapping(t_bytes32,t_struct(RoleData)19_storage)": {
        "encoding": "mapping",
        "key": "t_bytes32",
        "label": "mapping(bytes32 => struct AccessControl.RoleData)",
        "numberOfBytes": "32",
        "value": "t_struct(RoleData)19_storage"
      },
      "t_struct(RoleData)19_storage": {
        "encoding": "inplace",
        "label": "struct AccessControl.RoleData",
        "members": [
          {
            "astId": 16,
            "contract": "contracts/pre-launch-event/NFTCompound.sol:NFTCompound",
            "label": "members",
            "offset": 0,
            "slot": "0",
            "type": "t_mapping(t_address,t_bool)"
          },
          {
            "astId": 18,
            "contract": "contracts/pre-launch-event/NFTCompound.sol:NFTCompound",
            "label": "adminRole",
            "offset": 0,
            "slot": "1",
            "type": "t_bytes32"
          }
        ],
        "numberOfBytes": "64"
      },
      "t_uint256": {
        "encoding": "inplace",
        "label": "uint256",
        "numberOfBytes": "32"
      }
    }
  }
}