{
  "address": "0xfBdF255Bccd4110e6Ee9e4Ebc2436ECf25599B72",
  "abi": [
    {
      "inputs": [
        {
          "internalType": "contract IPlaybuxQuestNFT",
          "name": "_nft",
          "type": "address"
        },
        {
          "internalType": "address",
          "name": "_admin",
          "type": "address"
        }
      ],
      "stateMutability": "nonpayable",
      "type": "constructor"
    },
    {
      "anonymous": false,
      "inputs": [
        {
          "indexed": false,
          "internalType": "address",
          "name": "oldAdmin",
          "type": "address"
        },
        {
          "indexed": false,
          "internalType": "address",
          "name": "newAdmin",
          "type": "address"
        }
      ],
      "name": "AdminChanged",
      "type": "event"
    },
    {
      "anonymous": false,
      "inputs": [
        {
          "indexed": false,
          "internalType": "address",
          "name": "userAddress",
          "type": "address"
        },
        {
          "indexed": false,
          "internalType": "address payable",
          "name": "relayerAddress",
          "type": "address"
        },
        {
          "indexed": false,
          "internalType": "bytes",
          "name": "functionSignature",
          "type": "bytes"
        }
      ],
      "name": "MetaTransactionExecuted",
      "type": "event"
    },
    {
      "anonymous": false,
      "inputs": [
        {
          "indexed": false,
          "internalType": "string",
          "name": "_transactionId",
          "type": "string"
        },
        {
          "indexed": true,
          "internalType": "address",
          "name": "_receiver",
          "type": "address"
        },
        {
          "indexed": false,
          "internalType": "uint256",
          "name": "_value",
          "type": "uint256"
        },
        {
          "indexed": false,
          "internalType": "uint256",
          "name": "_type",
          "type": "uint256"
        }
      ],
      "name": "Mint",
      "type": "event"
    },
    {
      "anonymous": false,
      "inputs": [
        {
          "indexed": false,
          "internalType": "uint256",
          "name": "oldLimit",
          "type": "uint256"
        },
        {
          "indexed": false,
          "internalType": "uint256",
          "name": "newLimit",
          "type": "uint256"
        }
      ],
      "name": "MintLimitPerDayChanged",
      "type": "event"
    },
    {
      "anonymous": false,
      "inputs": [
        {
          "indexed": false,
          "internalType": "address",
          "name": "account",
          "type": "address"
        }
      ],
      "name": "Paused",
      "type": "event"
    },
    {
      "anonymous": false,
      "inputs": [
        {
          "indexed": true,
          "internalType": "bytes32",
          "name": "role",
          "type": "bytes32"
        },
        {
          "indexed": true,
          "internalType": "bytes32",
          "name": "previousAdminRole",
          "type": "bytes32"
        },
        {
          "indexed": true,
          "internalType": "bytes32",
          "name": "newAdminRole",
          "type": "bytes32"
        }
      ],
      "name": "RoleAdminChanged",
      "type": "event"
    },
    {
      "anonymous": false,
      "inputs": [
        {
          "indexed": true,
          "internalType": "bytes32",
          "name": "role",
          "type": "bytes32"
        },
        {
          "indexed": true,
          "internalType": "address",
          "name": "account",
          "type": "address"
        },
        {
          "indexed": true,
          "internalType": "address",
          "name": "sender",
          "type": "address"
        }
      ],
      "name": "RoleGranted",
      "type": "event"
    },
    {
      "anonymous": false,
      "inputs": [
        {
          "indexed": true,
          "internalType": "bytes32",
          "name": "role",
          "type": "bytes32"
        },
        {
          "indexed": true,
          "internalType": "address",
          "name": "account",
          "type": "address"
        },
        {
          "indexed": true,
          "internalType": "address",
          "name": "sender",
          "type": "address"
        }
      ],
      "name": "RoleRevoked",
      "type": "event"
    },
    {
      "anonymous": false,
      "inputs": [
        {
          "indexed": false,
          "internalType": "address",
          "name": "account",
          "type": "address"
        }
      ],
      "name": "Unpaused",
      "type": "event"
    },
    {
      "stateMutability": "nonpayable",
      "type": "fallback"
    },
    {
      "inputs": [],
      "name": "BLOCK_PER_DAY",
      "outputs": [
        {
          "internalType": "uint256",
          "name": "",
          "type": "uint256"
        }
      ],
      "stateMutability": "view",
      "type": "function"
    },
    {
      "inputs": [],
      "name": "DEFAULT_ADMIN_ROLE",
      "outputs": [
        {
          "internalType": "bytes32",
          "name": "",
          "type": "bytes32"
        }
      ],
      "stateMutability": "view",
      "type": "function"
    },
    {
      "inputs": [],
      "name": "ERC712_VERSION",
      "outputs": [
        {
          "internalType": "string",
          "name": "",
          "type": "string"
        }
      ],
      "stateMutability": "view",
      "type": "function"
    },
    {
      "inputs": [],
      "name": "admin",
      "outputs": [
        {
          "internalType": "address",
          "name": "",
          "type": "address"
        }
      ],
      "stateMutability": "view",
      "type": "function"
    },
    {
      "inputs": [
        {
          "internalType": "address",
          "name": "userAddress",
          "type": "address"
        },
        {
          "internalType": "bytes",
          "name": "functionSignature",
          "type": "bytes"
        },
        {
          "internalType": "bytes32",
          "name": "sigR",
          "type": "bytes32"
        },
        {
          "internalType": "bytes32",
          "name": "sigS",
          "type": "bytes32"
        },
        {
          "internalType": "uint8",
          "name": "sigV",
          "type": "uint8"
        }
      ],
      "name": "executeMetaTransaction",
      "outputs": [
        {
          "internalType": "bytes",
          "name": "",
          "type": "bytes"
        }
      ],
      "stateMutability": "payable",
      "type": "function"
    },
    {
      "inputs": [],
      "name": "getChainId",
      "outputs": [
        {
          "internalType": "uint256",
          "name": "",
          "type": "uint256"
        }
      ],
      "stateMutability": "view",
      "type": "function"
    },
    {
      "inputs": [],
      "name": "getDomainSeperator",
      "outputs": [
        {
          "internalType": "bytes32",
          "name": "",
          "type": "bytes32"
        }
      ],
      "stateMutability": "view",
      "type": "function"
    },
    {
      "inputs": [
        {
          "internalType": "address",
          "name": "user",
          "type": "address"
        }
      ],
      "name": "getNonce",
      "outputs": [
        {
          "internalType": "uint256",
          "name": "nonce",
          "type": "uint256"
        }
      ],
      "stateMutability": "view",
      "type": "function"
    },
    {
      "inputs": [
        {
          "internalType": "bytes32",
          "name": "role",
          "type": "bytes32"
        }
      ],
      "name": "getRoleAdmin",
      "outputs": [
        {
          "internalType": "bytes32",
          "name": "",
          "type": "bytes32"
        }
      ],
      "stateMutability": "view",
      "type": "function"
    },
    {
      "inputs": [
        {
          "internalType": "bytes32",
          "name": "role",
          "type": "bytes32"
        },
        {
          "internalType": "address",
          "name": "account",
          "type": "address"
        }
      ],
      "name": "grantRole",
      "outputs": [],
      "stateMutability": "nonpayable",
      "type": "function"
    },
    {
      "inputs": [
        {
          "internalType": "bytes32",
          "name": "role",
          "type": "bytes32"
        },
        {
          "internalType": "address",
          "name": "account",
          "type": "address"
        }
      ],
      "name": "hasRole",
      "outputs": [
        {
          "internalType": "bool",
          "name": "",
          "type": "bool"
        }
      ],
      "stateMutability": "view",
      "type": "function"
    },
    {
      "inputs": [
        {
          "internalType": "address",
          "name": "",
          "type": "address"
        }
      ],
      "name": "lastMint",
      "outputs": [
        {
          "internalType": "uint256",
          "name": "",
          "type": "uint256"
        }
      ],
      "stateMutability": "view",
      "type": "function"
    },
    {
      "inputs": [
        {
          "internalType": "string",
          "name": "_transactionId",
          "type": "string"
        },
        {
          "internalType": "uint256",
          "name": "_expirationBlock",
          "type": "uint256"
        },
        {
          "internalType": "address",
          "name": "_receiver",
          "type": "address"
        },
        {
          "internalType": "uint256",
          "name": "_amount",
          "type": "uint256"
        },
        {
          "internalType": "uint256",
          "name": "_type",
          "type": "uint256"
        }
      ],
      "name": "mint",
      "outputs": [],
      "stateMutability": "nonpayable",
      "type": "function"
    },
    {
      "inputs": [
        {
          "internalType": "address",
          "name": "",
          "type": "address"
        }
      ],
      "name": "mintAmount",
      "outputs": [
        {
          "internalType": "uint256",
          "name": "",
          "type": "uint256"
        }
      ],
      "stateMutability": "view",
      "type": "function"
    },
    {
      "inputs": [],
      "name": "mintLimitPerDay",
      "outputs": [
        {
          "internalType": "uint256",
          "name": "",
          "type": "uint256"
        }
      ],
      "stateMutability": "view",
      "type": "function"
    },
    {
      "inputs": [],
      "name": "name",
      "outputs": [
        {
          "internalType": "string",
          "name": "",
          "type": "string"
        }
      ],
      "stateMutability": "view",
      "type": "function"
    },
    {
      "inputs": [],
      "name": "nft",
      "outputs": [
        {
          "internalType": "contract IPlaybuxQuestNFT",
          "name": "",
          "type": "address"
        }
      ],
      "stateMutability": "view",
      "type": "function"
    },
    {
      "inputs": [],
      "name": "pause",
      "outputs": [],
      "stateMutability": "nonpayable",
      "type": "function"
    },
    {
      "inputs": [],
      "name": "paused",
      "outputs": [
        {
          "internalType": "bool",
          "name": "",
          "type": "bool"
        }
      ],
      "stateMutability": "view",
      "type": "function"
    },
    {
      "inputs": [
        {
          "internalType": "bytes32",
          "name": "role",
          "type": "bytes32"
        },
        {
          "internalType": "address",
          "name": "account",
          "type": "address"
        }
      ],
      "name": "renounceRole",
      "outputs": [],
      "stateMutability": "nonpayable",
      "type": "function"
    },
    {
      "inputs": [
        {
          "internalType": "bytes32",
          "name": "role",
          "type": "bytes32"
        },
        {
          "internalType": "address",
          "name": "account",
          "type": "address"
        }
      ],
      "name": "revokeRole",
      "outputs": [],
      "stateMutability": "nonpayable",
      "type": "function"
    },
    {
      "inputs": [
        {
          "internalType": "address",
          "name": "_admin",
          "type": "address"
        }
      ],
      "name": "setAdmin",
      "outputs": [],
      "stateMutability": "nonpayable",
      "type": "function"
    },
    {
      "inputs": [
        {
          "internalType": "uint256",
          "name": "_limit",
          "type": "uint256"
        }
      ],
      "name": "setMintLimitPerDay",
      "outputs": [],
      "stateMutability": "nonpayable",
      "type": "function"
    },
    {
      "inputs": [
        {
          "internalType": "bytes4",
          "name": "interfaceId",
          "type": "bytes4"
        }
      ],
      "name": "supportsInterface",
      "outputs": [
        {
          "internalType": "bool",
          "name": "",
          "type": "bool"
        }
      ],
      "stateMutability": "view",
      "type": "function"
    },
    {
      "inputs": [],
      "name": "unpause",
      "outputs": [],
      "stateMutability": "nonpayable",
      "type": "function"
    }
  ],
  "transactionHash": "0x084730a8241b92942c20f911edba096d1a191785cec18f045485ce92adaf735f",
  "args": [
    "0xF3C58f45Ac92B04D53f830509bDEb0Ca6fBBed85",
    "0xff022DFA9AA618796F198d152B972a4C62349628"
  ],
  "numDeployments": 7,
  "solcInputHash": "35e2fa906b195a309916037304004422",
  "bytecode": "0x60a06040526003805460ff19169055600a6007553480156200002057600080fd5b5060405162001c3638038062001c368339810160408190526200004391620003b5565b6001805460ff191681556002556001600160a01b03828116608052600680546001600160a01b0319169183169190911790556200008b600062000085620000dc565b620000f8565b60408051808201909152601381527f506c6179627578204e465420466163746f7279000000000000000000000000006020820152620000ca906200019b565b620000d462000200565b5050620003f4565b6000620000f36200029c60201b62000ca11760201c565b905090565b6000828152602081815260408083206001600160a01b038516845290915290205460ff1662000197576000828152602081815260408083206001600160a01b03851684529091529020805460ff1916600117905562000156620000dc565b6001600160a01b0316816001600160a01b0316837f2f8788117e7eff1d82e926ec794901d17c78024a50270940304540a733656f0d60405160405180910390a45b5050565b60035460ff1615620001e55760405162461bcd60e51b815260206004820152600e60248201526d185b1c9958591e481a5b9a5d195960921b60448201526064015b60405180910390fd5b620001f081620002fa565b506003805460ff19166001179055565b60015460ff1615620002485760405162461bcd60e51b815260206004820152601060248201526f14185d5cd8589b194e881c185d5cd95960821b6044820152606401620001dc565b6001805460ff1916811790557f62e78cea01bee320cd4e420270b5ea74000d11b0c9f74754ebdbfc544b05a2586200027f620000dc565b6040516001600160a01b03909116815260200160405180910390a1565b6000303303620002f457600080368080601f0160208091040260200160405190810160405280939291908181526020018383808284376000920191909152505050503601516001600160a01b03169150620002f79050565b50335b90565b6040518060800160405280604f815260200162001be7604f9139805160209182012082519282019290922060408051808201825260018152603160f81b90840152805180840194909452838101919091527fc89efdaa54c0f20c7adf612882df0950f5a951637e0307cdcb4c672f298b8bc660608401523060808401524660a0808501919091528151808503909101815260c090930190528151910120600455565b6001600160a01b0381168114620003b257600080fd5b50565b60008060408385031215620003c957600080fd5b8251620003d6816200039c565b6020840151909250620003e9816200039c565b809150509250929050565b6080516117d0620004176000396000818161039b0152610ac801526117d06000f3fe6080604052600436106101665760003560e01c80633f4ba83a116100d15780638456cb591161008a578063adc20b1c11610064578063adc20b1c14610477578063d547741f146104a4578063d970e674146104c4578063f851a440146104da57610166565b80638456cb591461042d57806391d1485414610442578063a217fddf1461046257610166565b80633f4ba83a146103545780634328fde81461036957806347ccca02146103895780635c975abb146103d5578063704b6c02146103ed5780637b76180a1461040d57610166565b8063248a9ca311610123578063248a9ca3146102855780632d0335ab146102b55780632f2ff15d146102eb57806332557e8f1461030b5780633408e4701461032157806336568abe1461033457610166565b806301ffc9a714610174578063055d822c146101a957806306fdde03146101e45780630c53c51c146102305780630f7e59701461024357806320379ee514610270575b34801561017257600080fd5b005b34801561018057600080fd5b5061019461018f3660046112dd565b6104fa565b60405190151581526020015b60405180910390f35b3480156101b557600080fd5b506101d66101c4366004611323565b60086020526000908152604090205481565b6040519081526020016101a0565b3480156101f057600080fd5b5061022360405180604001604052806013815260200172506c6179627578204e465420466163746f727960681b81525081565b6040516101a0919061139a565b61022361023e366004611439565b610531565b34801561024f57600080fd5b50610223604051806040016040528060018152602001603160f81b81525081565b34801561027c57600080fd5b506004546101d6565b34801561029157600080fd5b506101d66102a03660046114c9565b60009081526020819052604090206001015490565b3480156102c157600080fd5b506101d66102d0366004611323565b6001600160a01b031660009081526005602052604090205490565b3480156102f757600080fd5b506101726103063660046114e2565b610710565b34801561031757600080fd5b506101d660075481565b34801561032d57600080fd5b50466101d6565b34801561034057600080fd5b5061017261034f3660046114e2565b61073a565b34801561036057600080fd5b506101726107c8565b34801561037557600080fd5b5061017261038436600461150e565b6107de565b34801561039557600080fd5b506103bd7f000000000000000000000000000000000000000000000000000000000000000081565b6040516001600160a01b0390911681526020016101a0565b3480156103e157600080fd5b5060015460ff16610194565b3480156103f957600080fd5b50610172610408366004611323565b610b89565b34801561041957600080fd5b506101726104283660046114c9565b610bf7565b34801561043957600080fd5b50610172610c40565b34801561044e57600080fd5b5061019461045d3660046114e2565b610c53565b34801561046e57600080fd5b506101d6600081565b34801561048357600080fd5b506101d6610492366004611323565b60096020526000908152604090205481565b3480156104b057600080fd5b506101726104bf3660046114e2565b610c7c565b3480156104d057600080fd5b506101d6616d6081565b3480156104e657600080fd5b506006546103bd906001600160a01b031681565b60006001600160e01b03198216637965db0b60e01b148061052b57506301ffc9a760e01b6001600160e01b03198316145b92915050565b604080516060818101835233600090815260056020908152908490205483526001600160a01b038916908301529181018690526105718782878787610cfd565b6105cc5760405162461bcd60e51b815260206004820152602160248201527f5369676e657220616e64207369676e617475726520646f206e6f74206d6174636044820152600d60fb1b60648201526084015b60405180910390fd5b336000908152600560205260409020546105e79060016115a1565b33600081815260056020526040908190209290925590517f5845892132946850460bff5a0083f71031bc5bf9aadcd40f1de79423eac9b10b9161062e918a91908a906115b9565b60405180910390a1600080306001600160a01b0316888a6040516020016106569291906115ee565b60408051601f198184030181529082905261067091611625565b6000604051808303816000865af19150503d80600081146106ad576040519150601f19603f3d011682016040523d82523d6000602084013e6106b2565b606091505b5091509150816107045760405162461bcd60e51b815260206004820152601c60248201527f46756e6374696f6e2063616c6c206e6f74207375636365737366756c0000000060448201526064016105c3565b98975050505050505050565b60008281526020819052604090206001015461072b81610ded565b6107358383610dfe565b505050565b610742610e83565b6001600160a01b0316816001600160a01b0316146107ba5760405162461bcd60e51b815260206004820152602f60248201527f416363657373436f6e74726f6c3a2063616e206f6e6c792072656e6f756e636560448201526e103937b632b9903337b91039b2b63360891b60648201526084016105c3565b6107c48282610e92565b5050565b60006107d381610ded565b6107db610f15565b50565b600280540361082f5760405162461bcd60e51b815260206004820152601f60248201527f5265656e7472616e637947756172643a207265656e7472616e742063616c6c0060448201526064016105c3565b6002805560015460ff16156108795760405162461bcd60e51b815260206004820152601060248201526f14185d5cd8589b194e881c185d5cd95960821b60448201526064016105c3565b6006546001600160a01b031661088d610e83565b6001600160a01b0316146108ed5760405162461bcd60e51b815260206004820152602160248201527f4f6e6c792061646d696e2063616e2063616c6c20746869732066756e6374696f6044820152603760f91b60648201526084016105c3565b83431061093c5760405162461bcd60e51b815260206004820152601b60248201527f4d657461207472616e73616374696f6e2069732065787069726564000000000060448201526064016105c3565b6001600160a01b038316600090815260096020526040902054616d60906109639043611641565b11156109d2576007548211156109b45760405162461bcd60e51b8152602060048201526016602482015275135a5b9d1a5b99c81b1a5b5a5d08195e18d95959195960521b60448201526064016105c3565b6001600160a01b038316600090815260086020526040812055610a51565b6007546001600160a01b0384166000908152600860205260409020546109f99084906115a1565b1115610a515760405162461bcd60e51b815260206004820152602160248201527f4d696e74696e67206c696d6974207065722064617920697320657863656564656044820152601960fa1b60648201526084016105c3565b6001600160a01b03831660009081526008602052604081208054849290610a799084906115a1565b90915550506001600160a01b03831660009081526009602052604081204390555b82811015610b37576040516308934a5f60e31b81526001600160a01b038581166004830152602482018490527f0000000000000000000000000000000000000000000000000000000000000000169063449a52f890604401600060405180830381600087803b158015610b0c57600080fd5b505af1158015610b20573d6000803e3d6000fd5b505050508080610b2f90611658565b915050610a9a565b50826001600160a01b03167f26ce24875e81dcbb8c38978870f0de6c60b2e94c388bbf65ea4cdcc7005db4ac868484604051610b7593929190611671565b60405180910390a250506001600255505050565b6000610b9481610ded565b600680546001600160a01b038481166001600160a01b031983168117909355604080519190921680825260208201939093527f7e644d79422f17c01e4894b5f4f588d331ebfa28653d42ae832dc59e38c9798f91015b60405180910390a1505050565b6000610c0281610ded565b600780549083905560408051828152602081018590527fb2cfce4e5c5eb5bd545569789706188a2f59f05eb0f01a56899de29e7f0920c59101610bea565b6000610c4b81610ded565b6107db610fae565b6000918252602082815260408084206001600160a01b0393909316845291905290205460ff1690565b600082815260208190526040902060010154610c9781610ded565b6107358383610e92565b6000303303610cf757600080368080601f0160208091040260200160405190810160405280939291908181526020018383808284376000920191909152505050503601516001600160a01b03169150610cfa9050565b50335b90565b60006001600160a01b038616610d635760405162461bcd60e51b815260206004820152602560248201527f4e61746976654d6574615472616e73616374696f6e3a20494e56414c49445f5360448201526424a3a722a960d91b60648201526084016105c3565b6001610d76610d7187611029565b6110a6565b6040805160008152602081018083529290925260ff851690820152606081018690526080810185905260a0016020604051602081039080840390855afa158015610dc4573d6000803e3d6000fd5b505050602060405103516001600160a01b0316866001600160a01b031614905095945050505050565b6107db81610df9610e83565b6110d6565b610e088282610c53565b6107c4576000828152602081815260408083206001600160a01b03851684529091529020805460ff19166001179055610e3f610e83565b6001600160a01b0316816001600160a01b0316837f2f8788117e7eff1d82e926ec794901d17c78024a50270940304540a733656f0d60405160405180910390a45050565b6000610e8d610ca1565b905090565b610e9c8282610c53565b156107c4576000828152602081815260408083206001600160a01b03851684529091529020805460ff19169055610ed1610e83565b6001600160a01b0316816001600160a01b0316837ff6391f5c32d9c69d2a47ea670b442974b53935d1edc7fd64eb21e047a839171b60405160405180910390a45050565b60015460ff16610f5e5760405162461bcd60e51b815260206004820152601460248201527314185d5cd8589b194e881b9bdd081c185d5cd95960621b60448201526064016105c3565b6001805460ff191690557f5db9ee0a495bf2e6ff9c91a7834c1ba4fdd244a5e8aa4e537bd38aeae4b073aa610f91610e83565b6040516001600160a01b03909116815260200160405180910390a1565b60015460ff1615610ff45760405162461bcd60e51b815260206004820152601060248201526f14185d5cd8589b194e881c185d5cd95960821b60448201526064016105c3565b6001805460ff1916811790557f62e78cea01bee320cd4e420270b5ea74000d11b0c9f74754ebdbfc544b05a258610f91610e83565b60006040518060800160405280604381526020016117586043913980516020918201208351848301516040808701518051908601209051611089950193845260208401929092526001600160a01b03166040830152606082015260800190565b604051602081830303815290604052805190602001209050919050565b60006110b160045490565b60405161190160f01b6020820152602281019190915260428101839052606201611089565b6110e08282610c53565b6107c4576110f8816001600160a01b0316601461113a565b61110383602061113a565b604051602001611114929190611696565b60408051601f198184030181529082905262461bcd60e51b82526105c39160040161139a565b6060600061114983600261170b565b6111549060026115a1565b67ffffffffffffffff81111561116c5761116c6113ad565b6040519080825280601f01601f191660200182016040528015611196576020820181803683370190505b509050600360fc1b816000815181106111b1576111b161172a565b60200101906001600160f81b031916908160001a905350600f60fb1b816001815181106111e0576111e061172a565b60200101906001600160f81b031916908160001a905350600061120484600261170b565b61120f9060016115a1565b90505b6001811115611287576f181899199a1a9b1b9c1cb0b131b232b360811b85600f16601081106112435761124361172a565b1a60f81b8282815181106112595761125961172a565b60200101906001600160f81b031916908160001a90535060049490941c9361128081611740565b9050611212565b5083156112d65760405162461bcd60e51b815260206004820181905260248201527f537472696e67733a20686578206c656e67746820696e73756666696369656e7460448201526064016105c3565b9392505050565b6000602082840312156112ef57600080fd5b81356001600160e01b0319811681146112d657600080fd5b80356001600160a01b038116811461131e57600080fd5b919050565b60006020828403121561133557600080fd5b6112d682611307565b60005b83811015611359578181015183820152602001611341565b83811115611368576000848401525b50505050565b6000815180845261138681602086016020860161133e565b601f01601f19169290920160200192915050565b6020815260006112d6602083018461136e565b634e487b7160e01b600052604160045260246000fd5b600067ffffffffffffffff808411156113de576113de6113ad565b604051601f8501601f19908116603f01168101908282118183101715611406576114066113ad565b8160405280935085815286868601111561141f57600080fd5b858560208301376000602087830101525050509392505050565b600080600080600060a0868803121561145157600080fd5b61145a86611307565b9450602086013567ffffffffffffffff81111561147657600080fd5b8601601f8101881361148757600080fd5b611496888235602084016113c3565b9450506040860135925060608601359150608086013560ff811681146114bb57600080fd5b809150509295509295909350565b6000602082840312156114db57600080fd5b5035919050565b600080604083850312156114f557600080fd5b8235915061150560208401611307565b90509250929050565b600080600080600060a0868803121561152657600080fd5b853567ffffffffffffffff81111561153d57600080fd5b8601601f8101881361154e57600080fd5b61155d888235602084016113c3565b9550506020860135935061157360408701611307565b94979396509394606081013594506080013592915050565b634e487b7160e01b600052601160045260246000fd5b600082198211156115b4576115b461158b565b500190565b6001600160a01b038481168252831660208201526060604082018190526000906115e59083018461136e565b95945050505050565b6000835161160081846020880161133e565b60609390931b6bffffffffffffffffffffffff19169190920190815260140192915050565b6000825161163781846020870161133e565b9190910192915050565b6000828210156116535761165361158b565b500390565b60006001820161166a5761166a61158b565b5060010190565b606081526000611684606083018661136e565b60208301949094525060400152919050565b7f416363657373436f6e74726f6c3a206163636f756e74200000000000000000008152600083516116ce81601785016020880161133e565b7001034b99036b4b9b9b4b733903937b6329607d1b60179184019182015283516116ff81602884016020880161133e565b01602801949350505050565b60008160001904831182151516156117255761172561158b565b500290565b634e487b7160e01b600052603260045260246000fd5b60008161174f5761174f61158b565b50600019019056fe4d6574615472616e73616374696f6e2875696e74323536206e6f6e63652c616464726573732066726f6d2c62797465732066756e6374696f6e5369676e617475726529a26469706673582212204a13f7602944908211b3c477d53a348e7be4a49760302c59a86a34845a383f3764736f6c634300080e0033454950373132446f6d61696e28737472696e67206e616d652c737472696e672076657273696f6e2c6164647265737320766572696679696e67436f6e74726163742c627974657333322073616c7429",
  "devdoc": {
    "kind": "dev",
    "methods": {
      "getRoleAdmin(bytes32)": {
        "details": "Returns the admin role that controls `role`. See {grantRole} and {revokeRole}. To change a role's admin, use {_setRoleAdmin}."
      },
      "grantRole(bytes32,address)": {
        "details": "Grants `role` to `account`. If `account` had not been already granted `role`, emits a {RoleGranted} event. Requirements: - the caller must have ``role``'s admin role."
      },
      "hasRole(bytes32,address)": {
        "details": "Returns `true` if `account` has been granted `role`."
      },
      "paused()": {
        "details": "Returns true if the contract is paused, and false otherwise."
      },
      "renounceRole(bytes32,address)": {
        "details": "Revokes `role` from the calling account. Roles are often managed via {grantRole} and {revokeRole}: this function's purpose is to provide a mechanism for accounts to lose their privileges if they are compromised (such as when a trusted device is misplaced). If the calling account had been revoked `role`, emits a {RoleRevoked} event. Requirements: - the caller must be `account`."
      },
      "revokeRole(bytes32,address)": {
        "details": "Revokes `role` from `account`. If `account` had been granted `role`, emits a {RoleRevoked} event. Requirements: - the caller must have ``role``'s admin role."
      },
      "supportsInterface(bytes4)": {
        "details": "See {IERC165-supportsInterface}."
      }
    },
    "version": 1
  },
  "userdoc": {
    "kind": "user",
    "methods": {},
    "version": 1
  },
  "storageLayout": {
    "storage": [
      {
        "astId": 24,
        "contract": "contracts/pre-launch-event/NFTFactory.sol:NFTFactory",
        "label": "_roles",
        "offset": 0,
        "slot": "0",
        "type": "t_mapping(t_bytes32,t_struct(RoleData)19_storage)"
      },
      {
        "astId": 534,
        "contract": "contracts/pre-launch-event/NFTFactory.sol:NFTFactory",
        "label": "_paused",
        "offset": 0,
        "slot": "1",
        "type": "t_bool"
      },
      {
        "astId": 619,
        "contract": "contracts/pre-launch-event/NFTFactory.sol:NFTFactory",
        "label": "_status",
        "offset": 0,
        "slot": "2",
        "type": "t_uint256"
      },
      {
        "astId": 6023,
        "contract": "contracts/pre-launch-event/NFTFactory.sol:NFTFactory",
        "label": "inited",
        "offset": 0,
        "slot": "3",
        "type": "t_bool"
      },
      {
        "astId": 5930,
        "contract": "contracts/pre-launch-event/NFTFactory.sol:NFTFactory",
        "label": "domainSeperator",
        "offset": 0,
        "slot": "4",
        "type": "t_bytes32"
      },
      {
        "astId": 6064,
        "contract": "contracts/pre-launch-event/NFTFactory.sol:NFTFactory",
        "label": "nonces",
        "offset": 0,
        "slot": "5",
        "type": "t_mapping(t_address,t_uint256)"
      },
      {
        "astId": 6873,
        "contract": "contracts/pre-launch-event/NFTFactory.sol:NFTFactory",
        "label": "admin",
        "offset": 0,
        "slot": "6",
        "type": "t_address"
      },
      {
        "astId": 6876,
        "contract": "contracts/pre-launch-event/NFTFactory.sol:NFTFactory",
        "label": "mintLimitPerDay",
        "offset": 0,
        "slot": "7",
        "type": "t_uint256"
      },
      {
        "astId": 6880,
        "contract": "contracts/pre-launch-event/NFTFactory.sol:NFTFactory",
        "label": "mintAmount",
        "offset": 0,
        "slot": "8",
        "type": "t_mapping(t_address,t_uint256)"
      },
      {
        "astId": 6884,
        "contract": "contracts/pre-launch-event/NFTFactory.sol:NFTFactory",
        "label": "lastMint",
        "offset": 0,
        "slot": "9",
        "type": "t_mapping(t_address,t_uint256)"
      }
    ],
    "types": {
      "t_address": {
        "encoding": "inplace",
        "label": "address",
        "numberOfBytes": "20"
      },
      "t_bool": {
        "encoding": "inplace",
        "label": "bool",
        "numberOfBytes": "1"
      },
      "t_bytes32": {
        "encoding": "inplace",
        "label": "bytes32",
        "numberOfBytes": "32"
      },
      "t_mapping(t_address,t_bool)": {
        "encoding": "mapping",
        "key": "t_address",
        "label": "mapping(address => bool)",
        "numberOfBytes": "32",
        "value": "t_bool"
      },
      "t_mapping(t_address,t_uint256)": {
        "encoding": "mapping",
        "key": "t_address",
        "label": "mapping(address => uint256)",
        "numberOfBytes": "32",
        "value": "t_uint256"
      },
      "t_mapping(t_bytes32,t_struct(RoleData)19_storage)": {
        "encoding": "mapping",
        "key": "t_bytes32",
        "label": "mapping(bytes32 => struct AccessControl.RoleData)",
        "numberOfBytes": "32",
        "value": "t_struct(RoleData)19_storage"
      },
      "t_struct(RoleData)19_storage": {
        "encoding": "inplace",
        "label": "struct AccessControl.RoleData",
        "members": [
          {
            "astId": 16,
            "contract": "contracts/pre-launch-event/NFTFactory.sol:NFTFactory",
            "label": "members",
            "offset": 0,
            "slot": "0",
            "type": "t_mapping(t_address,t_bool)"
          },
          {
            "astId": 18,
            "contract": "contracts/pre-launch-event/NFTFactory.sol:NFTFactory",
            "label": "adminRole",
            "offset": 0,
            "slot": "1",
            "type": "t_bytes32"
          }
        ],
        "numberOfBytes": "64"
      },
      "t_uint256": {
        "encoding": "inplace",
        "label": "uint256",
        "numberOfBytes": "32"
      }
    }
  }
}