{
  "address": "0x10ddf53f00A0685b610a2ff2b839E7C8A2CD0Be6",
  "abi": [
    {
      "inputs": [
        {
          "internalType": "contract IERC20",
          "name": "_busd",
          "type": "address"
        },
        {
          "internalType": "contract IOneDayCashbackNFT",
          "name": "_oneDayNFT",
          "type": "address"
        }
      ],
      "stateMutability": "nonpayable",
      "type": "constructor"
    },
    {
      "anonymous": false,
      "inputs": [
        {
          "indexed": false,
          "internalType": "address",
          "name": "oldAdmin",
          "type": "address"
        },
        {
          "indexed": false,
          "internalType": "address",
          "name": "newAdmin",
          "type": "address"
        }
      ],
      "name": "AdminChanged",
      "type": "event"
    },
    {
      "anonymous": false,
      "inputs": [
        {
          "indexed": true,
          "internalType": "address",
          "name": "_receiver",
          "type": "address"
        }
      ],
      "name": "Mint",
      "type": "event"
    },
    {
      "anonymous": false,
      "inputs": [
        {
          "indexed": false,
          "internalType": "address",
          "name": "account",
          "type": "address"
        }
      ],
      "name": "Paused",
      "type": "event"
    },
    {
      "anonymous": false,
      "inputs": [
        {
          "indexed": true,
          "internalType": "bytes32",
          "name": "role",
          "type": "bytes32"
        },
        {
          "indexed": true,
          "internalType": "bytes32",
          "name": "previousAdminRole",
          "type": "bytes32"
        },
        {
          "indexed": true,
          "internalType": "bytes32",
          "name": "newAdminRole",
          "type": "bytes32"
        }
      ],
      "name": "RoleAdminChanged",
      "type": "event"
    },
    {
      "anonymous": false,
      "inputs": [
        {
          "indexed": true,
          "internalType": "bytes32",
          "name": "role",
          "type": "bytes32"
        },
        {
          "indexed": true,
          "internalType": "address",
          "name": "account",
          "type": "address"
        },
        {
          "indexed": true,
          "internalType": "address",
          "name": "sender",
          "type": "address"
        }
      ],
      "name": "RoleGranted",
      "type": "event"
    },
    {
      "anonymous": false,
      "inputs": [
        {
          "indexed": true,
          "internalType": "bytes32",
          "name": "role",
          "type": "bytes32"
        },
        {
          "indexed": true,
          "internalType": "address",
          "name": "account",
          "type": "address"
        },
        {
          "indexed": true,
          "internalType": "address",
          "name": "sender",
          "type": "address"
        }
      ],
      "name": "RoleRevoked",
      "type": "event"
    },
    {
      "anonymous": false,
      "inputs": [
        {
          "indexed": false,
          "internalType": "address",
          "name": "account",
          "type": "address"
        }
      ],
      "name": "Unpaused",
      "type": "event"
    },
    {
      "anonymous": false,
      "inputs": [
        {
          "indexed": true,
          "internalType": "address",
          "name": "_from",
          "type": "address"
        },
        {
          "indexed": false,
          "internalType": "uint256",
          "name": "_value",
          "type": "uint256"
        }
      ],
      "name": "Withdraw",
      "type": "event"
    },
    {
      "stateMutability": "nonpayable",
      "type": "fallback"
    },
    {
      "inputs": [],
      "name": "DEFAULT_ADMIN_ROLE",
      "outputs": [
        {
          "internalType": "bytes32",
          "name": "",
          "type": "bytes32"
        }
      ],
      "stateMutability": "view",
      "type": "function"
    },
    {
      "inputs": [],
      "name": "NFTPrice",
      "outputs": [
        {
          "internalType": "uint256",
          "name": "",
          "type": "uint256"
        }
      ],
      "stateMutability": "view",
      "type": "function"
    },
    {
      "inputs": [],
      "name": "busd",
      "outputs": [
        {
          "internalType": "contract IERC20",
          "name": "",
          "type": "address"
        }
      ],
      "stateMutability": "view",
      "type": "function"
    },
    {
      "inputs": [
        {
          "internalType": "bytes32",
          "name": "role",
          "type": "bytes32"
        }
      ],
      "name": "getRoleAdmin",
      "outputs": [
        {
          "internalType": "bytes32",
          "name": "",
          "type": "bytes32"
        }
      ],
      "stateMutability": "view",
      "type": "function"
    },
    {
      "inputs": [
        {
          "internalType": "bytes32",
          "name": "role",
          "type": "bytes32"
        },
        {
          "internalType": "address",
          "name": "account",
          "type": "address"
        }
      ],
      "name": "grantRole",
      "outputs": [],
      "stateMutability": "nonpayable",
      "type": "function"
    },
    {
      "inputs": [
        {
          "internalType": "bytes32",
          "name": "role",
          "type": "bytes32"
        },
        {
          "internalType": "address",
          "name": "account",
          "type": "address"
        }
      ],
      "name": "hasRole",
      "outputs": [
        {
          "internalType": "bool",
          "name": "",
          "type": "bool"
        }
      ],
      "stateMutability": "view",
      "type": "function"
    },
    {
      "inputs": [
        {
          "internalType": "uint256",
          "name": "_type",
          "type": "uint256"
        }
      ],
      "name": "mint",
      "outputs": [],
      "stateMutability": "nonpayable",
      "type": "function"
    },
    {
      "inputs": [],
      "name": "oneDayNFT",
      "outputs": [
        {
          "internalType": "contract IOneDayCashbackNFT",
          "name": "",
          "type": "address"
        }
      ],
      "stateMutability": "view",
      "type": "function"
    },
    {
      "inputs": [],
      "name": "pause",
      "outputs": [],
      "stateMutability": "nonpayable",
      "type": "function"
    },
    {
      "inputs": [],
      "name": "paused",
      "outputs": [
        {
          "internalType": "bool",
          "name": "",
          "type": "bool"
        }
      ],
      "stateMutability": "view",
      "type": "function"
    },
    {
      "inputs": [
        {
          "internalType": "bytes32",
          "name": "role",
          "type": "bytes32"
        },
        {
          "internalType": "address",
          "name": "account",
          "type": "address"
        }
      ],
      "name": "renounceRole",
      "outputs": [],
      "stateMutability": "nonpayable",
      "type": "function"
    },
    {
      "inputs": [
        {
          "internalType": "bytes32",
          "name": "role",
          "type": "bytes32"
        },
        {
          "internalType": "address",
          "name": "account",
          "type": "address"
        }
      ],
      "name": "revokeRole",
      "outputs": [],
      "stateMutability": "nonpayable",
      "type": "function"
    },
    {
      "inputs": [
        {
          "internalType": "uint256",
          "name": "_newPrice",
          "type": "uint256"
        }
      ],
      "name": "setNFTPrice",
      "outputs": [],
      "stateMutability": "nonpayable",
      "type": "function"
    },
    {
      "inputs": [
        {
          "internalType": "bytes4",
          "name": "interfaceId",
          "type": "bytes4"
        }
      ],
      "name": "supportsInterface",
      "outputs": [
        {
          "internalType": "bool",
          "name": "",
          "type": "bool"
        }
      ],
      "stateMutability": "view",
      "type": "function"
    },
    {
      "inputs": [],
      "name": "unpause",
      "outputs": [],
      "stateMutability": "nonpayable",
      "type": "function"
    },
    {
      "inputs": [
        {
          "internalType": "contract IERC20",
          "name": "_token",
          "type": "address"
        }
      ],
      "name": "withdraw",
      "outputs": [],
      "stateMutability": "nonpayable",
      "type": "function"
    }
  ],
  "transactionHash": "0x29ffd8e140faef858d367fa088a767151386a410ec3fd61d5e1a958563c80030",
  "args": [
    "0x1d5932ADE681eDd8CB9e99df7CE941a862a754Cc",
    "0x79888d3B33C3Bd5B4343595bFf61b7A308Cc2ABa"
  ],
  "numDeployments": 1,
  "solcInputHash": "ec96d366ca7e5304d5570a1320448f8a",
  "bytecode": "0x60c060405267297e9d28866b00006003553480156200001d57600080fd5b50604051620012ac380380620012ac8339810160408190526200004091620001c5565b6001805460ff191681556002556001600160a01b03828116608052811660a0526200006d6000336200007f565b6200007762000120565b505062000204565b6000828152602081815260408083206001600160a01b038516845290915290205460ff166200011c576000828152602081815260408083206001600160a01b03851684529091529020805460ff19166001179055620000db3390565b6001600160a01b0316816001600160a01b0316837f2f8788117e7eff1d82e926ec794901d17c78024a50270940304540a733656f0d60405160405180910390a45b5050565b60015460ff16156200016b5760405162461bcd60e51b815260206004820152601060248201526f14185d5cd8589b194e881c185d5cd95960821b604482015260640160405180910390fd5b6001805460ff1916811790556040805133815290517f62e78cea01bee320cd4e420270b5ea74000d11b0c9f74754ebdbfc544b05a2589181900360200190a1565b6001600160a01b0381168114620001c257600080fd5b50565b60008060408385031215620001d957600080fd5b8251620001e681620001ac565b6020840151909250620001f981620001ac565b809150509250929050565b60805160a05161106662000246600039600081816101e20152818161081301526108f201526000818161017d01528181610640015261072601526110666000f3fe608060405234801561001057600080fd5b50600436106100f75760003560e01c8063809094e111610091578063a0712d6811610063578063a0712d6814610232578063a217fddf14610245578063a38bffda1461024d578063d547741f1461025657005b8063809094e1146101dd57806381530b68146102045780638456cb591461021757806391d148541461021f57005b80633ca5b234116100ca5780633ca5b234146101785780633f4ba83a146101b757806351cff8d9146101bf5780635c975abb146101d257005b806301ffc9a7146100f9578063248a9ca3146101215780632f2ff15d1461015257806336568abe14610165575b005b61010c610107366004610de8565b610269565b60405190151581526020015b60405180910390f35b61014461012f366004610e12565b60009081526020819052604090206001015490565b604051908152602001610118565b6100f7610160366004610e40565b6102a0565b6100f7610173366004610e40565b6102ca565b61019f7f000000000000000000000000000000000000000000000000000000000000000081565b6040516001600160a01b039091168152602001610118565b6100f761034d565b6100f76101cd366004610e70565b610363565b60015460ff1661010c565b61019f7f000000000000000000000000000000000000000000000000000000000000000081565b6100f7610212366004610e12565b6104fb565b6100f761055c565b61010c61022d366004610e40565b61056f565b6100f7610240366004610e12565b610598565b610144600081565b61014460035481565b6100f7610264366004610e40565b6109bd565b60006001600160e01b03198216637965db0b60e01b148061029a57506301ffc9a760e01b6001600160e01b03198316145b92915050565b6000828152602081905260409020600101546102bb816109e2565b6102c583836109ec565b505050565b6001600160a01b038116331461033f5760405162461bcd60e51b815260206004820152602f60248201527f416363657373436f6e74726f6c3a2063616e206f6e6c792072656e6f756e636560448201526e103937b632b9903337b91039b2b63360891b60648201526084015b60405180910390fd5b6103498282610a70565b5050565b6000610358816109e2565b610360610ad5565b50565b600061036e816109e2565b6001600160a01b03821663a9059cbb336040516370a0823160e01b81523060048201526001600160a01b038616906370a0823190602401602060405180830381865afa1580156103c2573d6000803e3d6000fd5b505050506040513d601f19601f820116820180604052508101906103e69190610e8d565b6040516001600160e01b031960e085901b1681526001600160a01b03909216600483015260248201526044016020604051808303816000875af1158015610431573d6000803e3d6000fd5b505050506040513d601f19601f820116820180604052508101906104559190610ea6565b50336040516370a0823160e01b81523060048201526001600160a01b03918216917f884edad9ce6fa2440d8a54cc123490eb96d2768479d49ff9c7366125a942436491908516906370a0823190602401602060405180830381865afa1580156104c2573d6000803e3d6000fd5b505050506040513d601f19601f820116820180604052508101906104e69190610e8d565b60405190815260200160405180910390a25050565b6000610506816109e2565b600082116105565760405162461bcd60e51b815260206004820181905260248201527f4e4654207072696365206d7573742062652067726561746572207468616e20306044820152606401610336565b50600355565b6000610567816109e2565b610360610b68565b6000918252602082815260408084206001600160a01b0393909316845291905290205460ff1690565b60028054036105e95760405162461bcd60e51b815260206004820152601f60248201527f5265656e7472616e637947756172643a207265656e7472616e742063616c6c006044820152606401610336565b6002805560015460ff16156106335760405162461bcd60e51b815260206004820152601060248201526f14185d5cd8589b194e881c185d5cd95960821b6044820152606401610336565b6003546001600160a01b037f0000000000000000000000000000000000000000000000000000000000000000166370a08231336040516001600160e01b031960e084901b1681526001600160a01b039091166004820152602401602060405180830381865afa1580156106aa573d6000803e3d6000fd5b505050506040513d601f19601f820116820180604052508101906106ce9190610e8d565b101561071c5760405162461bcd60e51b815260206004820152601960248201527f496e73756666696369656e7420425553442062616c616e6365000000000000006044820152606401610336565b6001600160a01b037f0000000000000000000000000000000000000000000000000000000000000000166323b872dd336003546040516001600160e01b031960e085901b1681526001600160a01b03909216600483015230602483015260448201526064016020604051808303816000875af11580156107a0573d6000803e3d6000fd5b505050506040513d601f19601f820116820180604052508101906107c49190610ea6565b6108075760405162461bcd60e51b8152602060048201526014602482015273151c985b9cd9995c88109554d10819985a5b195960621b6044820152606401610336565b60006001600160a01b037f0000000000000000000000000000000000000000000000000000000000000000166370a08231336040516001600160e01b031960e084901b1681526001600160a01b039091166004820152602401602060405180830381865afa15801561087d573d6000803e3d6000fd5b505050506040513d601f19601f820116820180604052508101906108a19190610e8d565b905080156108e85760405162461bcd60e51b8152602060048201526014602482015273165bdd48185b1c9958591e481a185d994813919560621b6044820152606401610336565b6001600160a01b037f00000000000000000000000000000000000000000000000000000000000000001663449a52f8336040516001600160e01b031960e084901b1681526001600160a01b03909116600482015260248101859052604401600060405180830381600087803b15801561096057600080fd5b505af1158015610974573d6000803e3d6000fd5b5050505061097f3390565b6001600160a01b03167f3c3284d117c92d0b1699230960384e794dcba184cc48ff114fe4fed20c9b056560405160405180910390a250506001600255565b6000828152602081905260409020600101546109d8816109e2565b6102c58383610a70565b6103608133610be1565b6109f6828261056f565b610349576000828152602081815260408083206001600160a01b03851684529091529020805460ff19166001179055610a2c3390565b6001600160a01b0316816001600160a01b0316837f2f8788117e7eff1d82e926ec794901d17c78024a50270940304540a733656f0d60405160405180910390a45050565b610a7a828261056f565b15610349576000828152602081815260408083206001600160a01b0385168085529252808320805460ff1916905551339285917ff6391f5c32d9c69d2a47ea670b442974b53935d1edc7fd64eb21e047a839171b9190a45050565b60015460ff16610b1e5760405162461bcd60e51b815260206004820152601460248201527314185d5cd8589b194e881b9bdd081c185d5cd95960621b6044820152606401610336565b6001805460ff191690557f5db9ee0a495bf2e6ff9c91a7834c1ba4fdd244a5e8aa4e537bd38aeae4b073aa335b6040516001600160a01b03909116815260200160405180910390a1565b60015460ff1615610bae5760405162461bcd60e51b815260206004820152601060248201526f14185d5cd8589b194e881c185d5cd95960821b6044820152606401610336565b6001805460ff1916811790557f62e78cea01bee320cd4e420270b5ea74000d11b0c9f74754ebdbfc544b05a25833610b4b565b610beb828261056f565b61034957610c03816001600160a01b03166014610c45565b610c0e836020610c45565b604051602001610c1f929190610ef8565b60408051601f198184030181529082905262461bcd60e51b825261033691600401610f6d565b60606000610c54836002610fb6565b610c5f906002610fd5565b67ffffffffffffffff811115610c7757610c77610fed565b6040519080825280601f01601f191660200182016040528015610ca1576020820181803683370190505b509050600360fc1b81600081518110610cbc57610cbc611003565b60200101906001600160f81b031916908160001a905350600f60fb1b81600181518110610ceb57610ceb611003565b60200101906001600160f81b031916908160001a9053506000610d0f846002610fb6565b610d1a906001610fd5565b90505b6001811115610d92576f181899199a1a9b1b9c1cb0b131b232b360811b85600f1660108110610d4e57610d4e611003565b1a60f81b828281518110610d6457610d64611003565b60200101906001600160f81b031916908160001a90535060049490941c93610d8b81611019565b9050610d1d565b508315610de15760405162461bcd60e51b815260206004820181905260248201527f537472696e67733a20686578206c656e67746820696e73756666696369656e746044820152606401610336565b9392505050565b600060208284031215610dfa57600080fd5b81356001600160e01b031981168114610de157600080fd5b600060208284031215610e2457600080fd5b5035919050565b6001600160a01b038116811461036057600080fd5b60008060408385031215610e5357600080fd5b823591506020830135610e6581610e2b565b809150509250929050565b600060208284031215610e8257600080fd5b8135610de181610e2b565b600060208284031215610e9f57600080fd5b5051919050565b600060208284031215610eb857600080fd5b81518015158114610de157600080fd5b60005b83811015610ee3578181015183820152602001610ecb565b83811115610ef2576000848401525b50505050565b7f416363657373436f6e74726f6c3a206163636f756e7420000000000000000000815260008351610f30816017850160208801610ec8565b7001034b99036b4b9b9b4b733903937b6329607d1b6017918401918201528351610f61816028840160208801610ec8565b01602801949350505050565b6020815260008251806020840152610f8c816040850160208701610ec8565b601f01601f19169190910160400192915050565b634e487b7160e01b600052601160045260246000fd5b6000816000190483118215151615610fd057610fd0610fa0565b500290565b60008219821115610fe857610fe8610fa0565b500190565b634e487b7160e01b600052604160045260246000fd5b634e487b7160e01b600052603260045260246000fd5b60008161102857611028610fa0565b50600019019056fea26469706673582212205f369cf7097b0ab5cf5c31a0506bcc1ae7060c9cadc21943eacdbafffd8a786264736f6c634300080e0033",
  "devdoc": {
    "kind": "dev",
    "methods": {
      "getRoleAdmin(bytes32)": {
        "details": "Returns the admin role that controls `role`. See {grantRole} and {revokeRole}. To change a role's admin, use {_setRoleAdmin}."
      },
      "grantRole(bytes32,address)": {
        "details": "Grants `role` to `account`. If `account` had not been already granted `role`, emits a {RoleGranted} event. Requirements: - the caller must have ``role``'s admin role."
      },
      "hasRole(bytes32,address)": {
        "details": "Returns `true` if `account` has been granted `role`."
      },
      "paused()": {
        "details": "Returns true if the contract is paused, and false otherwise."
      },
      "renounceRole(bytes32,address)": {
        "details": "Revokes `role` from the calling account. Roles are often managed via {grantRole} and {revokeRole}: this function's purpose is to provide a mechanism for accounts to lose their privileges if they are compromised (such as when a trusted device is misplaced). If the calling account had been revoked `role`, emits a {RoleRevoked} event. Requirements: - the caller must be `account`."
      },
      "revokeRole(bytes32,address)": {
        "details": "Revokes `role` from `account`. If `account` had been granted `role`, emits a {RoleRevoked} event. Requirements: - the caller must have ``role``'s admin role."
      },
      "supportsInterface(bytes4)": {
        "details": "See {IERC165-supportsInterface}."
      }
    },
    "version": 1
  },
  "userdoc": {
    "kind": "user",
    "methods": {},
    "version": 1
  },
  "storageLayout": {
    "storage": [
      {
        "astId": 24,
        "contract": "contracts/pre-launch-event/PlaybuxSBTFactory.sol:PlaybuxSBTFactory",
        "label": "_roles",
        "offset": 0,
        "slot": "0",
        "type": "t_mapping(t_bytes32,t_struct(RoleData)19_storage)"
      },
      {
        "astId": 534,
        "contract": "contracts/pre-launch-event/PlaybuxSBTFactory.sol:PlaybuxSBTFactory",
        "label": "_paused",
        "offset": 0,
        "slot": "1",
        "type": "t_bool"
      },
      {
        "astId": 619,
        "contract": "contracts/pre-launch-event/PlaybuxSBTFactory.sol:PlaybuxSBTFactory",
        "label": "_status",
        "offset": 0,
        "slot": "2",
        "type": "t_uint256"
      },
      {
        "astId": 7527,
        "contract": "contracts/pre-launch-event/PlaybuxSBTFactory.sol:PlaybuxSBTFactory",
        "label": "NFTPrice",
        "offset": 0,
        "slot": "3",
        "type": "t_uint256"
      }
    ],
    "types": {
      "t_address": {
        "encoding": "inplace",
        "label": "address",
        "numberOfBytes": "20"
      },
      "t_bool": {
        "encoding": "inplace",
        "label": "bool",
        "numberOfBytes": "1"
      },
      "t_bytes32": {
        "encoding": "inplace",
        "label": "bytes32",
        "numberOfBytes": "32"
      },
      "t_mapping(t_address,t_bool)": {
        "encoding": "mapping",
        "key": "t_address",
        "label": "mapping(address => bool)",
        "numberOfBytes": "32",
        "value": "t_bool"
      },
      "t_mapping(t_bytes32,t_struct(RoleData)19_storage)": {
        "encoding": "mapping",
        "key": "t_bytes32",
        "label": "mapping(bytes32 => struct AccessControl.RoleData)",
        "numberOfBytes": "32",
        "value": "t_struct(RoleData)19_storage"
      },
      "t_struct(RoleData)19_storage": {
        "encoding": "inplace",
        "label": "struct AccessControl.RoleData",
        "members": [
          {
            "astId": 16,
            "contract": "contracts/pre-launch-event/PlaybuxSBTFactory.sol:PlaybuxSBTFactory",
            "label": "members",
            "offset": 0,
            "slot": "0",
            "type": "t_mapping(t_address,t_bool)"
          },
          {
            "astId": 18,
            "contract": "contracts/pre-launch-event/PlaybuxSBTFactory.sol:PlaybuxSBTFactory",
            "label": "adminRole",
            "offset": 0,
            "slot": "1",
            "type": "t_bytes32"
          }
        ],
        "numberOfBytes": "64"
      },
      "t_uint256": {
        "encoding": "inplace",
        "label": "uint256",
        "numberOfBytes": "32"
      }
    }
  }
}