{
  "address": "0x39610b37FA2D36A19e3DC075d2b175e92E1684d1",
  "abi": [
    {
      "inputs": [
        {
          "internalType": "string",
          "name": "_uri",
          "type": "string"
        }
      ],
      "stateMutability": "nonpayable",
      "type": "constructor"
    },
    {
      "anonymous": false,
      "inputs": [
        {
          "indexed": true,
          "internalType": "address",
          "name": "owner",
          "type": "address"
        },
        {
          "indexed": true,
          "internalType": "address",
          "name": "approved",
          "type": "address"
        },
        {
          "indexed": true,
          "internalType": "uint256",
          "name": "tokenId",
          "type": "uint256"
        }
      ],
      "name": "Approval",
      "type": "event"
    },
    {
      "anonymous": false,
      "inputs": [
        {
          "indexed": true,
          "internalType": "address",
          "name": "owner",
          "type": "address"
        },
        {
          "indexed": true,
          "internalType": "address",
          "name": "operator",
          "type": "address"
        },
        {
          "indexed": false,
          "internalType": "bool",
          "name": "approved",
          "type": "bool"
        }
      ],
      "name": "ApprovalForAll",
      "type": "event"
    },
    {
      "anonymous": false,
      "inputs": [
        {
          "indexed": true,
          "internalType": "bytes32",
          "name": "role",
          "type": "bytes32"
        },
        {
          "indexed": true,
          "internalType": "bytes32",
          "name": "previousAdminRole",
          "type": "bytes32"
        },
        {
          "indexed": true,
          "internalType": "bytes32",
          "name": "newAdminRole",
          "type": "bytes32"
        }
      ],
      "name": "RoleAdminChanged",
      "type": "event"
    },
    {
      "anonymous": false,
      "inputs": [
        {
          "indexed": true,
          "internalType": "bytes32",
          "name": "role",
          "type": "bytes32"
        },
        {
          "indexed": true,
          "internalType": "address",
          "name": "account",
          "type": "address"
        },
        {
          "indexed": true,
          "internalType": "address",
          "name": "sender",
          "type": "address"
        }
      ],
      "name": "RoleGranted",
      "type": "event"
    },
    {
      "anonymous": false,
      "inputs": [
        {
          "indexed": true,
          "internalType": "bytes32",
          "name": "role",
          "type": "bytes32"
        },
        {
          "indexed": true,
          "internalType": "address",
          "name": "account",
          "type": "address"
        },
        {
          "indexed": true,
          "internalType": "address",
          "name": "sender",
          "type": "address"
        }
      ],
      "name": "RoleRevoked",
      "type": "event"
    },
    {
      "anonymous": false,
      "inputs": [
        {
          "indexed": false,
          "internalType": "string",
          "name": "_baseURI",
          "type": "string"
        }
      ],
      "name": "SetBaseURI",
      "type": "event"
    },
    {
      "anonymous": false,
      "inputs": [
        {
          "indexed": false,
          "internalType": "bool",
          "name": "_soulbound",
          "type": "bool"
        }
      ],
      "name": "SetSoulbound",
      "type": "event"
    },
    {
      "anonymous": false,
      "inputs": [
        {
          "indexed": true,
          "internalType": "address",
          "name": "from",
          "type": "address"
        },
        {
          "indexed": true,
          "internalType": "address",
          "name": "to",
          "type": "address"
        },
        {
          "indexed": true,
          "internalType": "uint256",
          "name": "tokenId",
          "type": "uint256"
        }
      ],
      "name": "Transfer",
      "type": "event"
    },
    {
      "inputs": [],
      "name": "DEFAULT_ADMIN_ROLE",
      "outputs": [
        {
          "internalType": "bytes32",
          "name": "",
          "type": "bytes32"
        }
      ],
      "stateMutability": "view",
      "type": "function"
    },
    {
      "inputs": [
        {
          "internalType": "address",
          "name": "to",
          "type": "address"
        },
        {
          "internalType": "uint256",
          "name": "tokenId",
          "type": "uint256"
        }
      ],
      "name": "approve",
      "outputs": [],
      "stateMutability": "nonpayable",
      "type": "function"
    },
    {
      "inputs": [
        {
          "internalType": "address",
          "name": "owner",
          "type": "address"
        }
      ],
      "name": "balanceOf",
      "outputs": [
        {
          "internalType": "uint256",
          "name": "",
          "type": "uint256"
        }
      ],
      "stateMutability": "view",
      "type": "function"
    },
    {
      "inputs": [],
      "name": "baseURI",
      "outputs": [
        {
          "internalType": "string",
          "name": "",
          "type": "string"
        }
      ],
      "stateMutability": "view",
      "type": "function"
    },
    {
      "inputs": [
        {
          "internalType": "uint256",
          "name": "_tokenId",
          "type": "uint256"
        }
      ],
      "name": "burnByTokenId",
      "outputs": [],
      "stateMutability": "nonpayable",
      "type": "function"
    },
    {
      "inputs": [
        {
          "internalType": "uint256",
          "name": "_tokenId",
          "type": "uint256"
        }
      ],
      "name": "findTypeStrByTokenId",
      "outputs": [
        {
          "internalType": "string",
          "name": "",
          "type": "string"
        }
      ],
      "stateMutability": "pure",
      "type": "function"
    },
    {
      "inputs": [
        {
          "internalType": "uint256",
          "name": "tokenId",
          "type": "uint256"
        }
      ],
      "name": "getApproved",
      "outputs": [
        {
          "internalType": "address",
          "name": "",
          "type": "address"
        }
      ],
      "stateMutability": "view",
      "type": "function"
    },
    {
      "inputs": [
        {
          "internalType": "bytes32",
          "name": "role",
          "type": "bytes32"
        }
      ],
      "name": "getRoleAdmin",
      "outputs": [
        {
          "internalType": "bytes32",
          "name": "",
          "type": "bytes32"
        }
      ],
      "stateMutability": "view",
      "type": "function"
    },
    {
      "inputs": [
        {
          "internalType": "bytes32",
          "name": "role",
          "type": "bytes32"
        },
        {
          "internalType": "address",
          "name": "account",
          "type": "address"
        }
      ],
      "name": "grantRole",
      "outputs": [],
      "stateMutability": "nonpayable",
      "type": "function"
    },
    {
      "inputs": [
        {
          "internalType": "bytes32",
          "name": "role",
          "type": "bytes32"
        },
        {
          "internalType": "address",
          "name": "account",
          "type": "address"
        }
      ],
      "name": "hasRole",
      "outputs": [
        {
          "internalType": "bool",
          "name": "",
          "type": "bool"
        }
      ],
      "stateMutability": "view",
      "type": "function"
    },
    {
      "inputs": [
        {
          "internalType": "address",
          "name": "owner",
          "type": "address"
        },
        {
          "internalType": "address",
          "name": "operator",
          "type": "address"
        }
      ],
      "name": "isApprovedForAll",
      "outputs": [
        {
          "internalType": "bool",
          "name": "",
          "type": "bool"
        }
      ],
      "stateMutability": "view",
      "type": "function"
    },
    {
      "inputs": [
        {
          "internalType": "uint256",
          "name": "_tokenId",
          "type": "uint256"
        }
      ],
      "name": "locked",
      "outputs": [
        {
          "internalType": "bool",
          "name": "",
          "type": "bool"
        }
      ],
      "stateMutability": "view",
      "type": "function"
    },
    {
      "inputs": [
        {
          "internalType": "address",
          "name": "_to",
          "type": "address"
        },
        {
          "internalType": "uint256",
          "name": "_type",
          "type": "uint256"
        }
      ],
      "name": "mintTo",
      "outputs": [],
      "stateMutability": "nonpayable",
      "type": "function"
    },
    {
      "inputs": [],
      "name": "name",
      "outputs": [
        {
          "internalType": "string",
          "name": "",
          "type": "string"
        }
      ],
      "stateMutability": "view",
      "type": "function"
    },
    {
      "inputs": [
        {
          "internalType": "uint256",
          "name": "tokenId",
          "type": "uint256"
        }
      ],
      "name": "ownerOf",
      "outputs": [
        {
          "internalType": "address",
          "name": "",
          "type": "address"
        }
      ],
      "stateMutability": "view",
      "type": "function"
    },
    {
      "inputs": [
        {
          "internalType": "bytes32",
          "name": "role",
          "type": "bytes32"
        },
        {
          "internalType": "address",
          "name": "account",
          "type": "address"
        }
      ],
      "name": "renounceRole",
      "outputs": [],
      "stateMutability": "nonpayable",
      "type": "function"
    },
    {
      "inputs": [
        {
          "internalType": "bytes32",
          "name": "role",
          "type": "bytes32"
        },
        {
          "internalType": "address",
          "name": "account",
          "type": "address"
        }
      ],
      "name": "revokeRole",
      "outputs": [],
      "stateMutability": "nonpayable",
      "type": "function"
    },
    {
      "inputs": [
        {
          "internalType": "address",
          "name": "from",
          "type": "address"
        },
        {
          "internalType": "address",
          "name": "to",
          "type": "address"
        },
        {
          "internalType": "uint256",
          "name": "tokenId",
          "type": "uint256"
        }
      ],
      "name": "safeTransferFrom",
      "outputs": [],
      "stateMutability": "nonpayable",
      "type": "function"
    },
    {
      "inputs": [
        {
          "internalType": "address",
          "name": "from",
          "type": "address"
        },
        {
          "internalType": "address",
          "name": "to",
          "type": "address"
        },
        {
          "internalType": "uint256",
          "name": "tokenId",
          "type": "uint256"
        },
        {
          "internalType": "bytes",
          "name": "_data",
          "type": "bytes"
        }
      ],
      "name": "safeTransferFrom",
      "outputs": [],
      "stateMutability": "nonpayable",
      "type": "function"
    },
    {
      "inputs": [
        {
          "internalType": "address",
          "name": "operator",
          "type": "address"
        },
        {
          "internalType": "bool",
          "name": "approved",
          "type": "bool"
        }
      ],
      "name": "setApprovalForAll",
      "outputs": [],
      "stateMutability": "nonpayable",
      "type": "function"
    },
    {
      "inputs": [
        {
          "internalType": "string",
          "name": "_baseURI",
          "type": "string"
        }
      ],
      "name": "setBaseURI",
      "outputs": [],
      "stateMutability": "nonpayable",
      "type": "function"
    },
    {
      "inputs": [
        {
          "internalType": "bool",
          "name": "_soulbound",
          "type": "bool"
        }
      ],
      "name": "setSoulbound",
      "outputs": [],
      "stateMutability": "nonpayable",
      "type": "function"
    },
    {
      "inputs": [],
      "name": "soulbound",
      "outputs": [
        {
          "internalType": "bool",
          "name": "",
          "type": "bool"
        }
      ],
      "stateMutability": "view",
      "type": "function"
    },
    {
      "inputs": [
        {
          "internalType": "bytes4",
          "name": "interfaceId",
          "type": "bytes4"
        }
      ],
      "name": "supportsInterface",
      "outputs": [
        {
          "internalType": "bool",
          "name": "",
          "type": "bool"
        }
      ],
      "stateMutability": "view",
      "type": "function"
    },
    {
      "inputs": [],
      "name": "symbol",
      "outputs": [
        {
          "internalType": "string",
          "name": "",
          "type": "string"
        }
      ],
      "stateMutability": "view",
      "type": "function"
    },
    {
      "inputs": [
        {
          "internalType": "uint256",
          "name": "index",
          "type": "uint256"
        }
      ],
      "name": "tokenByIndex",
      "outputs": [
        {
          "internalType": "uint256",
          "name": "",
          "type": "uint256"
        }
      ],
      "stateMutability": "view",
      "type": "function"
    },
    {
      "inputs": [
        {
          "internalType": "address",
          "name": "owner",
          "type": "address"
        },
        {
          "internalType": "uint256",
          "name": "index",
          "type": "uint256"
        }
      ],
      "name": "tokenOfOwnerByIndex",
      "outputs": [
        {
          "internalType": "uint256",
          "name": "",
          "type": "uint256"
        }
      ],
      "stateMutability": "view",
      "type": "function"
    },
    {
      "inputs": [
        {
          "internalType": "uint256",
          "name": "",
          "type": "uint256"
        }
      ],
      "name": "tokenSupplyByType",
      "outputs": [
        {
          "internalType": "uint256",
          "name": "",
          "type": "uint256"
        }
      ],
      "stateMutability": "view",
      "type": "function"
    },
    {
      "inputs": [
        {
          "internalType": "uint256",
          "name": "tokenId",
          "type": "uint256"
        }
      ],
      "name": "tokenURI",
      "outputs": [
        {
          "internalType": "string",
          "name": "",
          "type": "string"
        }
      ],
      "stateMutability": "view",
      "type": "function"
    },
    {
      "inputs": [],
      "name": "totalSupply",
      "outputs": [
        {
          "internalType": "uint256",
          "name": "",
          "type": "uint256"
        }
      ],
      "stateMutability": "view",
      "type": "function"
    },
    {
      "inputs": [
        {
          "internalType": "address",
          "name": "from",
          "type": "address"
        },
        {
          "internalType": "address",
          "name": "to",
          "type": "address"
        },
        {
          "internalType": "uint256",
          "name": "tokenId",
          "type": "uint256"
        }
      ],
      "name": "transferFrom",
      "outputs": [],
      "stateMutability": "nonpayable",
      "type": "function"
    }
  ],
  "transactionHash": "0xcdab72c96648d12e175f8173dfdbed441c134de90f8ae34a1b4434c317b930a9",
  "args": [
    "ipfs://QmcKPyF2iwudk9wEyXeBJFNLQNvmTjoR4trELFZzbuv9sU/"
  ],
  "numDeployments": 1,
  "solcInputHash": "ec96d366ca7e5304d5570a1320448f8a",
  "bytecode": "0x6080604052600d805460ff191660011790553480156200001e57600080fd5b50604051620028cb380380620028cb833981016040819052620000419162000245565b604080518082018252601781527f506c617962757820536f756c626f756e6420546f6b656e00000000000000000060208083019182528351808501909452600384526250425360e81b908401528151919291620000a19160009162000189565b508051620000b790600190602084019062000189565b50508151620000cf9150600c90602084019062000189565b50620000dd600033620000e4565b506200035d565b6000828152600a602090815260408083206001600160a01b038516845290915290205460ff1662000185576000828152600a602090815260408083206001600160a01b03851684529091529020805460ff19166001179055620001443390565b6001600160a01b0316816001600160a01b0316837f2f8788117e7eff1d82e926ec794901d17c78024a50270940304540a733656f0d60405160405180910390a45b5050565b828054620001979062000321565b90600052602060002090601f016020900481019282620001bb576000855562000206565b82601f10620001d657805160ff191683800117855562000206565b8280016001018555821562000206579182015b8281111562000206578251825591602001919060010190620001e9565b506200021492915062000218565b5090565b5b8082111562000214576000815560010162000219565b634e487b7160e01b600052604160045260246000fd5b600060208083850312156200025957600080fd5b82516001600160401b03808211156200027157600080fd5b818501915085601f8301126200028657600080fd5b8151818111156200029b576200029b6200022f565b604051601f8201601f19908116603f01168101908382118183101715620002c657620002c66200022f565b816040528281528886848701011115620002df57600080fd5b600093505b82841015620003035784840186015181850187015292850192620002e4565b82841115620003155760008684830101525b98975050505050505050565b600181811c908216806200033657607f821691505b6020821081036200035757634e487b7160e01b600052602260045260246000fd5b50919050565b61255e806200036d6000396000f3fe608060405234801561001057600080fd5b50600436106101e55760003560e01c80636352211e1161010f578063b3cbfcd2116100a2578063cc14f2f511610071578063cc14f2f514610416578063d547741f14610429578063df30e54b1461043c578063e985e9c51461044f57600080fd5b8063b3cbfcd2146103c5578063b45a3c0e146103d8578063b88d4fde146103f0578063c87b56dd1461040357600080fd5b806391d14854116100de57806391d148541461038f57806395d89b41146103a2578063a217fddf146103aa578063a22cb465146103b257600080fd5b80636352211e146103415780636ada6015146103545780636c0360eb1461037457806370a082311461037c57600080fd5b8063248a9ca31161018757806342842e0e1161015657806342842e0e146102f5578063449a52f8146103085780634f6ccce71461031b57806355f804b31461032e57600080fd5b8063248a9ca3146102995780632f2ff15d146102bc5780632f745c59146102cf57806336568abe146102e257600080fd5b8063095ea7b3116101c3578063095ea7b3146102525780630fad0f511461026757806318160ddd1461027457806323b872dd1461028657600080fd5b806301ffc9a7146101ea57806306fdde0314610212578063081812fc14610227575b600080fd5b6101fd6101f8366004611e82565b61048b565b60405190151581526020015b60405180910390f35b61021a61049c565b6040516102099190611ef7565b61023a610235366004611f0a565b61052e565b6040516001600160a01b039091168152602001610209565b610265610260366004611f3f565b6105c8565b005b600d546101fd9060ff1681565b6008545b604051908152602001610209565b610265610294366004611f69565b6106dd565b6102786102a7366004611f0a565b6000908152600a602052604090206001015490565b6102656102ca366004611fa5565b61070e565b6102786102dd366004611f3f565b610733565b6102656102f0366004611fa5565b6107c9565b610265610303366004611f69565b610847565b610265610316366004611f3f565b610862565b610278610329366004611f0a565b610919565b61026561033c36600461205d565b6109ac565b61023a61034f366004611f0a565b610a06565b610278610362366004611f0a565b600b6020526000908152604090205481565b61021a610a7d565b61027861038a3660046120a6565b610b0b565b6101fd61039d366004611fa5565b610b92565b61021a610bbd565b610278600081565b6102656103c03660046120d1565b610bcc565b61021a6103d3366004611f0a565b610bd7565b6101fd6103e6366004611f0a565b50600d5460ff1690565b6102656103fe3660046120fb565b610c02565b61021a610411366004611f0a565b610c35565b610265610424366004611f0a565b610d17565b610265610437366004611fa5565b610db5565b61026561044a366004612177565b610dda565b6101fd61045d366004612192565b6001600160a01b03918216600090815260056020908152604080832093909416825291909152205460ff1690565b600061049682610e6e565b92915050565b6060600080546104ab906121bc565b80601f01602080910402602001604051908101604052809291908181526020018280546104d7906121bc565b80156105245780601f106104f957610100808354040283529160200191610524565b820191906000526020600020905b81548152906001019060200180831161050757829003601f168201915b5050505050905090565b6000818152600260205260408120546001600160a01b03166105ac5760405162461bcd60e51b815260206004820152602c60248201527f4552433732313a20617070726f76656420717565727920666f72206e6f6e657860448201526b34b9ba32b73a103a37b5b2b760a11b60648201526084015b60405180910390fd5b506000908152600460205260409020546001600160a01b031690565b60006105d382610a06565b9050806001600160a01b0316836001600160a01b0316036106405760405162461bcd60e51b815260206004820152602160248201527f4552433732313a20617070726f76616c20746f2063757272656e74206f776e656044820152603960f91b60648201526084016105a3565b336001600160a01b038216148061065c575061065c813361045d565b6106ce5760405162461bcd60e51b815260206004820152603860248201527f4552433732313a20617070726f76652063616c6c6572206973206e6f74206f7760448201527f6e6572206e6f7220617070726f76656420666f7220616c6c000000000000000060648201526084016105a3565b6106d88383610e93565b505050565b6106e73382610f01565b6107035760405162461bcd60e51b81526004016105a3906121f6565b6106d8838383610ff8565b6000828152600a60205260409020600101546107298161119f565b6106d883836111ac565b600061073e83610b0b565b82106107a05760405162461bcd60e51b815260206004820152602b60248201527f455243373231456e756d657261626c653a206f776e657220696e646578206f7560448201526a74206f6620626f756e647360a81b60648201526084016105a3565b506001600160a01b03919091166000908152600660209081526040808320938352929052205490565b6001600160a01b03811633146108395760405162461bcd60e51b815260206004820152602f60248201527f416363657373436f6e74726f6c3a2063616e206f6e6c792072656e6f756e636560448201526e103937b632b9903337b91039b2b63360891b60648201526084016105a3565b6108438282611232565b5050565b6106d883838360405180602001604052806000815250610c02565b7fdfbefbf47cfe66b701d8cfdbce1de81c821590819cb07e71cb01b6602fb0ee2761088c8161119f565b600082116108d15760405162461bcd60e51b8152602060048201526012602482015271496e76616c696420746f6b656e207479706560701b60448201526064016105a3565b60006108dc83611299565b6108e790600161225d565b6000848152600b6020526040812080549293509061090483612275565b919050555061091384826112c4565b50505050565b600061092460085490565b82106109875760405162461bcd60e51b815260206004820152602c60248201527f455243373231456e756d657261626c653a20676c6f62616c20696e646578206f60448201526b7574206f6620626f756e647360a01b60648201526084016105a3565b6008828154811061099a5761099a61228e565b90600052602060002001549050919050565b60006109b78161119f565b81516109ca90600c906020850190611dd3565b507f23c8c9488efebfd474e85a7956de6f39b17c7ab88502d42a623db2d8e382bbaa826040516109fa9190611ef7565b60405180910390a15050565b6000818152600260205260408120546001600160a01b0316806104965760405162461bcd60e51b815260206004820152602960248201527f4552433732313a206f776e657220717565727920666f72206e6f6e657869737460448201526832b73a103a37b5b2b760b91b60648201526084016105a3565b600c8054610a8a906121bc565b80601f0160208091040260200160405190810160405280929190818152602001828054610ab6906121bc565b8015610b035780601f10610ad857610100808354040283529160200191610b03565b820191906000526020600020905b815481529060010190602001808311610ae657829003601f168201915b505050505081565b60006001600160a01b038216610b765760405162461bcd60e51b815260206004820152602a60248201527f4552433732313a2062616c616e636520717565727920666f7220746865207a65604482015269726f206164647265737360b01b60648201526084016105a3565b506001600160a01b031660009081526003602052604090205490565b6000918252600a602090815260408084206001600160a01b0393909316845291905290205460ff1690565b6060600180546104ab906121bc565b610843338383611412565b6060610496610be5836114e0565b60006012610bf2866114e0565b51610bfd91906122a4565b6115e1565b610c0d335b83610f01565b610c295760405162461bcd60e51b81526004016105a3906121f6565b610913848484846116ae565b6000818152600260205260409020546060906001600160a01b0316610cb45760405162461bcd60e51b815260206004820152602f60248201527f4552433732314d657461646174613a2055524920717565727920666f72206e6f60448201526e3732bc34b9ba32b73a103a37b5b2b760891b60648201526084016105a3565b6000610cbf83610bd7565b90506000600c8054610cd0906121bc565b905011610cec5760405180602001604052806000815250610d10565b600c81604051602001610d009291906122d7565b6040516020818303038152906040525b9392505050565b7fdfbefbf47cfe66b701d8cfdbce1de81c821590819cb07e71cb01b6602fb0ee27610d418161119f565b610d4a33610c07565b610dac5760405162461bcd60e51b815260206004820152602d60248201527f4552433732313a2063616c6c6572206973206e6f7420746f6b656e206f776e6560448201526c1c881bdc88185c1c1c9bdd9959609a1b60648201526084016105a3565b610843826116e1565b6000828152600a6020526040902060010154610dd08161119f565b6106d88383611232565b6000610de58161119f565b600d5482151560ff909116151503610e2d5760405162461bcd60e51b815260206004820152600b60248201526a105b1c9958591e481cd95d60aa1b60448201526064016105a3565b600d805460ff19168315159081179091556040519081527f3686565173a764dcbff6d4a0fc2d3850197c34103ddb438a36f4bfdc3baa3764906020016109fa565b60006001600160e01b03198216637965db0b60e01b1480610496575061049682611788565b600081815260046020526040902080546001600160a01b0319166001600160a01b0384169081179091558190610ec882610a06565b6001600160a01b03167f8c5be1e5ebec7d5bd14f71427d1e84f3dd0314c0f7b2291e5b200ac8c7c3b92560405160405180910390a45050565b6000818152600260205260408120546001600160a01b0316610f7a5760405162461bcd60e51b815260206004820152602c60248201527f4552433732313a206f70657261746f7220717565727920666f72206e6f6e657860448201526b34b9ba32b73a103a37b5b2b760a11b60648201526084016105a3565b6000610f8583610a06565b9050806001600160a01b0316846001600160a01b03161480610fcc57506001600160a01b0380821660009081526005602090815260408083209388168352929052205460ff165b80610ff05750836001600160a01b0316610fe58461052e565b6001600160a01b0316145b949350505050565b826001600160a01b031661100b82610a06565b6001600160a01b03161461106f5760405162461bcd60e51b815260206004820152602560248201527f4552433732313a207472616e736665722066726f6d20696e636f72726563742060448201526437bbb732b960d91b60648201526084016105a3565b6001600160a01b0382166110d15760405162461bcd60e51b8152602060048201526024808201527f4552433732313a207472616e7366657220746f20746865207a65726f206164646044820152637265737360e01b60648201526084016105a3565b6110dc8383836117ad565b6110e7600082610e93565b6001600160a01b03831660009081526003602052604081208054600192906111109084906122a4565b90915550506001600160a01b038216600090815260036020526040812080546001929061113e90849061225d565b909155505060008181526002602052604080822080546001600160a01b0319166001600160a01b0386811691821790925591518493918716917fddf252ad1be2c89b69c2b068fc378daa952ba7f163c4a11628f55a4df523b3ef91a4505050565b6111a9813361183a565b50565b6111b68282610b92565b610843576000828152600a602090815260408083206001600160a01b03851684529091529020805460ff191660011790556111ee3390565b6001600160a01b0316816001600160a01b0316837f2f8788117e7eff1d82e926ec794901d17c78024a50270940304540a733656f0d60405160405180910390a45050565b61123c8282610b92565b15610843576000828152600a602090815260408083206001600160a01b0385168085529252808320805460ff1916905551339285917ff6391f5c32d9c69d2a47ea670b442974b53935d1edc7fd64eb21e047a839171b9190a45050565b6000818152600b60205260408120546112ba83670de0b6b3a764000061237d565b610496919061225d565b6001600160a01b03821661131a5760405162461bcd60e51b815260206004820181905260248201527f4552433732313a206d696e7420746f20746865207a65726f206164647265737360448201526064016105a3565b6000818152600260205260409020546001600160a01b03161561137f5760405162461bcd60e51b815260206004820152601c60248201527f4552433732313a20746f6b656e20616c7265616479206d696e7465640000000060448201526064016105a3565b61138b600083836117ad565b6001600160a01b03821660009081526003602052604081208054600192906113b490849061225d565b909155505060008181526002602052604080822080546001600160a01b0319166001600160a01b03861690811790915590518392907fddf252ad1be2c89b69c2b068fc378daa952ba7f163c4a11628f55a4df523b3ef908290a45050565b816001600160a01b0316836001600160a01b0316036114735760405162461bcd60e51b815260206004820152601960248201527f4552433732313a20617070726f766520746f2063616c6c65720000000000000060448201526064016105a3565b6001600160a01b03838116600081815260056020908152604080832094871680845294825291829020805460ff191686151590811790915591519182527f17307eab39ab6107e8899845ad3d59bd9653f200f220920489ca2b5937696c31910160405180910390a3505050565b6060816000036115075750506040805180820190915260018152600360fc1b602082015290565b8160005b8115611531578061151b81612275565b915061152a9050600a836123b2565b915061150b565b60008167ffffffffffffffff81111561154c5761154c611fd1565b6040519080825280601f01601f191660200182016040528015611576576020820181803683370190505b5090505b8415610ff05761158b6001836122a4565b9150611598600a866123c6565b6115a390603061225d565b60f81b8183815181106115b8576115b861228e565b60200101906001600160f81b031916908160001a9053506115da600a866123b2565b945061157a565b60608360006115f085856122a4565b67ffffffffffffffff81111561160857611608611fd1565b6040519080825280601f01601f191660200182016040528015611632576020820181803683370190505b509050845b848110156116a4578281815181106116515761165161228e565b01602001516001600160f81b0319168261166b88846122a4565b8151811061167b5761167b61228e565b60200101906001600160f81b031916908160001a9053508061169c81612275565b915050611637565b5095945050505050565b6116b9848484610ff8565b6116c58484848461189e565b6109135760405162461bcd60e51b81526004016105a3906123da565b60006116ec82610a06565b90506116fa816000846117ad565b611705600083610e93565b6001600160a01b038116600090815260036020526040812080546001929061172e9084906122a4565b909155505060008281526002602052604080822080546001600160a01b0319169055518391906001600160a01b038416907fddf252ad1be2c89b69c2b068fc378daa952ba7f163c4a11628f55a4df523b3ef908390a45050565b60006001600160e01b0319821663780e9d6360e01b148061049657506104968261199f565b600d5460ff161561182f576001600160a01b03831615806117d557506001600160a01b038216155b61182f5760405162461bcd60e51b815260206004820152602560248201527f4f6e65446179436173686261636b4e46543a20746f6b656e20697320736f756c604482015264189bdd5b9960da1b60648201526084016105a3565b6106d88383836119ef565b6118448282610b92565b6108435761185c816001600160a01b03166014611aa7565b611867836020611aa7565b60405160200161187892919061242c565b60408051601f198184030181529082905262461bcd60e51b82526105a391600401611ef7565b60006001600160a01b0384163b1561199457604051630a85bd0160e11b81526001600160a01b0385169063150b7a02906118e29033908990889088906004016124a1565b6020604051808303816000875af192505050801561191d575060408051601f3d908101601f1916820190925261191a918101906124de565b60015b61197a573d80801561194b576040519150601f19603f3d011682016040523d82523d6000602084013e611950565b606091505b5080516000036119725760405162461bcd60e51b81526004016105a3906123da565b805181602001fd5b6001600160e01b031916630a85bd0160e11b149050610ff0565b506001949350505050565b60006001600160e01b031982166380ac58cd60e01b14806119d057506001600160e01b03198216635b5e139f60e01b145b8061049657506301ffc9a760e01b6001600160e01b0319831614610496565b6001600160a01b038316611a4a57611a4581600880546000838152600960205260408120829055600182018355919091527ff3f7a9fe364faab93b216da50a3214154f22a0a2b415b23a84c8169e8b636ee30155565b611a6d565b816001600160a01b0316836001600160a01b031614611a6d57611a6d8382611c43565b6001600160a01b038216611a84576106d881611ce0565b826001600160a01b0316826001600160a01b0316146106d8576106d88282611d8f565b60606000611ab683600261237d565b611ac190600261225d565b67ffffffffffffffff811115611ad957611ad9611fd1565b6040519080825280601f01601f191660200182016040528015611b03576020820181803683370190505b509050600360fc1b81600081518110611b1e57611b1e61228e565b60200101906001600160f81b031916908160001a905350600f60fb1b81600181518110611b4d57611b4d61228e565b60200101906001600160f81b031916908160001a9053506000611b7184600261237d565b611b7c90600161225d565b90505b6001811115611bf4576f181899199a1a9b1b9c1cb0b131b232b360811b85600f1660108110611bb057611bb061228e565b1a60f81b828281518110611bc657611bc661228e565b60200101906001600160f81b031916908160001a90535060049490941c93611bed816124fb565b9050611b7f565b508315610d105760405162461bcd60e51b815260206004820181905260248201527f537472696e67733a20686578206c656e67746820696e73756666696369656e7460448201526064016105a3565b60006001611c5084610b0b565b611c5a91906122a4565b600083815260076020526040902054909150808214611cad576001600160a01b03841660009081526006602090815260408083208584528252808320548484528184208190558352600790915290208190555b5060009182526007602090815260408084208490556001600160a01b039094168352600681528383209183525290812055565b600854600090611cf2906001906122a4565b60008381526009602052604081205460088054939450909284908110611d1a57611d1a61228e565b906000526020600020015490508060088381548110611d3b57611d3b61228e565b6000918252602080832090910192909255828152600990915260408082208490558582528120556008805480611d7357611d73612512565b6001900381819060005260206000200160009055905550505050565b6000611d9a83610b0b565b6001600160a01b039093166000908152600660209081526040808320868452825280832085905593825260079052919091209190915550565b828054611ddf906121bc565b90600052602060002090601f016020900481019282611e015760008555611e47565b82601f10611e1a57805160ff1916838001178555611e47565b82800160010185558215611e47579182015b82811115611e47578251825591602001919060010190611e2c565b50611e53929150611e57565b5090565b5b80821115611e535760008155600101611e58565b6001600160e01b0319811681146111a957600080fd5b600060208284031215611e9457600080fd5b8135610d1081611e6c565b60005b83811015611eba578181015183820152602001611ea2565b838111156109135750506000910152565b60008151808452611ee3816020860160208601611e9f565b601f01601f19169290920160200192915050565b602081526000610d106020830184611ecb565b600060208284031215611f1c57600080fd5b5035919050565b80356001600160a01b0381168114611f3a57600080fd5b919050565b60008060408385031215611f5257600080fd5b611f5b83611f23565b946020939093013593505050565b600080600060608486031215611f7e57600080fd5b611f8784611f23565b9250611f9560208501611f23565b9150604084013590509250925092565b60008060408385031215611fb857600080fd5b82359150611fc860208401611f23565b90509250929050565b634e487b7160e01b600052604160045260246000fd5b600067ffffffffffffffff8084111561200257612002611fd1565b604051601f8501601f19908116603f0116810190828211818310171561202a5761202a611fd1565b8160405280935085815286868601111561204357600080fd5b858560208301376000602087830101525050509392505050565b60006020828403121561206f57600080fd5b813567ffffffffffffffff81111561208657600080fd5b8201601f8101841361209757600080fd5b610ff084823560208401611fe7565b6000602082840312156120b857600080fd5b610d1082611f23565b80358015158114611f3a57600080fd5b600080604083850312156120e457600080fd5b6120ed83611f23565b9150611fc8602084016120c1565b6000806000806080858703121561211157600080fd5b61211a85611f23565b935061212860208601611f23565b925060408501359150606085013567ffffffffffffffff81111561214b57600080fd5b8501601f8101871361215c57600080fd5b61216b87823560208401611fe7565b91505092959194509250565b60006020828403121561218957600080fd5b610d10826120c1565b600080604083850312156121a557600080fd5b6121ae83611f23565b9150611fc860208401611f23565b600181811c908216806121d057607f821691505b6020821081036121f057634e487b7160e01b600052602260045260246000fd5b50919050565b60208082526031908201527f4552433732313a207472616e736665722063616c6c6572206973206e6f74206f6040820152701ddb995c881b9bdc88185c1c1c9bdd9959607a1b606082015260800190565b634e487b7160e01b600052601160045260246000fd5b6000821982111561227057612270612247565b500190565b60006001820161228757612287612247565b5060010190565b634e487b7160e01b600052603260045260246000fd5b6000828210156122b6576122b6612247565b500390565b600081516122cd818560208601611e9f565b9290920192915050565b600080845481600182811c9150808316806122f357607f831692505b6020808410820361231257634e487b7160e01b86526022600452602486fd5b818015612326576001811461233757612364565b60ff19861689528489019650612364565b60008b81526020902060005b8681101561235c5781548b820152908501908301612343565b505084890196505b50505050505061237481856122bb565b95945050505050565b600081600019048311821515161561239757612397612247565b500290565b634e487b7160e01b600052601260045260246000fd5b6000826123c1576123c161239c565b500490565b6000826123d5576123d561239c565b500690565b60208082526032908201527f4552433732313a207472616e7366657220746f206e6f6e20455243373231526560408201527131b2b4bb32b91034b6b83632b6b2b73a32b960711b606082015260800190565b7f416363657373436f6e74726f6c3a206163636f756e7420000000000000000000815260008351612464816017850160208801611e9f565b7001034b99036b4b9b9b4b733903937b6329607d1b6017918401918201528351612495816028840160208801611e9f565b01602801949350505050565b6001600160a01b03858116825284166020820152604081018390526080606082018190526000906124d490830184611ecb565b9695505050505050565b6000602082840312156124f057600080fd5b8151610d1081611e6c565b60008161250a5761250a612247565b506000190190565b634e487b7160e01b600052603160045260246000fdfea26469706673582212208a2aba9602e48e5c718b130699524ef79848fbecf564d99b80c546d04137424464736f6c634300080e0033",
  "devdoc": {
    "kind": "dev",
    "methods": {
      "approve(address,uint256)": {
        "details": "See {IERC721-approve}."
      },
      "balanceOf(address)": {
        "details": "See {IERC721-balanceOf}."
      },
      "burnByTokenId(uint256)": {
        "params": {
          "_tokenId": "ID of the token"
        }
      },
      "findTypeStrByTokenId(uint256)": {
        "params": {
          "_tokenId": "ID of the token"
        },
        "returns": {
          "_0": "type of the token as a string"
        }
      },
      "getApproved(uint256)": {
        "details": "See {IERC721-getApproved}."
      },
      "getRoleAdmin(bytes32)": {
        "details": "Returns the admin role that controls `role`. See {grantRole} and {revokeRole}. To change a role's admin, use {_setRoleAdmin}."
      },
      "grantRole(bytes32,address)": {
        "details": "Grants `role` to `account`. If `account` had not been already granted `role`, emits a {RoleGranted} event. Requirements: - the caller must have ``role``'s admin role."
      },
      "hasRole(bytes32,address)": {
        "details": "Returns `true` if `account` has been granted `role`."
      },
      "isApprovedForAll(address,address)": {
        "details": "See {IERC721-isApprovedForAll}."
      },
      "locked(uint256)": {
        "details": "to comply with ERC5192",
        "params": {
          "_tokenId": "uint256 ID of the token to query"
        },
        "returns": {
          "_0": "uint256 status of the token"
        }
      },
      "mintTo(address,uint256)": {
        "params": {
          "_to": "address of the future owner of the token",
          "_type": "type of the token"
        }
      },
      "name()": {
        "details": "See {IERC721Metadata-name}."
      },
      "ownerOf(uint256)": {
        "details": "See {IERC721-ownerOf}."
      },
      "renounceRole(bytes32,address)": {
        "details": "Revokes `role` from the calling account. Roles are often managed via {grantRole} and {revokeRole}: this function's purpose is to provide a mechanism for accounts to lose their privileges if they are compromised (such as when a trusted device is misplaced). If the calling account had been revoked `role`, emits a {RoleRevoked} event. Requirements: - the caller must be `account`."
      },
      "revokeRole(bytes32,address)": {
        "details": "Revokes `role` from `account`. If `account` had been granted `role`, emits a {RoleRevoked} event. Requirements: - the caller must have ``role``'s admin role."
      },
      "safeTransferFrom(address,address,uint256)": {
        "details": "See {IERC721-safeTransferFrom}."
      },
      "safeTransferFrom(address,address,uint256,bytes)": {
        "details": "See {IERC721-safeTransferFrom}."
      },
      "setApprovalForAll(address,bool)": {
        "details": "See {IERC721-setApprovalForAll}."
      },
      "setBaseURI(string)": {
        "params": {
          "_baseURI": "The base URI for token metadata"
        }
      },
      "setSoulbound(bool)": {
        "params": {
          "_soulbound": "bool whether the tokens are transferable or not"
        }
      },
      "symbol()": {
        "details": "See {IERC721Metadata-symbol}."
      },
      "tokenByIndex(uint256)": {
        "details": "See {IERC721Enumerable-tokenByIndex}."
      },
      "tokenOfOwnerByIndex(address,uint256)": {
        "details": "See {IERC721Enumerable-tokenOfOwnerByIndex}."
      },
      "tokenURI(uint256)": {
        "params": {
          "tokenId": "uint256 ID of the token to query"
        },
        "returns": {
          "_0": "string URI of the token"
        }
      },
      "totalSupply()": {
        "details": "See {IERC721Enumerable-totalSupply}."
      },
      "transferFrom(address,address,uint256)": {
        "details": "See {IERC721-transferFrom}."
      }
    },
    "version": 1
  },
  "userdoc": {
    "kind": "user",
    "methods": {
      "burnByTokenId(uint256)": {
        "notice": "burnByTokenId burns the token with the given ID Use on cross-chain transfers to burn the token on the source chain User must be the owner of the token or approved to burn the token"
      },
      "findTypeStrByTokenId(uint256)": {
        "notice": "findTypeStrByTokenId finds the type of the token with the given ID"
      },
      "mintTo(address,uint256)": {
        "notice": "mintTo mints a new token to the given address"
      },
      "setBaseURI(string)": {
        "notice": "setBaseURI sets the base URI for token metadata"
      },
      "setSoulbound(bool)": {
        "notice": "setSoulbound sets whether the tokens are transferable or not"
      },
      "tokenURI(uint256)": {
        "notice": "tokenURI returns the metadata URI for a given token ID"
      }
    },
    "version": 1
  },
  "storageLayout": {
    "storage": [
      {
        "astId": 1587,
        "contract": "contracts/pre-launch-event/PlaybuxSBT.sol:PlaybuxSBT",
        "label": "_name",
        "offset": 0,
        "slot": "0",
        "type": "t_string_storage"
      },
      {
        "astId": 1589,
        "contract": "contracts/pre-launch-event/PlaybuxSBT.sol:PlaybuxSBT",
        "label": "_symbol",
        "offset": 0,
        "slot": "1",
        "type": "t_string_storage"
      },
      {
        "astId": 1593,
        "contract": "contracts/pre-launch-event/PlaybuxSBT.sol:PlaybuxSBT",
        "label": "_owners",
        "offset": 0,
        "slot": "2",
        "type": "t_mapping(t_uint256,t_address)"
      },
      {
        "astId": 1597,
        "contract": "contracts/pre-launch-event/PlaybuxSBT.sol:PlaybuxSBT",
        "label": "_balances",
        "offset": 0,
        "slot": "3",
        "type": "t_mapping(t_address,t_uint256)"
      },
      {
        "astId": 1601,
        "contract": "contracts/pre-launch-event/PlaybuxSBT.sol:PlaybuxSBT",
        "label": "_tokenApprovals",
        "offset": 0,
        "slot": "4",
        "type": "t_mapping(t_uint256,t_address)"
      },
      {
        "astId": 1607,
        "contract": "contracts/pre-launch-event/PlaybuxSBT.sol:PlaybuxSBT",
        "label": "_operatorApprovals",
        "offset": 0,
        "slot": "5",
        "type": "t_mapping(t_address,t_mapping(t_address,t_bool))"
      },
      {
        "astId": 2576,
        "contract": "contracts/pre-launch-event/PlaybuxSBT.sol:PlaybuxSBT",
        "label": "_ownedTokens",
        "offset": 0,
        "slot": "6",
        "type": "t_mapping(t_address,t_mapping(t_uint256,t_uint256))"
      },
      {
        "astId": 2580,
        "contract": "contracts/pre-launch-event/PlaybuxSBT.sol:PlaybuxSBT",
        "label": "_ownedTokensIndex",
        "offset": 0,
        "slot": "7",
        "type": "t_mapping(t_uint256,t_uint256)"
      },
      {
        "astId": 2583,
        "contract": "contracts/pre-launch-event/PlaybuxSBT.sol:PlaybuxSBT",
        "label": "_allTokens",
        "offset": 0,
        "slot": "8",
        "type": "t_array(t_uint256)dyn_storage"
      },
      {
        "astId": 2587,
        "contract": "contracts/pre-launch-event/PlaybuxSBT.sol:PlaybuxSBT",
        "label": "_allTokensIndex",
        "offset": 0,
        "slot": "9",
        "type": "t_mapping(t_uint256,t_uint256)"
      },
      {
        "astId": 24,
        "contract": "contracts/pre-launch-event/PlaybuxSBT.sol:PlaybuxSBT",
        "label": "_roles",
        "offset": 0,
        "slot": "10",
        "type": "t_mapping(t_bytes32,t_struct(RoleData)19_storage)"
      },
      {
        "astId": 7152,
        "contract": "contracts/pre-launch-event/PlaybuxSBT.sol:PlaybuxSBT",
        "label": "tokenSupplyByType",
        "offset": 0,
        "slot": "11",
        "type": "t_mapping(t_uint256,t_uint256)"
      },
      {
        "astId": 7159,
        "contract": "contracts/pre-launch-event/PlaybuxSBT.sol:PlaybuxSBT",
        "label": "baseURI",
        "offset": 0,
        "slot": "12",
        "type": "t_string_storage"
      },
      {
        "astId": 7162,
        "contract": "contracts/pre-launch-event/PlaybuxSBT.sol:PlaybuxSBT",
        "label": "soulbound",
        "offset": 0,
        "slot": "13",
        "type": "t_bool"
      }
    ],
    "types": {
      "t_address": {
        "encoding": "inplace",
        "label": "address",
        "numberOfBytes": "20"
      },
      "t_array(t_uint256)dyn_storage": {
        "base": "t_uint256",
        "encoding": "dynamic_array",
        "label": "uint256[]",
        "numberOfBytes": "32"
      },
      "t_bool": {
        "encoding": "inplace",
        "label": "bool",
        "numberOfBytes": "1"
      },
      "t_bytes32": {
        "encoding": "inplace",
        "label": "bytes32",
        "numberOfBytes": "32"
      },
      "t_mapping(t_address,t_bool)": {
        "encoding": "mapping",
        "key": "t_address",
        "label": "mapping(address => bool)",
        "numberOfBytes": "32",
        "value": "t_bool"
      },
      "t_mapping(t_address,t_mapping(t_address,t_bool))": {
        "encoding": "mapping",
        "key": "t_address",
        "label": "mapping(address => mapping(address => bool))",
        "numberOfBytes": "32",
        "value": "t_mapping(t_address,t_bool)"
      },
      "t_mapping(t_address,t_mapping(t_uint256,t_uint256))": {
        "encoding": "mapping",
        "key": "t_address",
        "label": "mapping(address => mapping(uint256 => uint256))",
        "numberOfBytes": "32",
        "value": "t_mapping(t_uint256,t_uint256)"
      },
      "t_mapping(t_address,t_uint256)": {
        "encoding": "mapping",
        "key": "t_address",
        "label": "mapping(address => uint256)",
        "numberOfBytes": "32",
        "value": "t_uint256"
      },
      "t_mapping(t_bytes32,t_struct(RoleData)19_storage)": {
        "encoding": "mapping",
        "key": "t_bytes32",
        "label": "mapping(bytes32 => struct AccessControl.RoleData)",
        "numberOfBytes": "32",
        "value": "t_struct(RoleData)19_storage"
      },
      "t_mapping(t_uint256,t_address)": {
        "encoding": "mapping",
        "key": "t_uint256",
        "label": "mapping(uint256 => address)",
        "numberOfBytes": "32",
        "value": "t_address"
      },
      "t_mapping(t_uint256,t_uint256)": {
        "encoding": "mapping",
        "key": "t_uint256",
        "label": "mapping(uint256 => uint256)",
        "numberOfBytes": "32",
        "value": "t_uint256"
      },
      "t_string_storage": {
        "encoding": "bytes",
        "label": "string",
        "numberOfBytes": "32"
      },
      "t_struct(RoleData)19_storage": {
        "encoding": "inplace",
        "label": "struct AccessControl.RoleData",
        "members": [
          {
            "astId": 16,
            "contract": "contracts/pre-launch-event/PlaybuxSBT.sol:PlaybuxSBT",
            "label": "members",
            "offset": 0,
            "slot": "0",
            "type": "t_mapping(t_address,t_bool)"
          },
          {
            "astId": 18,
            "contract": "contracts/pre-launch-event/PlaybuxSBT.sol:PlaybuxSBT",
            "label": "adminRole",
            "offset": 0,
            "slot": "1",
            "type": "t_bytes32"
          }
        ],
        "numberOfBytes": "64"
      },
      "t_uint256": {
        "encoding": "inplace",
        "label": "uint256",
        "numberOfBytes": "32"
      }
    }
  }
}