{
  "address": "0xF1BBe9912C864d53052482B4CF2D5d51b4b96399",
  "abi": [
    {
      "inputs": [
        {
          "internalType": "contract IERC20",
          "name": "_busd",
          "type": "address"
        },
        {
          "internalType": "contract IPlaybuxSBT",
          "name": "_playbuxSBT",
          "type": "address"
        }
      ],
      "stateMutability": "nonpayable",
      "type": "constructor"
    },
    {
      "anonymous": false,
      "inputs": [
        {
          "indexed": false,
          "internalType": "address",
          "name": "oldAdmin",
          "type": "address"
        },
        {
          "indexed": false,
          "internalType": "address",
          "name": "newAdmin",
          "type": "address"
        }
      ],
      "name": "AdminChanged",
      "type": "event"
    },
    {
      "anonymous": false,
      "inputs": [
        {
          "indexed": true,
          "internalType": "address",
          "name": "_receiver",
          "type": "address"
        }
      ],
      "name": "Mint",
      "type": "event"
    },
    {
      "anonymous": false,
      "inputs": [
        {
          "indexed": false,
          "internalType": "address",
          "name": "account",
          "type": "address"
        }
      ],
      "name": "Paused",
      "type": "event"
    },
    {
      "anonymous": false,
      "inputs": [
        {
          "indexed": true,
          "internalType": "bytes32",
          "name": "role",
          "type": "bytes32"
        },
        {
          "indexed": true,
          "internalType": "bytes32",
          "name": "previousAdminRole",
          "type": "bytes32"
        },
        {
          "indexed": true,
          "internalType": "bytes32",
          "name": "newAdminRole",
          "type": "bytes32"
        }
      ],
      "name": "RoleAdminChanged",
      "type": "event"
    },
    {
      "anonymous": false,
      "inputs": [
        {
          "indexed": true,
          "internalType": "bytes32",
          "name": "role",
          "type": "bytes32"
        },
        {
          "indexed": true,
          "internalType": "address",
          "name": "account",
          "type": "address"
        },
        {
          "indexed": true,
          "internalType": "address",
          "name": "sender",
          "type": "address"
        }
      ],
      "name": "RoleGranted",
      "type": "event"
    },
    {
      "anonymous": false,
      "inputs": [
        {
          "indexed": true,
          "internalType": "bytes32",
          "name": "role",
          "type": "bytes32"
        },
        {
          "indexed": true,
          "internalType": "address",
          "name": "account",
          "type": "address"
        },
        {
          "indexed": true,
          "internalType": "address",
          "name": "sender",
          "type": "address"
        }
      ],
      "name": "RoleRevoked",
      "type": "event"
    },
    {
      "anonymous": false,
      "inputs": [
        {
          "indexed": false,
          "internalType": "address",
          "name": "account",
          "type": "address"
        }
      ],
      "name": "Unpaused",
      "type": "event"
    },
    {
      "anonymous": false,
      "inputs": [
        {
          "indexed": true,
          "internalType": "address",
          "name": "_from",
          "type": "address"
        },
        {
          "indexed": false,
          "internalType": "uint256",
          "name": "_value",
          "type": "uint256"
        }
      ],
      "name": "Withdraw",
      "type": "event"
    },
    {
      "stateMutability": "nonpayable",
      "type": "fallback"
    },
    {
      "inputs": [],
      "name": "DEFAULT_ADMIN_ROLE",
      "outputs": [
        {
          "internalType": "bytes32",
          "name": "",
          "type": "bytes32"
        }
      ],
      "stateMutability": "view",
      "type": "function"
    },
    {
      "inputs": [
        {
          "internalType": "uint256",
          "name": "",
          "type": "uint256"
        }
      ],
      "name": "SBTPriceByType",
      "outputs": [
        {
          "internalType": "uint256",
          "name": "",
          "type": "uint256"
        }
      ],
      "stateMutability": "view",
      "type": "function"
    },
    {
      "inputs": [],
      "name": "busd",
      "outputs": [
        {
          "internalType": "contract IERC20",
          "name": "",
          "type": "address"
        }
      ],
      "stateMutability": "view",
      "type": "function"
    },
    {
      "inputs": [
        {
          "internalType": "bytes32",
          "name": "role",
          "type": "bytes32"
        }
      ],
      "name": "getRoleAdmin",
      "outputs": [
        {
          "internalType": "bytes32",
          "name": "",
          "type": "bytes32"
        }
      ],
      "stateMutability": "view",
      "type": "function"
    },
    {
      "inputs": [
        {
          "internalType": "bytes32",
          "name": "role",
          "type": "bytes32"
        },
        {
          "internalType": "address",
          "name": "account",
          "type": "address"
        }
      ],
      "name": "grantRole",
      "outputs": [],
      "stateMutability": "nonpayable",
      "type": "function"
    },
    {
      "inputs": [
        {
          "internalType": "bytes32",
          "name": "role",
          "type": "bytes32"
        },
        {
          "internalType": "address",
          "name": "account",
          "type": "address"
        }
      ],
      "name": "hasRole",
      "outputs": [
        {
          "internalType": "bool",
          "name": "",
          "type": "bool"
        }
      ],
      "stateMutability": "view",
      "type": "function"
    },
    {
      "inputs": [
        {
          "internalType": "uint256",
          "name": "_type",
          "type": "uint256"
        }
      ],
      "name": "mint",
      "outputs": [],
      "stateMutability": "nonpayable",
      "type": "function"
    },
    {
      "inputs": [
        {
          "internalType": "uint256",
          "name": "",
          "type": "uint256"
        }
      ],
      "name": "openToSaleByType",
      "outputs": [
        {
          "internalType": "bool",
          "name": "",
          "type": "bool"
        }
      ],
      "stateMutability": "view",
      "type": "function"
    },
    {
      "inputs": [],
      "name": "pause",
      "outputs": [],
      "stateMutability": "nonpayable",
      "type": "function"
    },
    {
      "inputs": [],
      "name": "paused",
      "outputs": [
        {
          "internalType": "bool",
          "name": "",
          "type": "bool"
        }
      ],
      "stateMutability": "view",
      "type": "function"
    },
    {
      "inputs": [],
      "name": "playbuxSBT",
      "outputs": [
        {
          "internalType": "contract IPlaybuxSBT",
          "name": "",
          "type": "address"
        }
      ],
      "stateMutability": "view",
      "type": "function"
    },
    {
      "inputs": [
        {
          "internalType": "bytes32",
          "name": "role",
          "type": "bytes32"
        },
        {
          "internalType": "address",
          "name": "account",
          "type": "address"
        }
      ],
      "name": "renounceRole",
      "outputs": [],
      "stateMutability": "nonpayable",
      "type": "function"
    },
    {
      "inputs": [
        {
          "internalType": "bytes32",
          "name": "role",
          "type": "bytes32"
        },
        {
          "internalType": "address",
          "name": "account",
          "type": "address"
        }
      ],
      "name": "revokeRole",
      "outputs": [],
      "stateMutability": "nonpayable",
      "type": "function"
    },
    {
      "inputs": [
        {
          "internalType": "uint256",
          "name": "_type",
          "type": "uint256"
        },
        {
          "internalType": "bool",
          "name": "_openToSale",
          "type": "bool"
        }
      ],
      "name": "setOpenToSaleByType",
      "outputs": [],
      "stateMutability": "nonpayable",
      "type": "function"
    },
    {
      "inputs": [
        {
          "internalType": "uint256",
          "name": "_type",
          "type": "uint256"
        },
        {
          "internalType": "uint256",
          "name": "_newPrice",
          "type": "uint256"
        }
      ],
      "name": "setSBTPriceByType",
      "outputs": [],
      "stateMutability": "nonpayable",
      "type": "function"
    },
    {
      "inputs": [
        {
          "internalType": "bytes4",
          "name": "interfaceId",
          "type": "bytes4"
        }
      ],
      "name": "supportsInterface",
      "outputs": [
        {
          "internalType": "bool",
          "name": "",
          "type": "bool"
        }
      ],
      "stateMutability": "view",
      "type": "function"
    },
    {
      "inputs": [],
      "name": "unpause",
      "outputs": [],
      "stateMutability": "nonpayable",
      "type": "function"
    },
    {
      "inputs": [
        {
          "internalType": "contract IERC20",
          "name": "_token",
          "type": "address"
        }
      ],
      "name": "withdraw",
      "outputs": [],
      "stateMutability": "nonpayable",
      "type": "function"
    }
  ],
  "transactionHash": "0xb9fa68c64dbe910a9b5d86d24c2253d3a06d6214770e8670756e7bdcd071e303",
  "args": [
    "0x1d5932ADE681eDd8CB9e99df7CE941a862a754Cc",
    "0x171Cd7e63d86404cA5a15587f0248BEc7e707D20"
  ],
  "numDeployments": 2,
  "solcInputHash": "09bdd4c10bb8cd6422c01269e189411a",
  "bytecode": "0x60c06040523480156200001157600080fd5b506040516200141d3803806200141d83398101604081905262000034916200021c565b6001805460ff191681556002556001600160a01b03828116608052811660a05262000061600033620000d6565b6001600081905267297e9d28866b00007fa15bc60c955c405d20d9149c709e2460f1c2d9a497496a7f46004d1772c3054c5560046020527fabd6e7cb50984ff9c2f3e18a2660c3353dadf4e3291deeb275dae2cd1e44fe05805460ff19169091179055620000ce62000177565b50506200025b565b6000828152602081815260408083206001600160a01b038516845290915290205460ff1662000173576000828152602081815260408083206001600160a01b03851684529091529020805460ff19166001179055620001323390565b6001600160a01b0316816001600160a01b0316837f2f8788117e7eff1d82e926ec794901d17c78024a50270940304540a733656f0d60405160405180910390a45b5050565b60015460ff1615620001c25760405162461bcd60e51b815260206004820152601060248201526f14185d5cd8589b194e881c185d5cd95960821b604482015260640160405180910390fd5b6001805460ff1916811790556040805133815290517f62e78cea01bee320cd4e420270b5ea74000d11b0c9f74754ebdbfc544b05a2589181900360200190a1565b6001600160a01b03811681146200021957600080fd5b50565b600080604083850312156200023057600080fd5b82516200023d8162000203565b6020840151909250620002508162000203565b809150509250929050565b60805160a051611187620002966000396000818161027701526109c4015260008181610193015281816107de01526108cc01526111876000f3fe608060405234801561001057600080fd5b506004361061010d5760003560e01c80635c975abb1161009c578063a0712d681161006e578063a0712d6814610257578063a217fddf1461026a578063a5d5f79a14610272578063d547741f14610299578063e3329cae146102ac57005b80635c975abb1461020e5780638456cb591461021957806391d1485414610221578063a05875421461023457005b80633ca5b234116100e05780633ca5b2341461018e5780633f4ba83a146101cd578063495200c4146101d55780634ee7af2b146101e857806351cff8d9146101fb57005b806301ffc9a71461010f578063248a9ca3146101375780632f2ff15d1461016857806336568abe1461017b575b005b61012261011d366004610eb9565b6102cc565b60405190151581526020015b60405180910390f35b61015a610145366004610ee3565b60009081526020819052604090206001015490565b60405190815260200161012e565b61010d610176366004610f11565b610303565b61010d610189366004610f11565b61032d565b6101b57f000000000000000000000000000000000000000000000000000000000000000081565b6040516001600160a01b03909116815260200161012e565b61010d6103b0565b61010d6101e3366004610f41565b6103c6565b61010d6101f6366004610f71565b610484565b61010d610209366004610f96565b610500565b60015460ff16610122565b61010d610698565b61012261022f366004610f11565b6106ab565b610122610242366004610ee3565b60046020526000908152604090205460ff1681565b61010d610265366004610ee3565b6106d4565b61015a600081565b6101b57f000000000000000000000000000000000000000000000000000000000000000081565b61010d6102a7366004610f11565b610a8e565b61015a6102ba366004610ee3565b60036020526000908152604090205481565b60006001600160e01b03198216637965db0b60e01b14806102fd57506301ffc9a760e01b6001600160e01b03198316145b92915050565b60008281526020819052604090206001015461031e81610ab3565b6103288383610abd565b505050565b6001600160a01b03811633146103a25760405162461bcd60e51b815260206004820152602f60248201527f416363657373436f6e74726f6c3a2063616e206f6e6c792072656e6f756e636560448201526e103937b632b9903337b91039b2b63360891b60648201526084015b60405180910390fd5b6103ac8282610b41565b5050565b60006103bb81610ab3565b6103c3610ba6565b50565b60006103d181610ab3565b600083116104215760405162461bcd60e51b815260206004820152601f60248201527f5342542074797065206d7573742062652067726561746572207468616e2030006044820152606401610399565b600082116104715760405162461bcd60e51b815260206004820181905260248201527f534254207072696365206d7573742062652067726561746572207468616e20306044820152606401610399565b5060009182526003602052604090912055565b600061048f81610ab3565b600083116104df5760405162461bcd60e51b815260206004820152601f60248201527f5342542074797065206d7573742062652067726561746572207468616e2030006044820152606401610399565b50600091825260046020526040909120805460ff1916911515919091179055565b600061050b81610ab3565b6001600160a01b03821663a9059cbb336040516370a0823160e01b81523060048201526001600160a01b038616906370a0823190602401602060405180830381865afa15801561055f573d6000803e3d6000fd5b505050506040513d601f19601f820116820180604052508101906105839190610fb3565b6040516001600160e01b031960e085901b1681526001600160a01b03909216600483015260248201526044016020604051808303816000875af11580156105ce573d6000803e3d6000fd5b505050506040513d601f19601f820116820180604052508101906105f29190610fcc565b50336040516370a0823160e01b81523060048201526001600160a01b03918216917f884edad9ce6fa2440d8a54cc123490eb96d2768479d49ff9c7366125a942436491908516906370a0823190602401602060405180830381865afa15801561065f573d6000803e3d6000fd5b505050506040513d601f19601f820116820180604052508101906106839190610fb3565b60405190815260200160405180910390a25050565b60006106a381610ab3565b6103c3610c39565b6000918252602082815260408084206001600160a01b0393909316845291905290205460ff1690565b60028054036107255760405162461bcd60e51b815260206004820152601f60248201527f5265656e7472616e637947756172643a207265656e7472616e742063616c6c006044820152606401610399565b6002805560015460ff161561076f5760405162461bcd60e51b815260206004820152601060248201526f14185d5cd8589b194e881c185d5cd95960821b6044820152606401610399565b60008181526004602052604090205460ff166107cd5760405162461bcd60e51b815260206004820152601c60248201527f5342542074797065206973206e6f74206f70656e20746f2073616c65000000006044820152606401610399565b6000818152600360205260409020547f00000000000000000000000000000000000000000000000000000000000000006001600160a01b03166370a08231336040516001600160e01b031960e084901b1681526001600160a01b039091166004820152602401602060405180830381865afa158015610850573d6000803e3d6000fd5b505050506040513d601f19601f820116820180604052508101906108749190610fb3565b10156108c25760405162461bcd60e51b815260206004820152601960248201527f496e73756666696369656e7420425553442062616c616e6365000000000000006044820152606401610399565b6001600160a01b037f0000000000000000000000000000000000000000000000000000000000000000166323b872dd336000848152600360205260409081902054905160e084901b6001600160e01b03191681526001600160a01b03909216600483015230602483015260448201526064016020604051808303816000875af1158015610953573d6000803e3d6000fd5b505050506040513d601f19601f820116820180604052508101906109779190610fcc565b6109ba5760405162461bcd60e51b8152602060048201526014602482015273151c985b9cd9995c88109554d10819985a5b195960621b6044820152606401610399565b6001600160a01b037f00000000000000000000000000000000000000000000000000000000000000001663449a52f8336040516001600160e01b031960e084901b1681526001600160a01b03909116600482015260248101849052604401600060405180830381600087803b158015610a3257600080fd5b505af1158015610a46573d6000803e3d6000fd5b50505050610a513390565b6001600160a01b03167f3c3284d117c92d0b1699230960384e794dcba184cc48ff114fe4fed20c9b056560405160405180910390a2506001600255565b600082815260208190526040902060010154610aa981610ab3565b6103288383610b41565b6103c38133610cb2565b610ac782826106ab565b6103ac576000828152602081815260408083206001600160a01b03851684529091529020805460ff19166001179055610afd3390565b6001600160a01b0316816001600160a01b0316837f2f8788117e7eff1d82e926ec794901d17c78024a50270940304540a733656f0d60405160405180910390a45050565b610b4b82826106ab565b156103ac576000828152602081815260408083206001600160a01b0385168085529252808320805460ff1916905551339285917ff6391f5c32d9c69d2a47ea670b442974b53935d1edc7fd64eb21e047a839171b9190a45050565b60015460ff16610bef5760405162461bcd60e51b815260206004820152601460248201527314185d5cd8589b194e881b9bdd081c185d5cd95960621b6044820152606401610399565b6001805460ff191690557f5db9ee0a495bf2e6ff9c91a7834c1ba4fdd244a5e8aa4e537bd38aeae4b073aa335b6040516001600160a01b03909116815260200160405180910390a1565b60015460ff1615610c7f5760405162461bcd60e51b815260206004820152601060248201526f14185d5cd8589b194e881c185d5cd95960821b6044820152606401610399565b6001805460ff1916811790557f62e78cea01bee320cd4e420270b5ea74000d11b0c9f74754ebdbfc544b05a25833610c1c565b610cbc82826106ab565b6103ac57610cd4816001600160a01b03166014610d16565b610cdf836020610d16565b604051602001610cf0929190611019565b60408051601f198184030181529082905262461bcd60e51b82526103999160040161108e565b60606000610d258360026110d7565b610d309060026110f6565b67ffffffffffffffff811115610d4857610d4861110e565b6040519080825280601f01601f191660200182016040528015610d72576020820181803683370190505b509050600360fc1b81600081518110610d8d57610d8d611124565b60200101906001600160f81b031916908160001a905350600f60fb1b81600181518110610dbc57610dbc611124565b60200101906001600160f81b031916908160001a9053506000610de08460026110d7565b610deb9060016110f6565b90505b6001811115610e63576f181899199a1a9b1b9c1cb0b131b232b360811b85600f1660108110610e1f57610e1f611124565b1a60f81b828281518110610e3557610e35611124565b60200101906001600160f81b031916908160001a90535060049490941c93610e5c8161113a565b9050610dee565b508315610eb25760405162461bcd60e51b815260206004820181905260248201527f537472696e67733a20686578206c656e67746820696e73756666696369656e746044820152606401610399565b9392505050565b600060208284031215610ecb57600080fd5b81356001600160e01b031981168114610eb257600080fd5b600060208284031215610ef557600080fd5b5035919050565b6001600160a01b03811681146103c357600080fd5b60008060408385031215610f2457600080fd5b823591506020830135610f3681610efc565b809150509250929050565b60008060408385031215610f5457600080fd5b50508035926020909101359150565b80151581146103c357600080fd5b60008060408385031215610f8457600080fd5b823591506020830135610f3681610f63565b600060208284031215610fa857600080fd5b8135610eb281610efc565b600060208284031215610fc557600080fd5b5051919050565b600060208284031215610fde57600080fd5b8151610eb281610f63565b60005b83811015611004578181015183820152602001610fec565b83811115611013576000848401525b50505050565b7f416363657373436f6e74726f6c3a206163636f756e7420000000000000000000815260008351611051816017850160208801610fe9565b7001034b99036b4b9b9b4b733903937b6329607d1b6017918401918201528351611082816028840160208801610fe9565b01602801949350505050565b60208152600082518060208401526110ad816040850160208701610fe9565b601f01601f19169190910160400192915050565b634e487b7160e01b600052601160045260246000fd5b60008160001904831182151516156110f1576110f16110c1565b500290565b60008219821115611109576111096110c1565b500190565b634e487b7160e01b600052604160045260246000fd5b634e487b7160e01b600052603260045260246000fd5b600081611149576111496110c1565b50600019019056fea26469706673582212205cbc2acbc65aa48f70a0d8880984a63cdc0304c626e6195f2cecdacbabf3c96364736f6c634300080e0033",
  "devdoc": {
    "kind": "dev",
    "methods": {
      "getRoleAdmin(bytes32)": {
        "details": "Returns the admin role that controls `role`. See {grantRole} and {revokeRole}. To change a role's admin, use {_setRoleAdmin}."
      },
      "grantRole(bytes32,address)": {
        "details": "Grants `role` to `account`. If `account` had not been already granted `role`, emits a {RoleGranted} event. Requirements: - the caller must have ``role``'s admin role."
      },
      "hasRole(bytes32,address)": {
        "details": "Returns `true` if `account` has been granted `role`."
      },
      "paused()": {
        "details": "Returns true if the contract is paused, and false otherwise."
      },
      "renounceRole(bytes32,address)": {
        "details": "Revokes `role` from the calling account. Roles are often managed via {grantRole} and {revokeRole}: this function's purpose is to provide a mechanism for accounts to lose their privileges if they are compromised (such as when a trusted device is misplaced). If the calling account had been revoked `role`, emits a {RoleRevoked} event. Requirements: - the caller must be `account`."
      },
      "revokeRole(bytes32,address)": {
        "details": "Revokes `role` from `account`. If `account` had been granted `role`, emits a {RoleRevoked} event. Requirements: - the caller must have ``role``'s admin role."
      },
      "supportsInterface(bytes4)": {
        "details": "See {IERC165-supportsInterface}."
      }
    },
    "version": 1
  },
  "userdoc": {
    "kind": "user",
    "methods": {},
    "version": 1
  },
  "storageLayout": {
    "storage": [
      {
        "astId": 24,
        "contract": "contracts/pre-launch-event/PlaybuxSBTFactory.sol:PlaybuxSBTFactory",
        "label": "_roles",
        "offset": 0,
        "slot": "0",
        "type": "t_mapping(t_bytes32,t_struct(RoleData)19_storage)"
      },
      {
        "astId": 534,
        "contract": "contracts/pre-launch-event/PlaybuxSBTFactory.sol:PlaybuxSBTFactory",
        "label": "_paused",
        "offset": 0,
        "slot": "1",
        "type": "t_bool"
      },
      {
        "astId": 619,
        "contract": "contracts/pre-launch-event/PlaybuxSBTFactory.sol:PlaybuxSBTFactory",
        "label": "_status",
        "offset": 0,
        "slot": "2",
        "type": "t_uint256"
      },
      {
        "astId": 7647,
        "contract": "contracts/pre-launch-event/PlaybuxSBTFactory.sol:PlaybuxSBTFactory",
        "label": "SBTPriceByType",
        "offset": 0,
        "slot": "3",
        "type": "t_mapping(t_uint256,t_uint256)"
      },
      {
        "astId": 7651,
        "contract": "contracts/pre-launch-event/PlaybuxSBTFactory.sol:PlaybuxSBTFactory",
        "label": "openToSaleByType",
        "offset": 0,
        "slot": "4",
        "type": "t_mapping(t_uint256,t_bool)"
      }
    ],
    "types": {
      "t_address": {
        "encoding": "inplace",
        "label": "address",
        "numberOfBytes": "20"
      },
      "t_bool": {
        "encoding": "inplace",
        "label": "bool",
        "numberOfBytes": "1"
      },
      "t_bytes32": {
        "encoding": "inplace",
        "label": "bytes32",
        "numberOfBytes": "32"
      },
      "t_mapping(t_address,t_bool)": {
        "encoding": "mapping",
        "key": "t_address",
        "label": "mapping(address => bool)",
        "numberOfBytes": "32",
        "value": "t_bool"
      },
      "t_mapping(t_bytes32,t_struct(RoleData)19_storage)": {
        "encoding": "mapping",
        "key": "t_bytes32",
        "label": "mapping(bytes32 => struct AccessControl.RoleData)",
        "numberOfBytes": "32",
        "value": "t_struct(RoleData)19_storage"
      },
      "t_mapping(t_uint256,t_bool)": {
        "encoding": "mapping",
        "key": "t_uint256",
        "label": "mapping(uint256 => bool)",
        "numberOfBytes": "32",
        "value": "t_bool"
      },
      "t_mapping(t_uint256,t_uint256)": {
        "encoding": "mapping",
        "key": "t_uint256",
        "label": "mapping(uint256 => uint256)",
        "numberOfBytes": "32",
        "value": "t_uint256"
      },
      "t_struct(RoleData)19_storage": {
        "encoding": "inplace",
        "label": "struct AccessControl.RoleData",
        "members": [
          {
            "astId": 16,
            "contract": "contracts/pre-launch-event/PlaybuxSBTFactory.sol:PlaybuxSBTFactory",
            "label": "members",
            "offset": 0,
            "slot": "0",
            "type": "t_mapping(t_address,t_bool)"
          },
          {
            "astId": 18,
            "contract": "contracts/pre-launch-event/PlaybuxSBTFactory.sol:PlaybuxSBTFactory",
            "label": "adminRole",
            "offset": 0,
            "slot": "1",
            "type": "t_bytes32"
          }
        ],
        "numberOfBytes": "64"
      },
      "t_uint256": {
        "encoding": "inplace",
        "label": "uint256",
        "numberOfBytes": "32"
      }
    }
  }
}