{
  "address": "0x171Cd7e63d86404cA5a15587f0248BEc7e707D20",
  "abi": [
    {
      "inputs": [
        {
          "internalType": "string",
          "name": "_uri",
          "type": "string"
        }
      ],
      "stateMutability": "nonpayable",
      "type": "constructor"
    },
    {
      "anonymous": false,
      "inputs": [
        {
          "indexed": true,
          "internalType": "address",
          "name": "owner",
          "type": "address"
        },
        {
          "indexed": true,
          "internalType": "address",
          "name": "approved",
          "type": "address"
        },
        {
          "indexed": true,
          "internalType": "uint256",
          "name": "tokenId",
          "type": "uint256"
        }
      ],
      "name": "Approval",
      "type": "event"
    },
    {
      "anonymous": false,
      "inputs": [
        {
          "indexed": true,
          "internalType": "address",
          "name": "owner",
          "type": "address"
        },
        {
          "indexed": true,
          "internalType": "address",
          "name": "operator",
          "type": "address"
        },
        {
          "indexed": false,
          "internalType": "bool",
          "name": "approved",
          "type": "bool"
        }
      ],
      "name": "ApprovalForAll",
      "type": "event"
    },
    {
      "anonymous": false,
      "inputs": [
        {
          "indexed": false,
          "internalType": "uint256",
          "name": "tokenId",
          "type": "uint256"
        }
      ],
      "name": "Locked",
      "type": "event"
    },
    {
      "anonymous": false,
      "inputs": [
        {
          "indexed": true,
          "internalType": "bytes32",
          "name": "role",
          "type": "bytes32"
        },
        {
          "indexed": true,
          "internalType": "bytes32",
          "name": "previousAdminRole",
          "type": "bytes32"
        },
        {
          "indexed": true,
          "internalType": "bytes32",
          "name": "newAdminRole",
          "type": "bytes32"
        }
      ],
      "name": "RoleAdminChanged",
      "type": "event"
    },
    {
      "anonymous": false,
      "inputs": [
        {
          "indexed": true,
          "internalType": "bytes32",
          "name": "role",
          "type": "bytes32"
        },
        {
          "indexed": true,
          "internalType": "address",
          "name": "account",
          "type": "address"
        },
        {
          "indexed": true,
          "internalType": "address",
          "name": "sender",
          "type": "address"
        }
      ],
      "name": "RoleGranted",
      "type": "event"
    },
    {
      "anonymous": false,
      "inputs": [
        {
          "indexed": true,
          "internalType": "bytes32",
          "name": "role",
          "type": "bytes32"
        },
        {
          "indexed": true,
          "internalType": "address",
          "name": "account",
          "type": "address"
        },
        {
          "indexed": true,
          "internalType": "address",
          "name": "sender",
          "type": "address"
        }
      ],
      "name": "RoleRevoked",
      "type": "event"
    },
    {
      "anonymous": false,
      "inputs": [
        {
          "indexed": false,
          "internalType": "string",
          "name": "_baseURI",
          "type": "string"
        }
      ],
      "name": "SetBaseURI",
      "type": "event"
    },
    {
      "anonymous": false,
      "inputs": [
        {
          "indexed": false,
          "internalType": "bool",
          "name": "_soulbound",
          "type": "bool"
        }
      ],
      "name": "SetSoulbound",
      "type": "event"
    },
    {
      "anonymous": false,
      "inputs": [
        {
          "indexed": true,
          "internalType": "address",
          "name": "from",
          "type": "address"
        },
        {
          "indexed": true,
          "internalType": "address",
          "name": "to",
          "type": "address"
        },
        {
          "indexed": true,
          "internalType": "uint256",
          "name": "tokenId",
          "type": "uint256"
        }
      ],
      "name": "Transfer",
      "type": "event"
    },
    {
      "inputs": [],
      "name": "DEFAULT_ADMIN_ROLE",
      "outputs": [
        {
          "internalType": "bytes32",
          "name": "",
          "type": "bytes32"
        }
      ],
      "stateMutability": "view",
      "type": "function"
    },
    {
      "inputs": [
        {
          "internalType": "address",
          "name": "to",
          "type": "address"
        },
        {
          "internalType": "uint256",
          "name": "tokenId",
          "type": "uint256"
        }
      ],
      "name": "approve",
      "outputs": [],
      "stateMutability": "nonpayable",
      "type": "function"
    },
    {
      "inputs": [
        {
          "internalType": "address",
          "name": "owner",
          "type": "address"
        }
      ],
      "name": "balanceOf",
      "outputs": [
        {
          "internalType": "uint256",
          "name": "",
          "type": "uint256"
        }
      ],
      "stateMutability": "view",
      "type": "function"
    },
    {
      "inputs": [],
      "name": "baseURI",
      "outputs": [
        {
          "internalType": "string",
          "name": "",
          "type": "string"
        }
      ],
      "stateMutability": "view",
      "type": "function"
    },
    {
      "inputs": [
        {
          "internalType": "uint256",
          "name": "_tokenId",
          "type": "uint256"
        }
      ],
      "name": "burnByTokenId",
      "outputs": [],
      "stateMutability": "nonpayable",
      "type": "function"
    },
    {
      "inputs": [
        {
          "internalType": "address",
          "name": "_owner",
          "type": "address"
        },
        {
          "internalType": "uint256",
          "name": "_type",
          "type": "uint256"
        }
      ],
      "name": "checkOwnerHasTokenByType",
      "outputs": [
        {
          "internalType": "bool",
          "name": "",
          "type": "bool"
        }
      ],
      "stateMutability": "view",
      "type": "function"
    },
    {
      "inputs": [
        {
          "internalType": "uint256",
          "name": "_tokenId",
          "type": "uint256"
        }
      ],
      "name": "findTokenIndexByTokenId",
      "outputs": [
        {
          "internalType": "uint256",
          "name": "",
          "type": "uint256"
        }
      ],
      "stateMutability": "pure",
      "type": "function"
    },
    {
      "inputs": [
        {
          "internalType": "uint256",
          "name": "_tokenId",
          "type": "uint256"
        }
      ],
      "name": "findTypeByTokenId",
      "outputs": [
        {
          "internalType": "uint256",
          "name": "",
          "type": "uint256"
        }
      ],
      "stateMutability": "pure",
      "type": "function"
    },
    {
      "inputs": [
        {
          "internalType": "uint256",
          "name": "_tokenId",
          "type": "uint256"
        }
      ],
      "name": "findTypeStrByTokenId",
      "outputs": [
        {
          "internalType": "string",
          "name": "",
          "type": "string"
        }
      ],
      "stateMutability": "pure",
      "type": "function"
    },
    {
      "inputs": [
        {
          "internalType": "uint256",
          "name": "tokenId",
          "type": "uint256"
        }
      ],
      "name": "getApproved",
      "outputs": [
        {
          "internalType": "address",
          "name": "",
          "type": "address"
        }
      ],
      "stateMutability": "view",
      "type": "function"
    },
    {
      "inputs": [
        {
          "internalType": "bytes32",
          "name": "role",
          "type": "bytes32"
        }
      ],
      "name": "getRoleAdmin",
      "outputs": [
        {
          "internalType": "bytes32",
          "name": "",
          "type": "bytes32"
        }
      ],
      "stateMutability": "view",
      "type": "function"
    },
    {
      "inputs": [
        {
          "internalType": "bytes32",
          "name": "role",
          "type": "bytes32"
        },
        {
          "internalType": "address",
          "name": "account",
          "type": "address"
        }
      ],
      "name": "grantRole",
      "outputs": [],
      "stateMutability": "nonpayable",
      "type": "function"
    },
    {
      "inputs": [
        {
          "internalType": "bytes32",
          "name": "role",
          "type": "bytes32"
        },
        {
          "internalType": "address",
          "name": "account",
          "type": "address"
        }
      ],
      "name": "hasRole",
      "outputs": [
        {
          "internalType": "bool",
          "name": "",
          "type": "bool"
        }
      ],
      "stateMutability": "view",
      "type": "function"
    },
    {
      "inputs": [
        {
          "internalType": "address",
          "name": "owner",
          "type": "address"
        },
        {
          "internalType": "address",
          "name": "operator",
          "type": "address"
        }
      ],
      "name": "isApprovedForAll",
      "outputs": [
        {
          "internalType": "bool",
          "name": "",
          "type": "bool"
        }
      ],
      "stateMutability": "view",
      "type": "function"
    },
    {
      "inputs": [
        {
          "internalType": "uint256",
          "name": "_tokenId",
          "type": "uint256"
        }
      ],
      "name": "locked",
      "outputs": [
        {
          "internalType": "bool",
          "name": "",
          "type": "bool"
        }
      ],
      "stateMutability": "view",
      "type": "function"
    },
    {
      "inputs": [
        {
          "internalType": "address",
          "name": "_to",
          "type": "address"
        },
        {
          "internalType": "uint256",
          "name": "_tokenId",
          "type": "uint256"
        }
      ],
      "name": "mintByTokenId",
      "outputs": [],
      "stateMutability": "nonpayable",
      "type": "function"
    },
    {
      "inputs": [
        {
          "internalType": "address",
          "name": "_to",
          "type": "address"
        },
        {
          "internalType": "uint256",
          "name": "_type",
          "type": "uint256"
        }
      ],
      "name": "mintTo",
      "outputs": [],
      "stateMutability": "nonpayable",
      "type": "function"
    },
    {
      "inputs": [],
      "name": "name",
      "outputs": [
        {
          "internalType": "string",
          "name": "",
          "type": "string"
        }
      ],
      "stateMutability": "view",
      "type": "function"
    },
    {
      "inputs": [
        {
          "internalType": "uint256",
          "name": "tokenId",
          "type": "uint256"
        }
      ],
      "name": "ownerOf",
      "outputs": [
        {
          "internalType": "address",
          "name": "",
          "type": "address"
        }
      ],
      "stateMutability": "view",
      "type": "function"
    },
    {
      "inputs": [
        {
          "internalType": "bytes32",
          "name": "role",
          "type": "bytes32"
        },
        {
          "internalType": "address",
          "name": "account",
          "type": "address"
        }
      ],
      "name": "renounceRole",
      "outputs": [],
      "stateMutability": "nonpayable",
      "type": "function"
    },
    {
      "inputs": [
        {
          "internalType": "bytes32",
          "name": "role",
          "type": "bytes32"
        },
        {
          "internalType": "address",
          "name": "account",
          "type": "address"
        }
      ],
      "name": "revokeRole",
      "outputs": [],
      "stateMutability": "nonpayable",
      "type": "function"
    },
    {
      "inputs": [
        {
          "internalType": "address",
          "name": "from",
          "type": "address"
        },
        {
          "internalType": "address",
          "name": "to",
          "type": "address"
        },
        {
          "internalType": "uint256",
          "name": "tokenId",
          "type": "uint256"
        }
      ],
      "name": "safeTransferFrom",
      "outputs": [],
      "stateMutability": "nonpayable",
      "type": "function"
    },
    {
      "inputs": [
        {
          "internalType": "address",
          "name": "from",
          "type": "address"
        },
        {
          "internalType": "address",
          "name": "to",
          "type": "address"
        },
        {
          "internalType": "uint256",
          "name": "tokenId",
          "type": "uint256"
        },
        {
          "internalType": "bytes",
          "name": "_data",
          "type": "bytes"
        }
      ],
      "name": "safeTransferFrom",
      "outputs": [],
      "stateMutability": "nonpayable",
      "type": "function"
    },
    {
      "inputs": [
        {
          "internalType": "address",
          "name": "operator",
          "type": "address"
        },
        {
          "internalType": "bool",
          "name": "approved",
          "type": "bool"
        }
      ],
      "name": "setApprovalForAll",
      "outputs": [],
      "stateMutability": "nonpayable",
      "type": "function"
    },
    {
      "inputs": [
        {
          "internalType": "string",
          "name": "_baseURI",
          "type": "string"
        }
      ],
      "name": "setBaseURI",
      "outputs": [],
      "stateMutability": "nonpayable",
      "type": "function"
    },
    {
      "inputs": [
        {
          "internalType": "address",
          "name": "",
          "type": "address"
        },
        {
          "internalType": "uint256",
          "name": "",
          "type": "uint256"
        }
      ],
      "name": "soulboundTokens",
      "outputs": [
        {
          "internalType": "uint256",
          "name": "",
          "type": "uint256"
        }
      ],
      "stateMutability": "view",
      "type": "function"
    },
    {
      "inputs": [
        {
          "internalType": "bytes4",
          "name": "interfaceId",
          "type": "bytes4"
        }
      ],
      "name": "supportsInterface",
      "outputs": [
        {
          "internalType": "bool",
          "name": "",
          "type": "bool"
        }
      ],
      "stateMutability": "view",
      "type": "function"
    },
    {
      "inputs": [],
      "name": "symbol",
      "outputs": [
        {
          "internalType": "string",
          "name": "",
          "type": "string"
        }
      ],
      "stateMutability": "view",
      "type": "function"
    },
    {
      "inputs": [
        {
          "internalType": "uint256",
          "name": "index",
          "type": "uint256"
        }
      ],
      "name": "tokenByIndex",
      "outputs": [
        {
          "internalType": "uint256",
          "name": "",
          "type": "uint256"
        }
      ],
      "stateMutability": "view",
      "type": "function"
    },
    {
      "inputs": [
        {
          "internalType": "address",
          "name": "owner",
          "type": "address"
        },
        {
          "internalType": "uint256",
          "name": "index",
          "type": "uint256"
        }
      ],
      "name": "tokenOfOwnerByIndex",
      "outputs": [
        {
          "internalType": "uint256",
          "name": "",
          "type": "uint256"
        }
      ],
      "stateMutability": "view",
      "type": "function"
    },
    {
      "inputs": [
        {
          "internalType": "uint256",
          "name": "",
          "type": "uint256"
        }
      ],
      "name": "tokenSupplyByType",
      "outputs": [
        {
          "internalType": "uint256",
          "name": "",
          "type": "uint256"
        }
      ],
      "stateMutability": "view",
      "type": "function"
    },
    {
      "inputs": [
        {
          "internalType": "uint256",
          "name": "tokenId",
          "type": "uint256"
        }
      ],
      "name": "tokenURI",
      "outputs": [
        {
          "internalType": "string",
          "name": "",
          "type": "string"
        }
      ],
      "stateMutability": "view",
      "type": "function"
    },
    {
      "inputs": [],
      "name": "totalSupply",
      "outputs": [
        {
          "internalType": "uint256",
          "name": "",
          "type": "uint256"
        }
      ],
      "stateMutability": "view",
      "type": "function"
    },
    {
      "inputs": [
        {
          "internalType": "address",
          "name": "from",
          "type": "address"
        },
        {
          "internalType": "address",
          "name": "to",
          "type": "address"
        },
        {
          "internalType": "uint256",
          "name": "tokenId",
          "type": "uint256"
        }
      ],
      "name": "transferFrom",
      "outputs": [],
      "stateMutability": "nonpayable",
      "type": "function"
    }
  ],
  "transactionHash": "0x2ead3a3946776c97bab8bbbbd1f6b7c2872c7bd54a23ac517cfde73717ada953",
  "args": [
    "ipfs://QmcKPyF2iwudk9wEyXeBJFNLQNvmTjoR4trELFZzbuv9sU/"
  ],
  "numDeployments": 2,
  "solcInputHash": "09bdd4c10bb8cd6422c01269e189411a",
  "bytecode": "0x60806040523480156200001157600080fd5b5060405162002b6b38038062002b6b833981016040819052620000349162000238565b604080518082018252601781527f506c617962757820536f756c626f756e6420546f6b656e00000000000000000060208083019182528351808501909452600384526250425360e81b90840152815191929162000094916000916200017c565b508051620000aa9060019060208401906200017c565b50508151620000c29150600c9060208401906200017c565b50620000d0600033620000d7565b5062000350565b6000828152600a602090815260408083206001600160a01b038516845290915290205460ff1662000178576000828152600a602090815260408083206001600160a01b03851684529091529020805460ff19166001179055620001373390565b6001600160a01b0316816001600160a01b0316837f2f8788117e7eff1d82e926ec794901d17c78024a50270940304540a733656f0d60405160405180910390a45b5050565b8280546200018a9062000314565b90600052602060002090601f016020900481019282620001ae5760008555620001f9565b82601f10620001c957805160ff1916838001178555620001f9565b82800160010185558215620001f9579182015b82811115620001f9578251825591602001919060010190620001dc565b50620002079291506200020b565b5090565b5b808211156200020757600081556001016200020c565b634e487b7160e01b600052604160045260246000fd5b600060208083850312156200024c57600080fd5b82516001600160401b03808211156200026457600080fd5b818501915085601f8301126200027957600080fd5b8151818111156200028e576200028e62000222565b604051601f8201601f19908116603f01168101908382118183101715620002b957620002b962000222565b816040528281528886848701011115620002d257600080fd5b600093505b82841015620002f65784840186015181850187015292850192620002d7565b82841115620003085760008684830101525b98975050505050505050565b600181811c908216806200032957607f821691505b6020821081036200034a57634e487b7160e01b600052602260045260246000fd5b50919050565b61280b80620003606000396000f3fe608060405234801561001057600080fd5b50600436106102065760003560e01c80636ada60151161011a578063a4eb0d90116100ad578063c87b56dd1161007c578063c87b56dd14610484578063cc14f2f514610497578063d547741f146104aa578063da98f134146104bd578063e985e9c5146104e857600080fd5b8063a4eb0d9014610412578063b3cbfcd21461044a578063b45a3c0e1461045d578063b88d4fde1461047157600080fd5b806391d14854116100e957806391d14854146103dc57806395d89b41146103ef578063a217fddf146103f7578063a22cb465146103ff57600080fd5b80636ada60151461038e5780636c0360eb146103ae57806370a08231146103b657806380b6b878146103c957600080fd5b80632f2ff15d1161019d578063449a52f81161016c578063449a52f81461032f5780634f6ccce71461034257806355f804b314610355578063619059c4146103685780636352211e1461037b57600080fd5b80632f2ff15d146102e35780632f745c59146102f657806336568abe1461030957806342842e0e1461031c57600080fd5b806318160ddd116101d957806318160ddd146102885780631c53e0d11461029a57806323b872dd146102ad578063248a9ca3146102c057600080fd5b806301ffc9a71461020b57806306fdde0314610233578063081812fc14610248578063095ea7b314610273575b600080fd5b61021e610219366004612148565b610524565b60405190151581526020015b60405180910390f35b61023b610535565b60405161022a91906121bd565b61025b6102563660046121d0565b6105c7565b6040516001600160a01b03909116815260200161022a565b610286610281366004612205565b610661565b005b6008545b60405190815260200161022a565b61028c6102a83660046121d0565b610776565b6102866102bb36600461222f565b61078a565b61028c6102ce3660046121d0565b6000908152600a602052604090206001015490565b6102866102f136600461226b565b6107bb565b61028c610304366004612205565b6107e0565b61028661031736600461226b565b610876565b61028661032a36600461222f565b6108f4565b61028661033d366004612205565b61090f565b61028c6103503660046121d0565b610a9c565b610286610363366004612323565b610b2f565b610286610376366004612205565b610b89565b61025b6103893660046121d0565b610d37565b61028c61039c3660046121d0565b600b6020526000908152604090205481565b61023b610dae565b61028c6103c436600461236c565b610e3c565b61028c6103d73660046121d0565b610ec3565b61021e6103ea36600461226b565b610ed7565b61023b610f02565b61028c600081565b61028661040d366004612387565b610f11565b61021e610420366004612205565b6001600160a01b03919091166000908152600d602090815260408083209383529290522054151590565b61023b6104583660046121d0565b610f1c565b61021e61046b3660046121d0565b50600190565b61028661047f3660046123c3565b610f47565b61023b6104923660046121d0565b610f80565b6102866104a53660046121d0565b611062565b6102866104b836600461226b565b611128565b61028c6104cb366004612205565b600d60209081526000928352604080842090915290825290205481565b61021e6104f636600461243f565b6001600160a01b03918216600090815260056020908152604080832093909416825291909152205460ff1690565b600061052f8261114d565b92915050565b60606000805461054490612469565b80601f016020809104026020016040519081016040528092919081815260200182805461057090612469565b80156105bd5780601f10610592576101008083540402835291602001916105bd565b820191906000526020600020905b8154815290600101906020018083116105a057829003601f168201915b5050505050905090565b6000818152600260205260408120546001600160a01b03166106455760405162461bcd60e51b815260206004820152602c60248201527f4552433732313a20617070726f76656420717565727920666f72206e6f6e657860448201526b34b9ba32b73a103a37b5b2b760a11b60648201526084015b60405180910390fd5b506000908152600460205260409020546001600160a01b031690565b600061066c82610d37565b9050806001600160a01b0316836001600160a01b0316036106d95760405162461bcd60e51b815260206004820152602160248201527f4552433732313a20617070726f76616c20746f2063757272656e74206f776e656044820152603960f91b606482015260840161063c565b336001600160a01b03821614806106f557506106f581336104f6565b6107675760405162461bcd60e51b815260206004820152603860248201527f4552433732313a20617070726f76652063616c6c6572206973206e6f74206f7760448201527f6e6572206e6f7220617070726f76656420666f7220616c6c0000000000000000606482015260840161063c565b6107718383611172565b505050565b600061052f670de0b6b3a7640000836124b9565b61079433826111e0565b6107b05760405162461bcd60e51b815260040161063c906124cd565b6107718383836112d7565b6000828152600a60205260409020600101546107d68161147e565b610771838361148b565b60006107eb83610e3c565b821061084d5760405162461bcd60e51b815260206004820152602b60248201527f455243373231456e756d657261626c653a206f776e657220696e646578206f7560448201526a74206f6620626f756e647360a81b606482015260840161063c565b506001600160a01b03919091166000908152600660209081526040808320938352929052205490565b6001600160a01b03811633146108e65760405162461bcd60e51b815260206004820152602f60248201527f416363657373436f6e74726f6c3a2063616e206f6e6c792072656e6f756e636560448201526e103937b632b9903337b91039b2b63360891b606482015260840161063c565b6108f08282611511565b5050565b61077183838360405180602001604052806000815250610f47565b7fdfbefbf47cfe66b701d8cfdbce1de81c821590819cb07e71cb01b6602fb0ee276109398161147e565b6000821161097e5760405162461bcd60e51b8152602060048201526012602482015271496e76616c696420746f6b656e207479706560701b604482015260640161063c565b6001600160a01b0383166000908152600d60209081526040808320858452909152902054156109fb5760405162461bcd60e51b8152602060048201526024808201527f4f776e657220616c72656164792068617320746f6b656e206f662074686973206044820152637479706560e01b606482015260840161063c565b6000610a0683611578565b610a11906001612534565b6000848152600b60205260408120805492935090610a2e8361254c565b90915550506001600160a01b0384166000908152600d602090815260408083208684529091529020819055610a6384826115a3565b6040518181527f032bc66be43dbccb7487781d168eb7bda224628a3b2c3388bdf69b532a3a16119060200160405180910390a150505050565b6000610aa760085490565b8210610b0a5760405162461bcd60e51b815260206004820152602c60248201527f455243373231456e756d657261626c653a20676c6f62616c20696e646578206f60448201526b7574206f6620626f756e647360a01b606482015260840161063c565b60088281548110610b1d57610b1d612565565b90600052602060002001549050919050565b6000610b3a8161147e565b8151610b4d90600c906020850190612099565b507f23c8c9488efebfd474e85a7956de6f39b17c7ab88502d42a623db2d8e382bbaa82604051610b7d91906121bd565b60405180910390a15050565b7fdfbefbf47cfe66b701d8cfdbce1de81c821590819cb07e71cb01b6602fb0ee27610bb38161147e565b6000610bbe83610ec3565b6000818152600b602052604090205490915081610c125760405162461bcd60e51b8152602060048201526012602482015271496e76616c696420746f6b656e207479706560701b604482015260640161063c565b80600003610c755760405162461bcd60e51b815260206004820152602a60248201527f546869732074797065206f6620746f6b656e20686173206e6f74206265656e206044820152691b5a5b9d1959081e595d60b21b606482015260840161063c565b80610c7f85610776565b1115610ccd5760405162461bcd60e51b815260206004820152601960248201527f546f6b656e204944206973206e6f7420617661696c61626c6500000000000000604482015260640161063c565b6001600160a01b0385166000908152600d602090815260408083208584529091529020849055610cfd85856115a3565b6040518481527f032bc66be43dbccb7487781d168eb7bda224628a3b2c3388bdf69b532a3a16119060200160405180910390a15050505050565b6000818152600260205260408120546001600160a01b03168061052f5760405162461bcd60e51b815260206004820152602960248201527f4552433732313a206f776e657220717565727920666f72206e6f6e657869737460448201526832b73a103a37b5b2b760b91b606482015260840161063c565b600c8054610dbb90612469565b80601f0160208091040260200160405190810160405280929190818152602001828054610de790612469565b8015610e345780601f10610e0957610100808354040283529160200191610e34565b820191906000526020600020905b815481529060010190602001808311610e1757829003601f168201915b505050505081565b60006001600160a01b038216610ea75760405162461bcd60e51b815260206004820152602a60248201527f4552433732313a2062616c616e636520717565727920666f7220746865207a65604482015269726f206164647265737360b01b606482015260840161063c565b506001600160a01b031660009081526003602052604090205490565b600061052f670de0b6b3a76400008361257b565b6000918252600a602090815260408084206001600160a01b0393909316845291905290205460ff1690565b60606001805461054490612469565b6108f03383836116f1565b606061052f610f2a836117bf565b60006012610f37866117bf565b51610f42919061258f565b6118c0565b610f52335b836111e0565b610f6e5760405162461bcd60e51b815260040161063c906124cd565b610f7a8484848461198d565b50505050565b6000818152600260205260409020546060906001600160a01b0316610fff5760405162461bcd60e51b815260206004820152602f60248201527f4552433732314d657461646174613a2055524920717565727920666f72206e6f60448201526e3732bc34b9ba32b73a103a37b5b2b760891b606482015260840161063c565b600061100a83610f1c565b90506000600c805461101b90612469565b905011611037576040518060200160405280600081525061105b565b600c8160405160200161104b9291906125c2565b6040516020818303038152906040525b9392505050565b7fdfbefbf47cfe66b701d8cfdbce1de81c821590819cb07e71cb01b6602fb0ee2761108c8161147e565b61109533610f4c565b6110f75760405162461bcd60e51b815260206004820152602d60248201527f4552433732313a2063616c6c6572206973206e6f7420746f6b656e206f776e6560448201526c1c881bdc88185c1c1c9bdd9959609a1b606482015260840161063c565b600061110283610ec3565b336000908152600d602090815260408083208484529091528120559050610771836119c0565b6000828152600a60205260409020600101546111438161147e565b6107718383611511565b60006001600160e01b03198216637965db0b60e01b148061052f575061052f82611a67565b600081815260046020526040902080546001600160a01b0319166001600160a01b03841690811790915581906111a782610d37565b6001600160a01b03167f8c5be1e5ebec7d5bd14f71427d1e84f3dd0314c0f7b2291e5b200ac8c7c3b92560405160405180910390a45050565b6000818152600260205260408120546001600160a01b03166112595760405162461bcd60e51b815260206004820152602c60248201527f4552433732313a206f70657261746f7220717565727920666f72206e6f6e657860448201526b34b9ba32b73a103a37b5b2b760a11b606482015260840161063c565b600061126483610d37565b9050806001600160a01b0316846001600160a01b031614806112ab57506001600160a01b0380821660009081526005602090815260408083209388168352929052205460ff165b806112cf5750836001600160a01b03166112c4846105c7565b6001600160a01b0316145b949350505050565b826001600160a01b03166112ea82610d37565b6001600160a01b03161461134e5760405162461bcd60e51b815260206004820152602560248201527f4552433732313a207472616e736665722066726f6d20696e636f72726563742060448201526437bbb732b960d91b606482015260840161063c565b6001600160a01b0382166113b05760405162461bcd60e51b8152602060048201526024808201527f4552433732313a207472616e7366657220746f20746865207a65726f206164646044820152637265737360e01b606482015260840161063c565b6113bb838383611a8c565b6113c6600082611172565b6001600160a01b03831660009081526003602052604081208054600192906113ef90849061258f565b90915550506001600160a01b038216600090815260036020526040812080546001929061141d908490612534565b909155505060008181526002602052604080822080546001600160a01b0319166001600160a01b0386811691821790925591518493918716917fddf252ad1be2c89b69c2b068fc378daa952ba7f163c4a11628f55a4df523b3ef91a4505050565b6114888133611b00565b50565b6114958282610ed7565b6108f0576000828152600a602090815260408083206001600160a01b03851684529091529020805460ff191660011790556114cd3390565b6001600160a01b0316816001600160a01b0316837f2f8788117e7eff1d82e926ec794901d17c78024a50270940304540a733656f0d60405160405180910390a45050565b61151b8282610ed7565b156108f0576000828152600a602090815260408083206001600160a01b0385168085529252808320805460ff1916905551339285917ff6391f5c32d9c69d2a47ea670b442974b53935d1edc7fd64eb21e047a839171b9190a45050565b6000818152600b602052604081205461159983670de0b6b3a7640000612668565b61052f9190612534565b6001600160a01b0382166115f95760405162461bcd60e51b815260206004820181905260248201527f4552433732313a206d696e7420746f20746865207a65726f2061646472657373604482015260640161063c565b6000818152600260205260409020546001600160a01b03161561165e5760405162461bcd60e51b815260206004820152601c60248201527f4552433732313a20746f6b656e20616c7265616479206d696e74656400000000604482015260640161063c565b61166a60008383611a8c565b6001600160a01b0382166000908152600360205260408120805460019290611693908490612534565b909155505060008181526002602052604080822080546001600160a01b0319166001600160a01b03861690811790915590518392907fddf252ad1be2c89b69c2b068fc378daa952ba7f163c4a11628f55a4df523b3ef908290a45050565b816001600160a01b0316836001600160a01b0316036117525760405162461bcd60e51b815260206004820152601960248201527f4552433732313a20617070726f766520746f2063616c6c657200000000000000604482015260640161063c565b6001600160a01b03838116600081815260056020908152604080832094871680845294825291829020805460ff191686151590811790915591519182527f17307eab39ab6107e8899845ad3d59bd9653f200f220920489ca2b5937696c31910160405180910390a3505050565b6060816000036117e65750506040805180820190915260018152600360fc1b602082015290565b8160005b811561181057806117fa8161254c565b91506118099050600a8361257b565b91506117ea565b60008167ffffffffffffffff81111561182b5761182b612297565b6040519080825280601f01601f191660200182016040528015611855576020820181803683370190505b5090505b84156112cf5761186a60018361258f565b9150611877600a866124b9565b611882906030612534565b60f81b81838151811061189757611897612565565b60200101906001600160f81b031916908160001a9053506118b9600a8661257b565b9450611859565b60608360006118cf858561258f565b67ffffffffffffffff8111156118e7576118e7612297565b6040519080825280601f01601f191660200182016040528015611911576020820181803683370190505b509050845b848110156119835782818151811061193057611930612565565b01602001516001600160f81b0319168261194a888461258f565b8151811061195a5761195a612565565b60200101906001600160f81b031916908160001a9053508061197b8161254c565b915050611916565b5095945050505050565b6119988484846112d7565b6119a484848484611b64565b610f7a5760405162461bcd60e51b815260040161063c90612687565b60006119cb82610d37565b90506119d981600084611a8c565b6119e4600083611172565b6001600160a01b0381166000908152600360205260408120805460019290611a0d90849061258f565b909155505060008281526002602052604080822080546001600160a01b0319169055518391906001600160a01b038416907fddf252ad1be2c89b69c2b068fc378daa952ba7f163c4a11628f55a4df523b3ef908390a45050565b60006001600160e01b0319821663780e9d6360e01b148061052f575061052f82611c65565b6001600160a01b0383161580611aa957506001600160a01b038216155b611af55760405162461bcd60e51b815260206004820152601e60248201527f506c61796275785342543a20746f6b656e20697320736f756c626f756e640000604482015260640161063c565b610771838383611cb5565b611b0a8282610ed7565b6108f057611b22816001600160a01b03166014611d6d565b611b2d836020611d6d565b604051602001611b3e9291906126d9565b60408051601f198184030181529082905262461bcd60e51b825261063c916004016121bd565b60006001600160a01b0384163b15611c5a57604051630a85bd0160e11b81526001600160a01b0385169063150b7a0290611ba890339089908890889060040161274e565b6020604051808303816000875af1925050508015611be3575060408051601f3d908101601f19168201909252611be09181019061278b565b60015b611c40573d808015611c11576040519150601f19603f3d011682016040523d82523d6000602084013e611c16565b606091505b508051600003611c385760405162461bcd60e51b815260040161063c90612687565b805181602001fd5b6001600160e01b031916630a85bd0160e11b1490506112cf565b506001949350505050565b60006001600160e01b031982166380ac58cd60e01b1480611c9657506001600160e01b03198216635b5e139f60e01b145b8061052f57506301ffc9a760e01b6001600160e01b031983161461052f565b6001600160a01b038316611d1057611d0b81600880546000838152600960205260408120829055600182018355919091527ff3f7a9fe364faab93b216da50a3214154f22a0a2b415b23a84c8169e8b636ee30155565b611d33565b816001600160a01b0316836001600160a01b031614611d3357611d338382611f09565b6001600160a01b038216611d4a5761077181611fa6565b826001600160a01b0316826001600160a01b031614610771576107718282612055565b60606000611d7c836002612668565b611d87906002612534565b67ffffffffffffffff811115611d9f57611d9f612297565b6040519080825280601f01601f191660200182016040528015611dc9576020820181803683370190505b509050600360fc1b81600081518110611de457611de4612565565b60200101906001600160f81b031916908160001a905350600f60fb1b81600181518110611e1357611e13612565565b60200101906001600160f81b031916908160001a9053506000611e37846002612668565b611e42906001612534565b90505b6001811115611eba576f181899199a1a9b1b9c1cb0b131b232b360811b85600f1660108110611e7657611e76612565565b1a60f81b828281518110611e8c57611e8c612565565b60200101906001600160f81b031916908160001a90535060049490941c93611eb3816127a8565b9050611e45565b50831561105b5760405162461bcd60e51b815260206004820181905260248201527f537472696e67733a20686578206c656e67746820696e73756666696369656e74604482015260640161063c565b60006001611f1684610e3c565b611f20919061258f565b600083815260076020526040902054909150808214611f73576001600160a01b03841660009081526006602090815260408083208584528252808320548484528184208190558352600790915290208190555b5060009182526007602090815260408084208490556001600160a01b039094168352600681528383209183525290812055565b600854600090611fb89060019061258f565b60008381526009602052604081205460088054939450909284908110611fe057611fe0612565565b90600052602060002001549050806008838154811061200157612001612565565b6000918252602080832090910192909255828152600990915260408082208490558582528120556008805480612039576120396127bf565b6001900381819060005260206000200160009055905550505050565b600061206083610e3c565b6001600160a01b039093166000908152600660209081526040808320868452825280832085905593825260079052919091209190915550565b8280546120a590612469565b90600052602060002090601f0160209004810192826120c7576000855561210d565b82601f106120e057805160ff191683800117855561210d565b8280016001018555821561210d579182015b8281111561210d5782518255916020019190600101906120f2565b5061211992915061211d565b5090565b5b80821115612119576000815560010161211e565b6001600160e01b03198116811461148857600080fd5b60006020828403121561215a57600080fd5b813561105b81612132565b60005b83811015612180578181015183820152602001612168565b83811115610f7a5750506000910152565b600081518084526121a9816020860160208601612165565b601f01601f19169290920160200192915050565b60208152600061105b6020830184612191565b6000602082840312156121e257600080fd5b5035919050565b80356001600160a01b038116811461220057600080fd5b919050565b6000806040838503121561221857600080fd5b612221836121e9565b946020939093013593505050565b60008060006060848603121561224457600080fd5b61224d846121e9565b925061225b602085016121e9565b9150604084013590509250925092565b6000806040838503121561227e57600080fd5b8235915061228e602084016121e9565b90509250929050565b634e487b7160e01b600052604160045260246000fd5b600067ffffffffffffffff808411156122c8576122c8612297565b604051601f8501601f19908116603f011681019082821181831017156122f0576122f0612297565b8160405280935085815286868601111561230957600080fd5b858560208301376000602087830101525050509392505050565b60006020828403121561233557600080fd5b813567ffffffffffffffff81111561234c57600080fd5b8201601f8101841361235d57600080fd5b6112cf848235602084016122ad565b60006020828403121561237e57600080fd5b61105b826121e9565b6000806040838503121561239a57600080fd5b6123a3836121e9565b9150602083013580151581146123b857600080fd5b809150509250929050565b600080600080608085870312156123d957600080fd5b6123e2856121e9565b93506123f0602086016121e9565b925060408501359150606085013567ffffffffffffffff81111561241357600080fd5b8501601f8101871361242457600080fd5b612433878235602084016122ad565b91505092959194509250565b6000806040838503121561245257600080fd5b61245b836121e9565b915061228e602084016121e9565b600181811c9082168061247d57607f821691505b60208210810361249d57634e487b7160e01b600052602260045260246000fd5b50919050565b634e487b7160e01b600052601260045260246000fd5b6000826124c8576124c86124a3565b500690565b60208082526031908201527f4552433732313a207472616e736665722063616c6c6572206973206e6f74206f6040820152701ddb995c881b9bdc88185c1c1c9bdd9959607a1b606082015260800190565b634e487b7160e01b600052601160045260246000fd5b600082198211156125475761254761251e565b500190565b60006001820161255e5761255e61251e565b5060010190565b634e487b7160e01b600052603260045260246000fd5b60008261258a5761258a6124a3565b500490565b6000828210156125a1576125a161251e565b500390565b600081516125b8818560208601612165565b9290920192915050565b600080845481600182811c9150808316806125de57607f831692505b602080841082036125fd57634e487b7160e01b86526022600452602486fd5b81801561261157600181146126225761264f565b60ff1986168952848901965061264f565b60008b81526020902060005b868110156126475781548b82015290850190830161262e565b505084890196505b50505050505061265f81856125a6565b95945050505050565b60008160001904831182151516156126825761268261251e565b500290565b60208082526032908201527f4552433732313a207472616e7366657220746f206e6f6e20455243373231526560408201527131b2b4bb32b91034b6b83632b6b2b73a32b960711b606082015260800190565b7f416363657373436f6e74726f6c3a206163636f756e7420000000000000000000815260008351612711816017850160208801612165565b7001034b99036b4b9b9b4b733903937b6329607d1b6017918401918201528351612742816028840160208801612165565b01602801949350505050565b6001600160a01b038581168252841660208201526040810183905260806060820181905260009061278190830184612191565b9695505050505050565b60006020828403121561279d57600080fd5b815161105b81612132565b6000816127b7576127b761251e565b506000190190565b634e487b7160e01b600052603160045260246000fdfea2646970667358221220effe01c437b82d19411aaeadc04498156cac1f405229db453ca589117a6279c264736f6c634300080e0033",
  "devdoc": {
    "kind": "dev",
    "methods": {
      "approve(address,uint256)": {
        "details": "See {IERC721-approve}."
      },
      "balanceOf(address)": {
        "details": "See {IERC721-balanceOf}."
      },
      "burnByTokenId(uint256)": {
        "params": {
          "_tokenId": "ID of the token"
        }
      },
      "findTokenIndexByTokenId(uint256)": {
        "params": {
          "_tokenId": "ID of the token"
        },
        "returns": {
          "_0": "index of the token"
        }
      },
      "findTypeByTokenId(uint256)": {
        "params": {
          "_tokenId": "ID of the token"
        },
        "returns": {
          "_0": "type of the token as a uint256"
        }
      },
      "findTypeStrByTokenId(uint256)": {
        "params": {
          "_tokenId": "ID of the token"
        },
        "returns": {
          "_0": "type of the token as a string"
        }
      },
      "getApproved(uint256)": {
        "details": "See {IERC721-getApproved}."
      },
      "getRoleAdmin(bytes32)": {
        "details": "Returns the admin role that controls `role`. See {grantRole} and {revokeRole}. To change a role's admin, use {_setRoleAdmin}."
      },
      "grantRole(bytes32,address)": {
        "details": "Grants `role` to `account`. If `account` had not been already granted `role`, emits a {RoleGranted} event. Requirements: - the caller must have ``role``'s admin role."
      },
      "hasRole(bytes32,address)": {
        "details": "Returns `true` if `account` has been granted `role`."
      },
      "isApprovedForAll(address,address)": {
        "details": "See {IERC721-isApprovedForAll}."
      },
      "locked(uint256)": {
        "details": "to comply with ERC5192",
        "params": {
          "_tokenId": "uint256 ID of the token to query"
        },
        "returns": {
          "_0": "uint256 status of the token"
        }
      },
      "mintByTokenId(address,uint256)": {
        "params": {
          "_to": "address of the future owner of the token",
          "_tokenId": "ID of the token"
        }
      },
      "mintTo(address,uint256)": {
        "params": {
          "_to": "address of the future owner of the token",
          "_type": "type of the token"
        }
      },
      "name()": {
        "details": "See {IERC721Metadata-name}."
      },
      "ownerOf(uint256)": {
        "details": "See {IERC721-ownerOf}."
      },
      "renounceRole(bytes32,address)": {
        "details": "Revokes `role` from the calling account. Roles are often managed via {grantRole} and {revokeRole}: this function's purpose is to provide a mechanism for accounts to lose their privileges if they are compromised (such as when a trusted device is misplaced). If the calling account had been revoked `role`, emits a {RoleRevoked} event. Requirements: - the caller must be `account`."
      },
      "revokeRole(bytes32,address)": {
        "details": "Revokes `role` from `account`. If `account` had been granted `role`, emits a {RoleRevoked} event. Requirements: - the caller must have ``role``'s admin role."
      },
      "safeTransferFrom(address,address,uint256)": {
        "details": "See {IERC721-safeTransferFrom}."
      },
      "safeTransferFrom(address,address,uint256,bytes)": {
        "details": "See {IERC721-safeTransferFrom}."
      },
      "setApprovalForAll(address,bool)": {
        "details": "See {IERC721-setApprovalForAll}."
      },
      "setBaseURI(string)": {
        "params": {
          "_baseURI": "The base URI for token metadata"
        }
      },
      "symbol()": {
        "details": "See {IERC721Metadata-symbol}."
      },
      "tokenByIndex(uint256)": {
        "details": "See {IERC721Enumerable-tokenByIndex}."
      },
      "tokenOfOwnerByIndex(address,uint256)": {
        "details": "See {IERC721Enumerable-tokenOfOwnerByIndex}."
      },
      "tokenURI(uint256)": {
        "params": {
          "tokenId": "uint256 ID of the token to query"
        },
        "returns": {
          "_0": "string URI of the token"
        }
      },
      "totalSupply()": {
        "details": "See {IERC721Enumerable-totalSupply}."
      },
      "transferFrom(address,address,uint256)": {
        "details": "See {IERC721-transferFrom}."
      }
    },
    "version": 1
  },
  "userdoc": {
    "events": {
      "Locked(uint256)": {
        "notice": "Emitted when the locking status is changed to locked."
      }
    },
    "kind": "user",
    "methods": {
      "burnByTokenId(uint256)": {
        "notice": "burnByTokenId burns the token with the given ID Use on cross-chain transfers to burn the token on the source chain User must be the owner of the token or approved to burn the token"
      },
      "findTokenIndexByTokenId(uint256)": {
        "notice": "findTokenIndexByTokenId finds the index of the token with the given ID"
      },
      "findTypeByTokenId(uint256)": {
        "notice": "findTypeByTokenId finds the type of the token with the given ID"
      },
      "findTypeStrByTokenId(uint256)": {
        "notice": "findTypeStrByTokenId finds the type of the token with the given ID"
      },
      "mintByTokenId(address,uint256)": {
        "notice": "mintByTokenId mints a new token to the given address Use on cross-chain transfers to mint the token on the destination chain cannot be used to mint the same token twice cannot be used to mint a new token that is not the next in the sequence"
      },
      "mintTo(address,uint256)": {
        "notice": "mintTo mints a new token to the given address"
      },
      "setBaseURI(string)": {
        "notice": "setBaseURI sets the base URI for token metadata"
      },
      "tokenURI(uint256)": {
        "notice": "tokenURI returns the metadata URI for a given token ID"
      }
    },
    "version": 1
  },
  "storageLayout": {
    "storage": [
      {
        "astId": 1587,
        "contract": "contracts/pre-launch-event/PlaybuxSBT.sol:PlaybuxSBT",
        "label": "_name",
        "offset": 0,
        "slot": "0",
        "type": "t_string_storage"
      },
      {
        "astId": 1589,
        "contract": "contracts/pre-launch-event/PlaybuxSBT.sol:PlaybuxSBT",
        "label": "_symbol",
        "offset": 0,
        "slot": "1",
        "type": "t_string_storage"
      },
      {
        "astId": 1593,
        "contract": "contracts/pre-launch-event/PlaybuxSBT.sol:PlaybuxSBT",
        "label": "_owners",
        "offset": 0,
        "slot": "2",
        "type": "t_mapping(t_uint256,t_address)"
      },
      {
        "astId": 1597,
        "contract": "contracts/pre-launch-event/PlaybuxSBT.sol:PlaybuxSBT",
        "label": "_balances",
        "offset": 0,
        "slot": "3",
        "type": "t_mapping(t_address,t_uint256)"
      },
      {
        "astId": 1601,
        "contract": "contracts/pre-launch-event/PlaybuxSBT.sol:PlaybuxSBT",
        "label": "_tokenApprovals",
        "offset": 0,
        "slot": "4",
        "type": "t_mapping(t_uint256,t_address)"
      },
      {
        "astId": 1607,
        "contract": "contracts/pre-launch-event/PlaybuxSBT.sol:PlaybuxSBT",
        "label": "_operatorApprovals",
        "offset": 0,
        "slot": "5",
        "type": "t_mapping(t_address,t_mapping(t_address,t_bool))"
      },
      {
        "astId": 2576,
        "contract": "contracts/pre-launch-event/PlaybuxSBT.sol:PlaybuxSBT",
        "label": "_ownedTokens",
        "offset": 0,
        "slot": "6",
        "type": "t_mapping(t_address,t_mapping(t_uint256,t_uint256))"
      },
      {
        "astId": 2580,
        "contract": "contracts/pre-launch-event/PlaybuxSBT.sol:PlaybuxSBT",
        "label": "_ownedTokensIndex",
        "offset": 0,
        "slot": "7",
        "type": "t_mapping(t_uint256,t_uint256)"
      },
      {
        "astId": 2583,
        "contract": "contracts/pre-launch-event/PlaybuxSBT.sol:PlaybuxSBT",
        "label": "_allTokens",
        "offset": 0,
        "slot": "8",
        "type": "t_array(t_uint256)dyn_storage"
      },
      {
        "astId": 2587,
        "contract": "contracts/pre-launch-event/PlaybuxSBT.sol:PlaybuxSBT",
        "label": "_allTokensIndex",
        "offset": 0,
        "slot": "9",
        "type": "t_mapping(t_uint256,t_uint256)"
      },
      {
        "astId": 24,
        "contract": "contracts/pre-launch-event/PlaybuxSBT.sol:PlaybuxSBT",
        "label": "_roles",
        "offset": 0,
        "slot": "10",
        "type": "t_mapping(t_bytes32,t_struct(RoleData)19_storage)"
      },
      {
        "astId": 7152,
        "contract": "contracts/pre-launch-event/PlaybuxSBT.sol:PlaybuxSBT",
        "label": "tokenSupplyByType",
        "offset": 0,
        "slot": "11",
        "type": "t_mapping(t_uint256,t_uint256)"
      },
      {
        "astId": 7159,
        "contract": "contracts/pre-launch-event/PlaybuxSBT.sol:PlaybuxSBT",
        "label": "baseURI",
        "offset": 0,
        "slot": "12",
        "type": "t_string_storage"
      },
      {
        "astId": 7165,
        "contract": "contracts/pre-launch-event/PlaybuxSBT.sol:PlaybuxSBT",
        "label": "soulboundTokens",
        "offset": 0,
        "slot": "13",
        "type": "t_mapping(t_address,t_mapping(t_uint256,t_uint256))"
      }
    ],
    "types": {
      "t_address": {
        "encoding": "inplace",
        "label": "address",
        "numberOfBytes": "20"
      },
      "t_array(t_uint256)dyn_storage": {
        "base": "t_uint256",
        "encoding": "dynamic_array",
        "label": "uint256[]",
        "numberOfBytes": "32"
      },
      "t_bool": {
        "encoding": "inplace",
        "label": "bool",
        "numberOfBytes": "1"
      },
      "t_bytes32": {
        "encoding": "inplace",
        "label": "bytes32",
        "numberOfBytes": "32"
      },
      "t_mapping(t_address,t_bool)": {
        "encoding": "mapping",
        "key": "t_address",
        "label": "mapping(address => bool)",
        "numberOfBytes": "32",
        "value": "t_bool"
      },
      "t_mapping(t_address,t_mapping(t_address,t_bool))": {
        "encoding": "mapping",
        "key": "t_address",
        "label": "mapping(address => mapping(address => bool))",
        "numberOfBytes": "32",
        "value": "t_mapping(t_address,t_bool)"
      },
      "t_mapping(t_address,t_mapping(t_uint256,t_uint256))": {
        "encoding": "mapping",
        "key": "t_address",
        "label": "mapping(address => mapping(uint256 => uint256))",
        "numberOfBytes": "32",
        "value": "t_mapping(t_uint256,t_uint256)"
      },
      "t_mapping(t_address,t_uint256)": {
        "encoding": "mapping",
        "key": "t_address",
        "label": "mapping(address => uint256)",
        "numberOfBytes": "32",
        "value": "t_uint256"
      },
      "t_mapping(t_bytes32,t_struct(RoleData)19_storage)": {
        "encoding": "mapping",
        "key": "t_bytes32",
        "label": "mapping(bytes32 => struct AccessControl.RoleData)",
        "numberOfBytes": "32",
        "value": "t_struct(RoleData)19_storage"
      },
      "t_mapping(t_uint256,t_address)": {
        "encoding": "mapping",
        "key": "t_uint256",
        "label": "mapping(uint256 => address)",
        "numberOfBytes": "32",
        "value": "t_address"
      },
      "t_mapping(t_uint256,t_uint256)": {
        "encoding": "mapping",
        "key": "t_uint256",
        "label": "mapping(uint256 => uint256)",
        "numberOfBytes": "32",
        "value": "t_uint256"
      },
      "t_string_storage": {
        "encoding": "bytes",
        "label": "string",
        "numberOfBytes": "32"
      },
      "t_struct(RoleData)19_storage": {
        "encoding": "inplace",
        "label": "struct AccessControl.RoleData",
        "members": [
          {
            "astId": 16,
            "contract": "contracts/pre-launch-event/PlaybuxSBT.sol:PlaybuxSBT",
            "label": "members",
            "offset": 0,
            "slot": "0",
            "type": "t_mapping(t_address,t_bool)"
          },
          {
            "astId": 18,
            "contract": "contracts/pre-launch-event/PlaybuxSBT.sol:PlaybuxSBT",
            "label": "adminRole",
            "offset": 0,
            "slot": "1",
            "type": "t_bytes32"
          }
        ],
        "numberOfBytes": "64"
      },
      "t_uint256": {
        "encoding": "inplace",
        "label": "uint256",
        "numberOfBytes": "32"
      }
    }
  }
}