{
  "address": "0x90B2B548AD219499A64Ec0DB3863009FCEe126E2",
  "abi": [
    {
      "inputs": [
        {
          "internalType": "contract IERC20",
          "name": "_pbx",
          "type": "address"
        },
        {
          "internalType": "address",
          "name": "_admin",
          "type": "address"
        }
      ],
      "stateMutability": "nonpayable",
      "type": "constructor"
    },
    {
      "anonymous": false,
      "inputs": [
        {
          "indexed": false,
          "internalType": "address",
          "name": "oldAdmin",
          "type": "address"
        },
        {
          "indexed": false,
          "internalType": "address",
          "name": "newAdmin",
          "type": "address"
        }
      ],
      "name": "AdminChanged",
      "type": "event"
    },
    {
      "anonymous": false,
      "inputs": [
        {
          "indexed": true,
          "internalType": "address",
          "name": "_from",
          "type": "address"
        },
        {
          "indexed": false,
          "internalType": "uint256",
          "name": "_value",
          "type": "uint256"
        }
      ],
      "name": "Deposit",
      "type": "event"
    },
    {
      "anonymous": false,
      "inputs": [
        {
          "indexed": true,
          "internalType": "address",
          "name": "_from",
          "type": "address"
        },
        {
          "indexed": false,
          "internalType": "uint256",
          "name": "_value",
          "type": "uint256"
        }
      ],
      "name": "EmergencyWithdraw",
      "type": "event"
    },
    {
      "anonymous": false,
      "inputs": [
        {
          "indexed": false,
          "internalType": "address",
          "name": "userAddress",
          "type": "address"
        },
        {
          "indexed": false,
          "internalType": "address payable",
          "name": "relayerAddress",
          "type": "address"
        },
        {
          "indexed": false,
          "internalType": "bytes",
          "name": "functionSignature",
          "type": "bytes"
        }
      ],
      "name": "MetaTransactionExecuted",
      "type": "event"
    },
    {
      "anonymous": false,
      "inputs": [
        {
          "indexed": true,
          "internalType": "address",
          "name": "previousOwner",
          "type": "address"
        },
        {
          "indexed": true,
          "internalType": "address",
          "name": "newOwner",
          "type": "address"
        }
      ],
      "name": "OwnershipTransferred",
      "type": "event"
    },
    {
      "anonymous": false,
      "inputs": [
        {
          "indexed": false,
          "internalType": "address",
          "name": "account",
          "type": "address"
        }
      ],
      "name": "Paused",
      "type": "event"
    },
    {
      "anonymous": false,
      "inputs": [
        {
          "indexed": false,
          "internalType": "address",
          "name": "account",
          "type": "address"
        }
      ],
      "name": "Unpaused",
      "type": "event"
    },
    {
      "anonymous": false,
      "inputs": [
        {
          "indexed": true,
          "internalType": "address",
          "name": "_from",
          "type": "address"
        },
        {
          "indexed": false,
          "internalType": "uint256",
          "name": "_value",
          "type": "uint256"
        },
        {
          "indexed": false,
          "internalType": "string",
          "name": "_transactionId",
          "type": "string"
        }
      ],
      "name": "Withdraw",
      "type": "event"
    },
    {
      "stateMutability": "nonpayable",
      "type": "fallback"
    },
    {
      "inputs": [],
      "name": "BLOCK_PER_DAY",
      "outputs": [
        {
          "internalType": "uint256",
          "name": "",
          "type": "uint256"
        }
      ],
      "stateMutability": "view",
      "type": "function"
    },
    {
      "inputs": [],
      "name": "ERC712_VERSION",
      "outputs": [
        {
          "internalType": "string",
          "name": "",
          "type": "string"
        }
      ],
      "stateMutability": "view",
      "type": "function"
    },
    {
      "inputs": [],
      "name": "PBX",
      "outputs": [
        {
          "internalType": "contract IERC20",
          "name": "",
          "type": "address"
        }
      ],
      "stateMutability": "view",
      "type": "function"
    },
    {
      "inputs": [],
      "name": "admin",
      "outputs": [
        {
          "internalType": "address",
          "name": "",
          "type": "address"
        }
      ],
      "stateMutability": "view",
      "type": "function"
    },
    {
      "inputs": [
        {
          "internalType": "uint256",
          "name": "_amount",
          "type": "uint256"
        }
      ],
      "name": "deposit",
      "outputs": [],
      "stateMutability": "nonpayable",
      "type": "function"
    },
    {
      "inputs": [],
      "name": "emergencyWithdraw",
      "outputs": [],
      "stateMutability": "nonpayable",
      "type": "function"
    },
    {
      "inputs": [
        {
          "internalType": "address",
          "name": "userAddress",
          "type": "address"
        },
        {
          "internalType": "bytes",
          "name": "functionSignature",
          "type": "bytes"
        },
        {
          "internalType": "bytes32",
          "name": "sigR",
          "type": "bytes32"
        },
        {
          "internalType": "bytes32",
          "name": "sigS",
          "type": "bytes32"
        },
        {
          "internalType": "uint8",
          "name": "sigV",
          "type": "uint8"
        }
      ],
      "name": "executeMetaTransaction",
      "outputs": [
        {
          "internalType": "bytes",
          "name": "",
          "type": "bytes"
        }
      ],
      "stateMutability": "payable",
      "type": "function"
    },
    {
      "inputs": [],
      "name": "getChainId",
      "outputs": [
        {
          "internalType": "uint256",
          "name": "",
          "type": "uint256"
        }
      ],
      "stateMutability": "view",
      "type": "function"
    },
    {
      "inputs": [],
      "name": "getDomainSeperator",
      "outputs": [
        {
          "internalType": "bytes32",
          "name": "",
          "type": "bytes32"
        }
      ],
      "stateMutability": "view",
      "type": "function"
    },
    {
      "inputs": [
        {
          "internalType": "address",
          "name": "user",
          "type": "address"
        }
      ],
      "name": "getNonce",
      "outputs": [
        {
          "internalType": "uint256",
          "name": "nonce",
          "type": "uint256"
        }
      ],
      "stateMutability": "view",
      "type": "function"
    },
    {
      "inputs": [
        {
          "internalType": "address",
          "name": "",
          "type": "address"
        }
      ],
      "name": "lastWithdraw",
      "outputs": [
        {
          "internalType": "uint256",
          "name": "",
          "type": "uint256"
        }
      ],
      "stateMutability": "view",
      "type": "function"
    },
    {
      "inputs": [],
      "name": "name",
      "outputs": [
        {
          "internalType": "string",
          "name": "",
          "type": "string"
        }
      ],
      "stateMutability": "view",
      "type": "function"
    },
    {
      "inputs": [],
      "name": "owner",
      "outputs": [
        {
          "internalType": "address",
          "name": "",
          "type": "address"
        }
      ],
      "stateMutability": "view",
      "type": "function"
    },
    {
      "inputs": [],
      "name": "pause",
      "outputs": [],
      "stateMutability": "nonpayable",
      "type": "function"
    },
    {
      "inputs": [],
      "name": "paused",
      "outputs": [
        {
          "internalType": "bool",
          "name": "",
          "type": "bool"
        }
      ],
      "stateMutability": "view",
      "type": "function"
    },
    {
      "inputs": [],
      "name": "renounceOwnership",
      "outputs": [],
      "stateMutability": "nonpayable",
      "type": "function"
    },
    {
      "inputs": [
        {
          "internalType": "address",
          "name": "_admin",
          "type": "address"
        }
      ],
      "name": "setAdmin",
      "outputs": [],
      "stateMutability": "nonpayable",
      "type": "function"
    },
    {
      "inputs": [
        {
          "internalType": "uint256",
          "name": "_limit",
          "type": "uint256"
        }
      ],
      "name": "setWithdrawalLimitPerDay",
      "outputs": [],
      "stateMutability": "nonpayable",
      "type": "function"
    },
    {
      "inputs": [
        {
          "internalType": "address",
          "name": "newOwner",
          "type": "address"
        }
      ],
      "name": "transferOwnership",
      "outputs": [],
      "stateMutability": "nonpayable",
      "type": "function"
    },
    {
      "inputs": [],
      "name": "unpause",
      "outputs": [],
      "stateMutability": "nonpayable",
      "type": "function"
    },
    {
      "inputs": [
        {
          "internalType": "uint256",
          "name": "_amount",
          "type": "uint256"
        },
        {
          "internalType": "address",
          "name": "_receiver",
          "type": "address"
        },
        {
          "internalType": "uint256",
          "name": "_expirationBlock",
          "type": "uint256"
        },
        {
          "internalType": "string",
          "name": "_transactionId",
          "type": "string"
        }
      ],
      "name": "withdraw",
      "outputs": [],
      "stateMutability": "nonpayable",
      "type": "function"
    },
    {
      "inputs": [
        {
          "internalType": "address",
          "name": "",
          "type": "address"
        }
      ],
      "name": "withdrawAmount",
      "outputs": [
        {
          "internalType": "uint256",
          "name": "",
          "type": "uint256"
        }
      ],
      "stateMutability": "view",
      "type": "function"
    },
    {
      "inputs": [],
      "name": "withdrawalLimitPerDay",
      "outputs": [
        {
          "internalType": "uint256",
          "name": "",
          "type": "uint256"
        }
      ],
      "stateMutability": "view",
      "type": "function"
    }
  ],
  "transactionHash": "0x3da8873f8ef8c66eab4305120a2242cf6eb3e9278a6614b3eae9799004daf15d",
  "args": [
    "0xD0aA8821c7e86221F801B6351427297b63B01339",
    "0xE1C8a1A74a0C1289BD48B55FAA5f683f789Ca7CE"
  ],
  "numDeployments": 1,
  "solcInputHash": "f3cb0ffbe8cb689a3dc11de5d79ce877",
  "bytecode": "0x60a06040526001805460ff60a81b1916905569010f0cf064dd592000006005553480156200002c57600080fd5b5060405162001bf338038062001bf38339810160408190526200004f9162000386565b60016000556200006862000062620000dc565b620000f8565b6001805460ff60a01b191690556001600160a01b03828116608052600480546001600160a01b03191691831691909117905560408051808201909152600e81526d506c61796275782042726964676560901b6020820152620000ca906200014a565b620000d4620001bc565b5050620003c5565b6000620000f36200026d60201b62000fe51760201c565b905090565b600180546001600160a01b038381166001600160a01b0319831681179093556040519116919082907f8be0079c531659141344cd1fd0a4f28419497f9722a3daafe3b4186f6b6457e090600090a35050565b600154600160a81b900460ff16156200019b5760405162461bcd60e51b815260206004820152600e60248201526d185b1c9958591e481a5b9a5d195960921b60448201526064015b60405180910390fd5b620001a681620002cb565b506001805460ff60a81b1916600160a81b179055565b620001d0600154600160a01b900460ff1690565b15620002125760405162461bcd60e51b815260206004820152601060248201526f14185d5cd8589b194e881c185d5cd95960821b604482015260640162000192565b6001805460ff60a01b1916600160a01b1790557f62e78cea01bee320cd4e420270b5ea74000d11b0c9f74754ebdbfc544b05a25862000250620000dc565b6040516001600160a01b03909116815260200160405180910390a1565b6000303303620002c557600080368080601f0160208091040260200160405190810160405280939291908181526020018383808284376000920191909152505050503601516001600160a01b03169150620002c89050565b50335b90565b6040518060800160405280604f815260200162001ba4604f9139805160209182012082519282019290922060408051808201825260018152603160f81b90840152805180840194909452838101919091527fc89efdaa54c0f20c7adf612882df0950f5a951637e0307cdcb4c672f298b8bc660608401523060808401524660a0808501919091528151808503909101815260c090930190528151910120600255565b6001600160a01b03811681146200038357600080fd5b50565b600080604083850312156200039a57600080fd5b8251620003a7816200036d565b6020840151909250620003ba816200036d565b809150509250929050565b6080516117a06200040460003960008181610346015281816108c501528181610a0f01528181610a6301528181610b950152610f2601526117a06000f3fe6080604052600436106101405760003560e01c8063704b6c02116100b6578063b6b55f251161006f578063b6b55f25146103c9578063d970e674146103e9578063db2e21bc146103ff578063f2fde38b14610414578063f851a44014610434578063fbd693921461045457610140565b8063704b6c02146102ff578063715018a61461031f578063795836c6146103345780638456cb59146103805780638da5cb5b146103955780638f5eaf26146103b357610140565b8063310ad7b611610108578063310ad7b6146102335780633408e470146102535780633f4ba83a146102665780634f4201511461027b5780635c975abb146102a8578063624d7b72146102d257610140565b806306fdde031461014e5780630c53c51c1461019e5780630f7e5970146101b157806320379ee5146101de5780632d0335ab146101fd575b34801561014c57600080fd5b005b34801561015a57600080fd5b506101886040518060400160405280600e81526020016d506c61796275782042726964676560901b81525081565b60405161019591906113a4565b60405180910390f35b6101886101ac366004611466565b610474565b3480156101bd57600080fd5b50610188604051806040016040528060018152602001603160f81b81525081565b3480156101ea57600080fd5b506002545b604051908152602001610195565b34801561020957600080fd5b506101ef6102183660046114f6565b6001600160a01b031660009081526003602052604090205490565b34801561023f57600080fd5b5061014c61024e366004611511565b610653565b34801561025f57600080fd5b50466101ef565b34801561027257600080fd5b5061014c6106a1565b34801561028757600080fd5b506101ef6102963660046114f6565b60066020526000908152604090205481565b3480156102b457600080fd5b50600154600160a01b900460ff166040519015158152602001610195565b3480156102de57600080fd5b506101ef6102ed3660046114f6565b60076020526000908152604090205481565b34801561030b57600080fd5b5061014c61031a3660046114f6565b6106f4565b34801561032b57600080fd5b5061014c61079e565b34801561034057600080fd5b506103687f000000000000000000000000000000000000000000000000000000000000000081565b6040516001600160a01b039091168152602001610195565b34801561038c57600080fd5b5061014c6107f1565b3480156103a157600080fd5b506001546001600160a01b0316610368565b3480156103bf57600080fd5b506101ef60055481565b3480156103d557600080fd5b5061014c6103e4366004611511565b610842565b3480156103f557600080fd5b506101ef616d6081565b34801561040b57600080fd5b5061014c6109c4565b34801561042057600080fd5b5061014c61042f3660046114f6565b610c15565b34801561044057600080fd5b50600454610368906001600160a01b031681565b34801561046057600080fd5b5061014c61046f36600461152a565b610ccf565b604080516060818101835233600090815260036020908152908490205483526001600160a01b038916908301529181018690526104b48782878787611041565b61050f5760405162461bcd60e51b815260206004820152602160248201527f5369676e657220616e64207369676e617475726520646f206e6f74206d6174636044820152600d60fb1b60648201526084015b60405180910390fd5b3360009081526003602052604090205461052a9060016115b5565b33600081815260036020526040908190209290925590517f5845892132946850460bff5a0083f71031bc5bf9aadcd40f1de79423eac9b10b91610571918a91908a906115cd565b60405180910390a1600080306001600160a01b0316888a604051602001610599929190611602565b60408051601f19818403018152908290526105b391611639565b6000604051808303816000865af19150503d80600081146105f0576040519150601f19603f3d011682016040523d82523d6000602084013e6105f5565b606091505b5091509150816106475760405162461bcd60e51b815260206004820152601c60248201527f46756e6374696f6e2063616c6c206e6f74207375636365737366756c000000006044820152606401610506565b98975050505050505050565b61065b611131565b6001600160a01b03166106766001546001600160a01b031690565b6001600160a01b03161461069c5760405162461bcd60e51b815260040161050690611655565b600555565b6106a9611131565b6001600160a01b03166106c46001546001600160a01b031690565b6001600160a01b0316146106ea5760405162461bcd60e51b815260040161050690611655565b6106f2611140565b565b6106fc611131565b6001600160a01b03166107176001546001600160a01b031690565b6001600160a01b03161461073d5760405162461bcd60e51b815260040161050690611655565b600480546001600160a01b038381166001600160a01b031983168117909355604080519190921680825260208201939093527f7e644d79422f17c01e4894b5f4f588d331ebfa28653d42ae832dc59e38c9798f910160405180910390a15050565b6107a6611131565b6001600160a01b03166107c16001546001600160a01b031690565b6001600160a01b0316146107e75760405162461bcd60e51b815260040161050690611655565b6106f260006111e3565b6107f9611131565b6001600160a01b03166108146001546001600160a01b031690565b6001600160a01b03161461083a5760405162461bcd60e51b815260040161050690611655565b6106f2611235565b6002600054036108945760405162461bcd60e51b815260206004820152601f60248201527f5265656e7472616e637947756172643a207265656e7472616e742063616c6c006044820152606401610506565b6002600055600154600160a01b900460ff16156108c35760405162461bcd60e51b81526004016105069061168a565b7f00000000000000000000000000000000000000000000000000000000000000006001600160a01b03166323b872dd6108fa611131565b6040516001600160e01b031960e084901b1681526001600160a01b039091166004820152306024820152604481018490526064016020604051808303816000875af115801561094d573d6000803e3d6000fd5b505050506040513d601f19601f8201168201806040525081019061097191906116b4565b5061097a611131565b6001600160a01b03167fe1fffcc4923d04b559f4d29a8bfc6cda04eb5b0d3c460751c2402c5c5cc9109c826040516109b491815260200190565b60405180910390a2506001600055565b6109cc611131565b6001600160a01b03166109e76001546001600160a01b031690565b6001600160a01b031614610a0d5760405162461bcd60e51b815260040161050690611655565b7f00000000000000000000000000000000000000000000000000000000000000006001600160a01b031663a9059cbb610a4e6001546001600160a01b031690565b6040516370a0823160e01b81523060048201527f00000000000000000000000000000000000000000000000000000000000000006001600160a01b0316906370a0823190602401602060405180830381865afa158015610ab2573d6000803e3d6000fd5b505050506040513d601f19601f82011682018060405250810190610ad691906116d6565b6040516001600160e01b031960e085901b1681526001600160a01b03909216600483015260248201526044016020604051808303816000875af1158015610b21573d6000803e3d6000fd5b505050506040513d601f19601f82011682018060405250810190610b4591906116b4565b506001546001600160a01b03166040516370a0823160e01b81523060048201526001600160a01b03918216917f5fafa99d0643513820be26656b45130b01e1c03062e1266bf36f88cbd3bd9695917f0000000000000000000000000000000000000000000000000000000000000000909116906370a0823190602401602060405180830381865afa158015610bde573d6000803e3d6000fd5b505050506040513d601f19601f82011682018060405250810190610c0291906116d6565b60405190815260200160405180910390a2565b610c1d611131565b6001600160a01b0316610c386001546001600160a01b031690565b6001600160a01b031614610c5e5760405162461bcd60e51b815260040161050690611655565b6001600160a01b038116610cc35760405162461bcd60e51b815260206004820152602660248201527f4f776e61626c653a206e6577206f776e657220697320746865207a65726f206160448201526564647265737360d01b6064820152608401610506565b610ccc816111e3565b50565b600260005403610d215760405162461bcd60e51b815260206004820152601f60248201527f5265656e7472616e637947756172643a207265656e7472616e742063616c6c006044820152606401610506565b6002600055600154600160a01b900460ff1615610d505760405162461bcd60e51b81526004016105069061168a565b814310610d9f5760405162461bcd60e51b815260206004820152601b60248201527f4d657461207472616e73616374696f6e206973206578706972656400000000006044820152606401610506565b6001600160a01b0383166000908152600760205260409020548490616d6090610dc890436116ef565b1115610e3e57600554811115610e205760405162461bcd60e51b815260206004820152601960248201527f5769746864726177616c206c696d6974206578636565646564000000000000006044820152606401610506565b6001600160a01b038416600090815260066020526040812055610ebf565b6005546001600160a01b038516600090815260066020526040902054610e659083906115b5565b1115610ebf5760405162461bcd60e51b8152602060048201526024808201527f5769746864726177616c206c696d6974207065722064617920697320657863656044820152631959195960e21b6064820152608401610506565b6001600160a01b03841660009081526006602052604081208054839290610ee79084906115b5565b90915550506001600160a01b03848116600081815260076020526040908190204390555163a9059cbb60e01b81526004810191909152602481018390527f00000000000000000000000000000000000000000000000000000000000000009091169063a9059cbb906044016020604051808303816000875af1158015610f71573d6000803e3d6000fd5b505050506040513d601f19601f82011682018060405250810190610f9591906116b4565b50836001600160a01b03167f485f1bb6524c663555797e00171a10f341656e59b02d6b557a0a38ba7d5d97518284604051610fd1929190611706565b60405180910390a250506001600055505050565b600030330361103b57600080368080601f0160208091040260200160405190810160405280939291908181526020018383808284376000920191909152505050503601516001600160a01b0316915061103e9050565b50335b90565b60006001600160a01b0386166110a75760405162461bcd60e51b815260206004820152602560248201527f4e61746976654d6574615472616e73616374696f6e3a20494e56414c49445f5360448201526424a3a722a960d91b6064820152608401610506565b60016110ba6110b58761129b565b611318565b6040805160008152602081018083529290925260ff851690820152606081018690526080810185905260a0016020604051602081039080840390855afa158015611108573d6000803e3d6000fd5b505050602060405103516001600160a01b0316866001600160a01b031614905095945050505050565b600061113b610fe5565b905090565b600154600160a01b900460ff166111905760405162461bcd60e51b815260206004820152601460248201527314185d5cd8589b194e881b9bdd081c185d5cd95960621b6044820152606401610506565b6001805460ff60a01b191690557f5db9ee0a495bf2e6ff9c91a7834c1ba4fdd244a5e8aa4e537bd38aeae4b073aa6111c6611131565b6040516001600160a01b03909116815260200160405180910390a1565b600180546001600160a01b038381166001600160a01b0319831681179093556040519116919082907f8be0079c531659141344cd1fd0a4f28419497f9722a3daafe3b4186f6b6457e090600090a35050565b600154600160a01b900460ff161561125f5760405162461bcd60e51b81526004016105069061168a565b6001805460ff60a01b1916600160a01b1790557f62e78cea01bee320cd4e420270b5ea74000d11b0c9f74754ebdbfc544b05a2586111c6611131565b600060405180608001604052806043815260200161172860439139805160209182012083518483015160408087015180519086012090516112fb950193845260208401929092526001600160a01b03166040830152606082015260800190565b604051602081830303815290604052805190602001209050919050565b600061132360025490565b60405161190160f01b60208201526022810191909152604281018390526062016112fb565b60005b8381101561136357818101518382015260200161134b565b83811115611372576000848401525b50505050565b60008151808452611390816020860160208601611348565b601f01601f19169290920160200192915050565b6020815260006113b76020830184611378565b9392505050565b80356001600160a01b03811681146113d557600080fd5b919050565b634e487b7160e01b600052604160045260246000fd5b600067ffffffffffffffff8084111561140b5761140b6113da565b604051601f8501601f19908116603f01168101908282118183101715611433576114336113da565b8160405280935085815286868601111561144c57600080fd5b858560208301376000602087830101525050509392505050565b600080600080600060a0868803121561147e57600080fd5b611487866113be565b9450602086013567ffffffffffffffff8111156114a357600080fd5b8601601f810188136114b457600080fd5b6114c3888235602084016113f0565b9450506040860135925060608601359150608086013560ff811681146114e857600080fd5b809150509295509295909350565b60006020828403121561150857600080fd5b6113b7826113be565b60006020828403121561152357600080fd5b5035919050565b6000806000806080858703121561154057600080fd5b84359350611550602086016113be565b925060408501359150606085013567ffffffffffffffff81111561157357600080fd5b8501601f8101871361158457600080fd5b611593878235602084016113f0565b91505092959194509250565b634e487b7160e01b600052601160045260246000fd5b600082198211156115c8576115c861159f565b500190565b6001600160a01b038481168252831660208201526060604082018190526000906115f990830184611378565b95945050505050565b60008351611614818460208801611348565b60609390931b6bffffffffffffffffffffffff19169190920190815260140192915050565b6000825161164b818460208701611348565b9190910192915050565b6020808252818101527f4f776e61626c653a2063616c6c6572206973206e6f7420746865206f776e6572604082015260600190565b60208082526010908201526f14185d5cd8589b194e881c185d5cd95960821b604082015260600190565b6000602082840312156116c657600080fd5b815180151581146113b757600080fd5b6000602082840312156116e857600080fd5b5051919050565b6000828210156117015761170161159f565b500390565b82815260406020820152600061171f6040830184611378565b94935050505056fe4d6574615472616e73616374696f6e2875696e74323536206e6f6e63652c616464726573732066726f6d2c62797465732066756e6374696f6e5369676e617475726529a2646970667358221220666dc99a77e4354963145a6adb43836463eeaf69d605b5f1a812a2a72e5029b464736f6c634300080e0033454950373132446f6d61696e28737472696e67206e616d652c737472696e672076657273696f6e2c6164647265737320766572696679696e67436f6e74726163742c627974657333322073616c7429",
  "devdoc": {
    "kind": "dev",
    "methods": {
      "owner()": {
        "details": "Returns the address of the current owner."
      },
      "paused()": {
        "details": "Returns true if the contract is paused, and false otherwise."
      },
      "renounceOwnership()": {
        "details": "Leaves the contract without owner. It will not be possible to call `onlyOwner` functions anymore. Can only be called by the current owner. NOTE: Renouncing ownership will leave the contract without an owner, thereby removing any functionality that is only available to the owner."
      },
      "transferOwnership(address)": {
        "details": "Transfers ownership of the contract to a new account (`newOwner`). Can only be called by the current owner."
      }
    },
    "version": 1
  },
  "userdoc": {
    "kind": "user",
    "methods": {},
    "version": 1
  },
  "storageLayout": {
    "storage": [
      {
        "astId": 207,
        "contract": "contracts/PlaybuxBridge.sol:PlaybuxBridge",
        "label": "_status",
        "offset": 0,
        "slot": "0",
        "type": "t_uint256"
      },
      {
        "astId": 7,
        "contract": "contracts/PlaybuxBridge.sol:PlaybuxBridge",
        "label": "_owner",
        "offset": 0,
        "slot": "1",
        "type": "t_address"
      },
      {
        "astId": 122,
        "contract": "contracts/PlaybuxBridge.sol:PlaybuxBridge",
        "label": "_paused",
        "offset": 20,
        "slot": "1",
        "type": "t_bool"
      },
      {
        "astId": 1517,
        "contract": "contracts/PlaybuxBridge.sol:PlaybuxBridge",
        "label": "inited",
        "offset": 21,
        "slot": "1",
        "type": "t_bool"
      },
      {
        "astId": 1424,
        "contract": "contracts/PlaybuxBridge.sol:PlaybuxBridge",
        "label": "domainSeperator",
        "offset": 0,
        "slot": "2",
        "type": "t_bytes32"
      },
      {
        "astId": 1558,
        "contract": "contracts/PlaybuxBridge.sol:PlaybuxBridge",
        "label": "nonces",
        "offset": 0,
        "slot": "3",
        "type": "t_mapping(t_address,t_uint256)"
      },
      {
        "astId": 1066,
        "contract": "contracts/PlaybuxBridge.sol:PlaybuxBridge",
        "label": "admin",
        "offset": 0,
        "slot": "4",
        "type": "t_address"
      },
      {
        "astId": 1069,
        "contract": "contracts/PlaybuxBridge.sol:PlaybuxBridge",
        "label": "withdrawalLimitPerDay",
        "offset": 0,
        "slot": "5",
        "type": "t_uint256"
      },
      {
        "astId": 1073,
        "contract": "contracts/PlaybuxBridge.sol:PlaybuxBridge",
        "label": "withdrawAmount",
        "offset": 0,
        "slot": "6",
        "type": "t_mapping(t_address,t_uint256)"
      },
      {
        "astId": 1077,
        "contract": "contracts/PlaybuxBridge.sol:PlaybuxBridge",
        "label": "lastWithdraw",
        "offset": 0,
        "slot": "7",
        "type": "t_mapping(t_address,t_uint256)"
      }
    ],
    "types": {
      "t_address": {
        "encoding": "inplace",
        "label": "address",
        "numberOfBytes": "20"
      },
      "t_bool": {
        "encoding": "inplace",
        "label": "bool",
        "numberOfBytes": "1"
      },
      "t_bytes32": {
        "encoding": "inplace",
        "label": "bytes32",
        "numberOfBytes": "32"
      },
      "t_mapping(t_address,t_uint256)": {
        "encoding": "mapping",
        "key": "t_address",
        "label": "mapping(address => uint256)",
        "numberOfBytes": "32",
        "value": "t_uint256"
      },
      "t_uint256": {
        "encoding": "inplace",
        "label": "uint256",
        "numberOfBytes": "32"
      }
    }
  }
}